{
  "contractName": "ActiveBridgeSetLib",
  "abi": [
    {
      "inputs": [],
      "name": "ACTIVITY_LENGTH",
      "outputs": [
        {
          "internalType": "uint8",
          "name": "",
          "type": "uint8"
        }
      ],
      "stateMutability": "view",
      "type": "function"
    },
    {
      "inputs": [],
      "name": "CLAIM_BLOCK_PERIOD",
      "outputs": [
        {
          "internalType": "uint8",
          "name": "",
          "type": "uint8"
        }
      ],
      "stateMutability": "view",
      "type": "function"
    }
  ],
  "bytecode": "0x60a4610024600b82828239805160001a607314601757fe5b30600052607381538281f3fe7300000000000000000000000000000000000000003014608060405260043610603d5760003560e01c80632b5e3e6b1460425780633f27164114605e575b600080fd5b60486064565b6040805160ff9092168252519081900360200190f35b60486069565b606481565b60088156fea2646970667358221220a078e7ffece2977ae0982d700a0758520692548f01df632aa39bce48d658439664736f6c63430006080033",
  "immutableReferences": {},
  "source": "// SPDX-License-Identifier: MIT\n\npragma solidity >=0.6.0 <0.7.0;\n\n\n/**\n * @title Active Bridge Set (ABS) library\n * @notice This library counts the number of bridges that were active recently.\n */\nlibrary ActiveBridgeSetLib {\n\n  // Number of Ethereum blocks during which identities can be pushed into a single activity slot\n  uint8 public constant CLAIM_BLOCK_PERIOD = 8;\n\n  // Number of activity slots in the ABS\n  uint8 public constant ACTIVITY_LENGTH = 100;\n\n  struct ActiveBridgeSet {\n    // Mapping of activity slots with participating identities\n    mapping (uint16 => address[]) epochIdentities;\n    // Mapping of identities with their participation count\n    mapping (address => uint16) identityCount;\n    // Number of identities in the Active Bridge Set (consolidated during `ACTIVITY_LENGTH`)\n    uint32 activeIdentities;\n    // Number of identities for the next activity slot (to be updated in the next activity slot)\n    uint32 nextActiveIdentities;\n    // Last used block number during an activity update\n    uint256 lastBlockNumber;\n  }\n\n  modifier validBlockNumber(uint256 _blockFromArguments, uint256 _blockFromContractState) {\n    require (_blockFromArguments >= _blockFromContractState, \"The provided block is older than the last updated block\");\n    _;\n  }\n\n  /// @dev Updates activity in Witnet without requiring protocol participation.\n  /// @param _abs The Active Bridge Set structure to be updated.\n  /// @param _blockNumber The block number up to which the activity should be updated.\n  function updateActivity(ActiveBridgeSet storage _abs, uint256 _blockNumber)\n    internal\n    validBlockNumber(_blockNumber, _abs.lastBlockNumber)\n  {\n    (uint16 currentSlot, uint16 lastSlot, bool overflow) = getSlots(_abs, _blockNumber);\n\n    // Avoid gas cost if ABS is up to date\n    require(\n      updateABS(\n        _abs,\n        currentSlot,\n        lastSlot,\n        overflow\n      ), \"The ABS was already up to date\");\n\n    _abs.lastBlockNumber = _blockNumber;\n  }\n\n  /// @dev Pushes activity updates through protocol activities (implying insertion of identity).\n  /// @param _abs The Active Bridge Set structure to be updated.\n  /// @param _address The address pushing the activity.\n  /// @param _blockNumber The block number up to which the activity should be updated.\n  function pushActivity(ActiveBridgeSet storage _abs, address _address, uint256 _blockNumber)\n    internal\n    validBlockNumber(_blockNumber, _abs.lastBlockNumber)\n  returns (bool success)\n  {\n    (uint16 currentSlot, uint16 lastSlot, bool overflow) = getSlots(_abs, _blockNumber);\n\n    // Update ABS and if it was already up to date, check if identities already counted\n    if (\n      updateABS(\n        _abs,\n        currentSlot,\n        lastSlot,\n        overflow\n      ))\n    {\n      _abs.lastBlockNumber = _blockNumber;\n    } else {\n      // Check if address was already counted as active identity in this current activity slot\n      uint256 epochIdsLength = _abs.epochIdentities[currentSlot].length;\n      for (uint256 i; i < epochIdsLength; i++) {\n        if (_abs.epochIdentities[currentSlot][i] == _address) {\n          return false;\n        }\n      }\n    }\n\n    // Update current activity slot with identity:\n    //  1. Add currentSlot to `epochIdentities` with address\n    //  2. If count = 0, increment by 1 `nextActiveIdentities`\n    //  3. Increment by 1 the count of the identity\n    _abs.epochIdentities[currentSlot].push(_address);\n    if (_abs.identityCount[_address] == 0) {\n      _abs.nextActiveIdentities++;\n    }\n    _abs.identityCount[_address]++;\n\n    return true;\n  }\n\n  /// @dev Checks if an address is a member of the ABS.\n  /// @param _abs The Active Bridge Set structure from the Witnet Requests Board.\n  /// @param _address The address to check.\n  /// @return true if address is member of ABS.\n  function absMembership(ActiveBridgeSet storage _abs, address _address) internal view returns (bool) {\n    return _abs.identityCount[_address] > 0;\n  }\n\n  /// @dev Gets the slots of the last block seen by the ABS provided and the block number provided.\n  /// @param _abs The Active Bridge Set structure containing the last block.\n  /// @param _blockNumber The block number from which to get the current slot.\n  /// @return (currentSlot, lastSlot, overflow), where overflow implies the block difference &gt; CLAIM_BLOCK_PERIOD* ACTIVITY_LENGTH.\n  function getSlots(ActiveBridgeSet storage _abs, uint256 _blockNumber) private view returns (uint8, uint8, bool) {\n    // Get current activity slot number\n    uint8 currentSlot = uint8((_blockNumber / CLAIM_BLOCK_PERIOD) % ACTIVITY_LENGTH);\n    // Get last actitivy slot number\n    uint8 lastSlot = uint8((_abs.lastBlockNumber / CLAIM_BLOCK_PERIOD) % ACTIVITY_LENGTH);\n    // Check if there was an activity slot overflow\n    // `ACTIVITY_LENGTH` is changed to `uint16` here to ensure the multiplication doesn't overflow silently\n    bool overflow = (_blockNumber - _abs.lastBlockNumber) >= CLAIM_BLOCK_PERIOD * uint16(ACTIVITY_LENGTH);\n\n    return (currentSlot, lastSlot, overflow);\n  }\n\n  /// @dev Updates the provided ABS according to the slots provided.\n  /// @param _abs The Active Bridge Set to be updated.\n  /// @param _currentSlot The current slot.\n  /// @param _lastSlot The last slot seen by the ABS.\n  /// @param _overflow Whether the current slot has overflown the last slot.\n  /// @return True if update occurred.\n  function updateABS(\n    ActiveBridgeSet storage _abs,\n    uint16 _currentSlot,\n    uint16 _lastSlot,\n    bool _overflow)\n    private\n  returns (bool)\n  {\n    // If there are more than `ACTIVITY_LENGTH` slots empty => remove entirely the ABS\n    if (_overflow) {\n      flushABS(_abs, _lastSlot, _lastSlot);\n    // If ABS are not up to date => fill previous activity slots with empty activities\n    } else if (_currentSlot != _lastSlot) {\n      flushABS(_abs, _currentSlot, _lastSlot);\n    } else {\n      return false;\n    }\n\n    return true;\n  }\n\n  /// @dev Flushes the provided ABS record between lastSlot and currentSlot.\n  /// @param _abs The Active Bridge Set to be flushed.\n  /// @param _currentSlot The current slot.\n  function flushABS(ActiveBridgeSet storage _abs, uint16 _currentSlot, uint16 _lastSlot) private {\n    // For each slot elapsed, remove identities and update `nextActiveIdentities` count\n    for (uint16 slot = (_lastSlot + 1) % ACTIVITY_LENGTH ; slot != _currentSlot ; slot = (slot + 1) % ACTIVITY_LENGTH) {\n      flushSlot(_abs, slot);\n    }\n    // Update current activity slot\n    flushSlot(_abs, _currentSlot);\n    _abs.activeIdentities = _abs.nextActiveIdentities;\n  }\n\n  /// @dev Flushes a slot of the provided ABS.\n  /// @param _abs The Active Bridge Set to be flushed.\n  /// @param _slot The slot to be flushed.\n  function flushSlot(ActiveBridgeSet storage _abs, uint16 _slot) private {\n    // For a given slot, go through all identities to flush them\n    uint256 epochIdsLength = _abs.epochIdentities[_slot].length;\n    for (uint256 id = 0; id < epochIdsLength; id++) {\n      flushIdentity(_abs, _abs.epochIdentities[_slot][id]);\n    }\n    delete _abs.epochIdentities[_slot];\n  }\n\n  /// @dev Decrements the appearance counter of an identity from the provided ABS. If the counter reaches 0, the identity is flushed.\n  /// @param _abs The Active Bridge Set to be flushed.\n  /// @param _address The address to be flushed.\n  function flushIdentity(ActiveBridgeSet storage _abs, address _address) private {\n    require(absMembership(_abs, _address), \"The identity address is already out of the ARS\");\n    // Decrement the count of an identity, and if it reaches 0, delete it and update `nextActiveIdentities`count\n    _abs.identityCount[_address]--;\n    if (_abs.identityCount[_address] == 0) {\n      delete _abs.identityCount[_address];\n      _abs.nextActiveIdentities--;\n    }\n  }\n}",
  "sourcePath": "/Users/sbacha/witnet-ethereum-bridge/contracts/ActiveBridgeSetLib.sol",
  "compiler": {
    "name": "solc",
    "version": "0.6.8+commit.0bbfe453.Emscripten.clang"
  },
  "schemaVersion": "3.2.0",
  "updatedAt": "2020-06-12T08:08:15.444Z",
  "devdoc": {
    "methods": {},
    "title": "Active Bridge Set (ABS) library"
  },
  "userdoc": {
    "methods": {},
    "notice": "This library counts the number of bridges that were active recently."
  }
}