{
  "contractName": "BlockRelayProxy",
  "abi": [
    {
      "inputs": [
        {
          "internalType": "address",
          "name": "_blockRelayAddress",
          "type": "address"
        }
      ],
      "stateMutability": "nonpayable",
      "type": "constructor"
    },
    {
      "inputs": [],
      "name": "getLastBeacon",
      "outputs": [
        {
          "internalType": "bytes",
          "name": "",
          "type": "bytes"
        }
      ],
      "stateMutability": "view",
      "type": "function"
    },
    {
      "inputs": [],
      "name": "getLastEpoch",
      "outputs": [
        {
          "internalType": "uint256",
          "name": "",
          "type": "uint256"
        }
      ],
      "stateMutability": "view",
      "type": "function"
    },
    {
      "inputs": [
        {
          "internalType": "uint256[]",
          "name": "_poi",
          "type": "uint256[]"
        },
        {
          "internalType": "uint256",
          "name": "_blockHash",
          "type": "uint256"
        },
        {
          "internalType": "uint256",
          "name": "_epoch",
          "type": "uint256"
        },
        {
          "internalType": "uint256",
          "name": "_index",
          "type": "uint256"
        },
        {
          "internalType": "uint256",
          "name": "_element",
          "type": "uint256"
        }
      ],
      "name": "verifyDrPoi",
      "outputs": [
        {
          "internalType": "bool",
          "name": "",
          "type": "bool"
        }
      ],
      "stateMutability": "view",
      "type": "function"
    },
    {
      "inputs": [
        {
          "internalType": "uint256[]",
          "name": "_poi",
          "type": "uint256[]"
        },
        {
          "internalType": "uint256",
          "name": "_blockHash",
          "type": "uint256"
        },
        {
          "internalType": "uint256",
          "name": "_epoch",
          "type": "uint256"
        },
        {
          "internalType": "uint256",
          "name": "_index",
          "type": "uint256"
        },
        {
          "internalType": "uint256",
          "name": "_element",
          "type": "uint256"
        }
      ],
      "name": "verifyTallyPoi",
      "outputs": [
        {
          "internalType": "bool",
          "name": "",
          "type": "bool"
        }
      ],
      "stateMutability": "view",
      "type": "function"
    },
    {
      "inputs": [
        {
          "internalType": "address",
          "name": "_newAddress",
          "type": "address"
        }
      ],
      "name": "upgradeBlockRelay",
      "outputs": [],
      "stateMutability": "nonpayable",
      "type": "function"
    },
    {
      "inputs": [
        {
          "internalType": "uint256",
          "name": "_epoch",
          "type": "uint256"
        }
      ],
      "name": "getController",
      "outputs": [
        {
          "internalType": "address",
          "name": "_controller",
          "type": "address"
        }
      ],
      "stateMutability": "view",
      "type": "function"
    }
  ],
  "bytecode": "0x608060405234801561001057600080fd5b50604051610a59380380610a598339818101604052602081101561003357600080fd5b50516040805180820190915260008082526001600160a01b03928316602083018181526002805460018181018355828652955191027f405787fa12a823e0f2b7631cc41b3ba8828b3321ca811111fa75cd3aa3bb5ace81019190915590517f405787fa12a823e0f2b7631cc41b3ba8828b3321ca811111fa75cd3aa3bb5acf9091018054919095166001600160a01b0319918216179094558154841681179091558154909216909117905561096c806100ed6000396000f3fe608060405234801561001057600080fd5b50600436106100625760003560e01c80631911421e14610067578063398bac631461008f57806356513389146100a957806358edaa9c1461013f5780635e717a1a14610178578063e987ed58146101fa575b600080fd5b61008d6004803603602081101561007d57600080fd5b50356001600160a01b0316610277565b005b61009761052b565b60408051918252519081900360200190f35b61012b600480360360a08110156100bf57600080fd5b8101906020810181356401000000008111156100da57600080fd5b8201836020820111156100ec57600080fd5b8035906020019184602083028401116401000000008311171561010e57600080fd5b9193509150803590602081013590604081013590606001356105a1565b604080519115158252519081900360200190f35b61015c6004803603602081101561015557600080fd5b5035610672565b604080516001600160a01b039092168252519081900360200190f35b61012b600480360360a081101561018e57600080fd5b8101906020810181356401000000008111156101a957600080fd5b8201836020820111156101bb57600080fd5b803590602001918460208302840111640100000000831117156101dd57600080fd5b9193509150803590602081013590604081013590606001356106f0565b610202610789565b6040805160208082528351818301528351919283929083019185019080838360005b8381101561023c578181015183820152602001610224565b50505050905090810190601f1680156102695780820380516001836020036101000a031916815260200191505b509250505060405180910390f35b60005481906001600160a01b03808316911614156102c65760405162461bcd60e51b815260040180806020018281038252603b8152602001806108c1603b913960400191505060405180910390fd5b6001546040805163be2adb3560e01b815233600482015290516001600160a01b039092169163be2adb3591602480820192602092909190829003018186803b15801561031157600080fd5b505afa158015610325573d6000803e3d6000fd5b505050506040513d602081101561033b57600080fd5b50516103785760405162461bcd60e51b815260040180806020018281038252603b8152602001806108fc603b913960400191505060405180910390fd5b6001546040805163398bac6360e01b815290516000926001600160a01b03169163398bac63916004808301926020929190829003018186803b1580156103bd57600080fd5b505afa1580156103d1573d6000803e3d6000fd5b505050506040513d60208110156103e757600080fd5b50516002805491925060001982018281106103fe57fe5b90600052602060002090600202016000015482101561046257836002600183038154811061042857fe5b906000526020600020906002020160010160006101000a8154816001600160a01b0302191690836001600160a01b031602179055506104fb565b60408051808201909152600183810182526001600160a01b0386811660208401908152600280549384018155600081905293517f405787fa12a823e0f2b7631cc41b3ba8828b3321ca811111fa75cd3aa3bb5ace939094029283019390935591517f405787fa12a823e0f2b7631cc41b3ba8828b3321ca811111fa75cd3aa3bb5acf90910180546001600160a01b031916919092161790555b5050600080546001600160a01b039093166001600160a01b03199384168117909155600180549093161790915550565b6001546040805163398bac6360e01b815290516000926001600160a01b03169163398bac63916004808301926020929190829003018186803b15801561057057600080fd5b505afa158015610584573d6000803e3d6000fd5b505050506040513d602081101561059a57600080fd5b5051905090565b6000806105ad85610672565b9050806001600160a01b0316639806e62b89898988886040518663ffffffff1660e01b815260040180806020018581526020018481526020018381526020018281038252878782818152602001925060200280828437600081840152601f19601f820116905080830192505050965050505050505060206040518083038186803b15801561063a57600080fd5b505afa15801561064e573d6000803e3d6000fd5b505050506040513d602081101561066457600080fd5b505198975050505050505050565b600254600090805b80156106e8576002600182038154811061069057fe5b90600052602060002090600202016000015484106106df57600260018203815481106106b857fe5b60009182526020909120600160029092020101546001600160a01b031692506106eb915050565b6000190161067a565b50505b919050565b6000806106fc85610672565b9050806001600160a01b0316631b58f9c789898988886040518663ffffffff1660e01b815260040180806020018581526020018481526020018381526020018281038252878782818152602001925060200280828437600081840152601f19601f820116905080830192505050965050505050505060206040518083038186803b15801561063a57600080fd5b60015460408051631d30fdab60e31b815290516060926001600160a01b03169163e987ed58916004808301926000929190829003018186803b1580156107ce57600080fd5b505afa1580156107e2573d6000803e3d6000fd5b505050506040513d6000823e601f3d908101601f19168201604052602081101561080b57600080fd5b810190808051604051939291908464010000000082111561082b57600080fd5b90830190602082018581111561084057600080fd5b825164010000000081118282018810171561085a57600080fd5b82525081516020918201929091019080838360005b8381101561088757818101518382015260200161086f565b50505050905090810190601f1680156108b45780820380516001836020036101000a031916815260200191505b5060405250505090509056fe5468652070726f766964656420426c6f636b2052656c617920696e7374616e6365206164647265737320697320616c726561647920696e20757365546865207570677261646520686173206265656e2072656a6563746564206279207468652063757272656e7420696d706c656d656e746174696f6ea26469706673582212204255ba584db2747a148745aff2792e576acecaa11a457d62f806e1733874aad864736f6c63430006080033",
  "immutableReferences": {},
  "source": "// SPDX-License-Identifier: MIT\n\npragma solidity 0.6.8;\n\nimport \"./BlockRelayInterface.sol\";\n\n\n/**\n * @title Block Relay Proxy\n * @notice Contract to act as a proxy between the Witnet Bridge Interface and the block relay\n * @dev More information can be found here\n * DISCLAIMER: this is a work in progress, meaning the contract could be voulnerable to attacks\n * @author Witnet Foundation\n */\ncontract BlockRelayProxy {\n\n  // Address of the current controller\n  address internal blockRelayAddress;\n  // Current interface to the controller\n  BlockRelayInterface internal blockRelayInstance;\n\n  struct ControllerInfo {\n    // last epoch seen by a controller\n    uint256 lastEpoch;\n    // address of the controller\n    address blockRelayController;\n  }\n\n  // array containing the information about controllers\n  ControllerInfo[] internal controllers;\n\n  modifier notIdentical(address _newAddress) {\n    require(_newAddress != blockRelayAddress, \"The provided Block Relay instance address is already in use\");\n    _;\n  }\n\n  constructor(address _blockRelayAddress) public {\n    // Initialize the first epoch pointing to the first controller\n    controllers.push(ControllerInfo({lastEpoch: 0, blockRelayController: _blockRelayAddress}));\n    blockRelayAddress = _blockRelayAddress;\n    blockRelayInstance = BlockRelayInterface(_blockRelayAddress);\n  }\n\n  /// @notice Returns the beacon from the last inserted block.\n  /// The last beacon (in bytes) will be used by Witnet Bridge nodes to compute their eligibility.\n  /// @return last beacon in bytes\n  function getLastBeacon() external view returns(bytes memory) {\n    return blockRelayInstance.getLastBeacon();\n  }\n\n  /// @notice Returns the last Wtinet epoch known to the block relay instance.\n  /// @return The last epoch is used in the WRB to avoid reusage of PoI in a data request.\n  function getLastEpoch() external view returns(uint256) {\n    return blockRelayInstance.getLastEpoch();\n  }\n\n  /// @notice Verifies the validity of a data request PoI against the DR merkle root\n  /// @param _poi the proof of inclusion as [sibling1, sibling2,..]\n  /// @param _blockHash the blockHash\n  /// @param _epoch the epoch of the blockchash\n  /// @param _index the index in the merkle tree of the element to verify\n  /// @param _element the leaf to be verified\n  /// @return true if valid data request PoI\n  function verifyDrPoi(\n    uint256[] calldata _poi,\n    uint256 _blockHash,\n    uint256 _epoch,\n    uint256 _index,\n    uint256 _element) external view returns(bool)\n    {\n    address controller = getController(_epoch);\n    return BlockRelayInterface(controller).verifyDrPoi(\n      _poi,\n      _blockHash,\n      _index,\n      _element);\n  }\n\n  /// @notice Verifies the validity of a tally PoI against the DR merkle root\n  /// @param _poi the proof of inclusion as [sibling1, sibling2,..]\n  /// @param _blockHash the blockHash\n  /// @param _epoch the epoch of the blockchash\n  /// @param _index the index in the merkle tree of the element to verify\n  /// @param _element the leaf to be verified\n  /// @return true if valid data request PoI\n  function verifyTallyPoi(\n    uint256[] calldata _poi,\n    uint256 _blockHash,\n    uint256 _epoch,\n    uint256 _index,\n    uint256 _element) external view returns(bool)\n    {\n    address controller = getController(_epoch);\n\n    return BlockRelayInterface(controller).verifyTallyPoi(\n      _poi,\n      _blockHash,\n      _index,\n      _element);\n  }\n\n  /// @notice Upgrades the block relay if the current one is upgradeable\n  /// @param _newAddress address of the new block relay to upgrade\n  function upgradeBlockRelay(address _newAddress) external notIdentical(_newAddress) {\n    // Check if the controller is upgradeable\n    require(blockRelayInstance.isUpgradable(msg.sender), \"The upgrade has been rejected by the current implementation\");\n    // Get last epoch seen by the replaced controller\n    uint256 epoch = blockRelayInstance.getLastEpoch();\n    // Get the length of last epochs seen by the different controllers\n    uint256 n = controllers.length;\n    // If the the last epoch seen by the replaced controller is lower than the one already anotated e.g. 0\n    // just update the already anotated epoch with the new address, ignoring the previously inserted controller\n    // Else, anotate the epoch from which the new controller should start receiving blocks\n    if (epoch < controllers[n-1].lastEpoch) {\n      controllers[n-1].blockRelayController = _newAddress;\n    } else {\n      controllers.push(ControllerInfo({lastEpoch: epoch+1, blockRelayController: _newAddress}));\n    }\n\n    // Update instance\n    blockRelayAddress = _newAddress;\n    blockRelayInstance = BlockRelayInterface(_newAddress);\n  }\n\n  /// @notice Gets the controller associated with the BR controller corresponding to the epoch provided\n  /// @param _epoch the epoch to work with\n  function getController(uint256 _epoch) public view returns(address _controller) {\n    // Get length of all last epochs seen by controllers\n    uint256 n = controllers.length;\n    // Go backwards until we find the controller having that blockhash\n    for (uint i = n; i > 0; i--) {\n      if (_epoch >= controllers[i-1].lastEpoch) {\n        return (controllers[i-1].blockRelayController);\n      }\n    }\n  }\n}\n",
  "sourcePath": "witnet-ethereum-block-relay/contracts/BlockRelayProxy.sol",
  "compiler": {
    "name": "solc",
    "version": "0.6.8+commit.0bbfe453.Emscripten.clang"
  },
  "schemaVersion": "3.2.0",
  "updatedAt": "2020-06-12T08:08:15.546Z",
  "devdoc": {
    "author": "Witnet Foundation",
    "details": "More information can be found here DISCLAIMER: this is a work in progress, meaning the contract could be voulnerable to attacks",
    "methods": {
      "getController(uint256)": {
        "params": {
          "_epoch": "the epoch to work with"
        }
      },
      "getLastBeacon()": {
        "returns": {
          "_0": "last beacon in bytes"
        }
      },
      "getLastEpoch()": {
        "returns": {
          "_0": "The last epoch is used in the WRB to avoid reusage of PoI in a data request."
        }
      },
      "upgradeBlockRelay(address)": {
        "params": {
          "_newAddress": "address of the new block relay to upgrade"
        }
      },
      "verifyDrPoi(uint256[],uint256,uint256,uint256,uint256)": {
        "params": {
          "_blockHash": "the blockHash",
          "_element": "the leaf to be verified",
          "_epoch": "the epoch of the blockchash",
          "_index": "the index in the merkle tree of the element to verify",
          "_poi": "the proof of inclusion as [sibling1, sibling2,..]"
        },
        "returns": {
          "_0": "true if valid data request PoI"
        }
      },
      "verifyTallyPoi(uint256[],uint256,uint256,uint256,uint256)": {
        "params": {
          "_blockHash": "the blockHash",
          "_element": "the leaf to be verified",
          "_epoch": "the epoch of the blockchash",
          "_index": "the index in the merkle tree of the element to verify",
          "_poi": "the proof of inclusion as [sibling1, sibling2,..]"
        },
        "returns": {
          "_0": "true if valid data request PoI"
        }
      }
    },
    "title": "Block Relay Proxy"
  },
  "userdoc": {
    "methods": {
      "getController(uint256)": {
        "notice": "Gets the controller associated with the BR controller corresponding to the epoch provided"
      },
      "getLastBeacon()": {
        "notice": "Returns the beacon from the last inserted block. The last beacon (in bytes) will be used by Witnet Bridge nodes to compute their eligibility."
      },
      "getLastEpoch()": {
        "notice": "Returns the last Wtinet epoch known to the block relay instance."
      },
      "upgradeBlockRelay(address)": {
        "notice": "Upgrades the block relay if the current one is upgradeable"
      },
      "verifyDrPoi(uint256[],uint256,uint256,uint256,uint256)": {
        "notice": "Verifies the validity of a data request PoI against the DR merkle root"
      },
      "verifyTallyPoi(uint256[],uint256,uint256,uint256,uint256)": {
        "notice": "Verifies the validity of a tally PoI against the DR merkle root"
      }
    },
    "notice": "Contract to act as a proxy between the Witnet Bridge Interface and the block relay"
  }
}