{
  "contractName": "CBOR",
  "abi": [
    {
      "inputs": [
        {
          "components": [
            {
              "components": [
                {
                  "internalType": "bytes",
                  "name": "data",
                  "type": "bytes"
                },
                {
                  "internalType": "uint32",
                  "name": "cursor",
                  "type": "uint32"
                }
              ],
              "internalType": "struct BufferLib.Buffer",
              "name": "buffer",
              "type": "tuple"
            },
            {
              "internalType": "uint8",
              "name": "initialByte",
              "type": "uint8"
            },
            {
              "internalType": "uint8",
              "name": "majorType",
              "type": "uint8"
            },
            {
              "internalType": "uint8",
              "name": "additionalInformation",
              "type": "uint8"
            },
            {
              "internalType": "uint64",
              "name": "len",
              "type": "uint64"
            },
            {
              "internalType": "uint64",
              "name": "tag",
              "type": "uint64"
            }
          ],
          "internalType": "struct CBOR.Value",
          "name": "_cborValue",
          "type": "tuple"
        }
      ],
      "name": "decodeBytes",
      "outputs": [
        {
          "internalType": "bytes",
          "name": "",
          "type": "bytes"
        }
      ],
      "stateMutability": "pure",
      "type": "function"
    },
    {
      "inputs": [
        {
          "components": [
            {
              "components": [
                {
                  "internalType": "bytes",
                  "name": "data",
                  "type": "bytes"
                },
                {
                  "internalType": "uint32",
                  "name": "cursor",
                  "type": "uint32"
                }
              ],
              "internalType": "struct BufferLib.Buffer",
              "name": "buffer",
              "type": "tuple"
            },
            {
              "internalType": "uint8",
              "name": "initialByte",
              "type": "uint8"
            },
            {
              "internalType": "uint8",
              "name": "majorType",
              "type": "uint8"
            },
            {
              "internalType": "uint8",
              "name": "additionalInformation",
              "type": "uint8"
            },
            {
              "internalType": "uint64",
              "name": "len",
              "type": "uint64"
            },
            {
              "internalType": "uint64",
              "name": "tag",
              "type": "uint64"
            }
          ],
          "internalType": "struct CBOR.Value",
          "name": "_cborValue",
          "type": "tuple"
        }
      ],
      "name": "decodeFixed16",
      "outputs": [
        {
          "internalType": "int32",
          "name": "",
          "type": "int32"
        }
      ],
      "stateMutability": "pure",
      "type": "function"
    },
    {
      "inputs": [
        {
          "components": [
            {
              "components": [
                {
                  "internalType": "bytes",
                  "name": "data",
                  "type": "bytes"
                },
                {
                  "internalType": "uint32",
                  "name": "cursor",
                  "type": "uint32"
                }
              ],
              "internalType": "struct BufferLib.Buffer",
              "name": "buffer",
              "type": "tuple"
            },
            {
              "internalType": "uint8",
              "name": "initialByte",
              "type": "uint8"
            },
            {
              "internalType": "uint8",
              "name": "majorType",
              "type": "uint8"
            },
            {
              "internalType": "uint8",
              "name": "additionalInformation",
              "type": "uint8"
            },
            {
              "internalType": "uint64",
              "name": "len",
              "type": "uint64"
            },
            {
              "internalType": "uint64",
              "name": "tag",
              "type": "uint64"
            }
          ],
          "internalType": "struct CBOR.Value",
          "name": "_cborValue",
          "type": "tuple"
        }
      ],
      "name": "decodeFixed16Array",
      "outputs": [
        {
          "internalType": "int128[]",
          "name": "",
          "type": "int128[]"
        }
      ],
      "stateMutability": "pure",
      "type": "function"
    },
    {
      "inputs": [
        {
          "components": [
            {
              "components": [
                {
                  "internalType": "bytes",
                  "name": "data",
                  "type": "bytes"
                },
                {
                  "internalType": "uint32",
                  "name": "cursor",
                  "type": "uint32"
                }
              ],
              "internalType": "struct BufferLib.Buffer",
              "name": "buffer",
              "type": "tuple"
            },
            {
              "internalType": "uint8",
              "name": "initialByte",
              "type": "uint8"
            },
            {
              "internalType": "uint8",
              "name": "majorType",
              "type": "uint8"
            },
            {
              "internalType": "uint8",
              "name": "additionalInformation",
              "type": "uint8"
            },
            {
              "internalType": "uint64",
              "name": "len",
              "type": "uint64"
            },
            {
              "internalType": "uint64",
              "name": "tag",
              "type": "uint64"
            }
          ],
          "internalType": "struct CBOR.Value",
          "name": "_cborValue",
          "type": "tuple"
        }
      ],
      "name": "decodeInt128",
      "outputs": [
        {
          "internalType": "int128",
          "name": "",
          "type": "int128"
        }
      ],
      "stateMutability": "pure",
      "type": "function"
    },
    {
      "inputs": [
        {
          "components": [
            {
              "components": [
                {
                  "internalType": "bytes",
                  "name": "data",
                  "type": "bytes"
                },
                {
                  "internalType": "uint32",
                  "name": "cursor",
                  "type": "uint32"
                }
              ],
              "internalType": "struct BufferLib.Buffer",
              "name": "buffer",
              "type": "tuple"
            },
            {
              "internalType": "uint8",
              "name": "initialByte",
              "type": "uint8"
            },
            {
              "internalType": "uint8",
              "name": "majorType",
              "type": "uint8"
            },
            {
              "internalType": "uint8",
              "name": "additionalInformation",
              "type": "uint8"
            },
            {
              "internalType": "uint64",
              "name": "len",
              "type": "uint64"
            },
            {
              "internalType": "uint64",
              "name": "tag",
              "type": "uint64"
            }
          ],
          "internalType": "struct CBOR.Value",
          "name": "_cborValue",
          "type": "tuple"
        }
      ],
      "name": "decodeInt128Array",
      "outputs": [
        {
          "internalType": "int128[]",
          "name": "",
          "type": "int128[]"
        }
      ],
      "stateMutability": "pure",
      "type": "function"
    },
    {
      "inputs": [
        {
          "components": [
            {
              "components": [
                {
                  "internalType": "bytes",
                  "name": "data",
                  "type": "bytes"
                },
                {
                  "internalType": "uint32",
                  "name": "cursor",
                  "type": "uint32"
                }
              ],
              "internalType": "struct BufferLib.Buffer",
              "name": "buffer",
              "type": "tuple"
            },
            {
              "internalType": "uint8",
              "name": "initialByte",
              "type": "uint8"
            },
            {
              "internalType": "uint8",
              "name": "majorType",
              "type": "uint8"
            },
            {
              "internalType": "uint8",
              "name": "additionalInformation",
              "type": "uint8"
            },
            {
              "internalType": "uint64",
              "name": "len",
              "type": "uint64"
            },
            {
              "internalType": "uint64",
              "name": "tag",
              "type": "uint64"
            }
          ],
          "internalType": "struct CBOR.Value",
          "name": "_cborValue",
          "type": "tuple"
        }
      ],
      "name": "decodeString",
      "outputs": [
        {
          "internalType": "string",
          "name": "",
          "type": "string"
        }
      ],
      "stateMutability": "pure",
      "type": "function"
    },
    {
      "inputs": [
        {
          "components": [
            {
              "components": [
                {
                  "internalType": "bytes",
                  "name": "data",
                  "type": "bytes"
                },
                {
                  "internalType": "uint32",
                  "name": "cursor",
                  "type": "uint32"
                }
              ],
              "internalType": "struct BufferLib.Buffer",
              "name": "buffer",
              "type": "tuple"
            },
            {
              "internalType": "uint8",
              "name": "initialByte",
              "type": "uint8"
            },
            {
              "internalType": "uint8",
              "name": "majorType",
              "type": "uint8"
            },
            {
              "internalType": "uint8",
              "name": "additionalInformation",
              "type": "uint8"
            },
            {
              "internalType": "uint64",
              "name": "len",
              "type": "uint64"
            },
            {
              "internalType": "uint64",
              "name": "tag",
              "type": "uint64"
            }
          ],
          "internalType": "struct CBOR.Value",
          "name": "_cborValue",
          "type": "tuple"
        }
      ],
      "name": "decodeStringArray",
      "outputs": [
        {
          "internalType": "string[]",
          "name": "",
          "type": "string[]"
        }
      ],
      "stateMutability": "pure",
      "type": "function"
    },
    {
      "inputs": [
        {
          "components": [
            {
              "components": [
                {
                  "internalType": "bytes",
                  "name": "data",
                  "type": "bytes"
                },
                {
                  "internalType": "uint32",
                  "name": "cursor",
                  "type": "uint32"
                }
              ],
              "internalType": "struct BufferLib.Buffer",
              "name": "buffer",
              "type": "tuple"
            },
            {
              "internalType": "uint8",
              "name": "initialByte",
              "type": "uint8"
            },
            {
              "internalType": "uint8",
              "name": "majorType",
              "type": "uint8"
            },
            {
              "internalType": "uint8",
              "name": "additionalInformation",
              "type": "uint8"
            },
            {
              "internalType": "uint64",
              "name": "len",
              "type": "uint64"
            },
            {
              "internalType": "uint64",
              "name": "tag",
              "type": "uint64"
            }
          ],
          "internalType": "struct CBOR.Value",
          "name": "_cborValue",
          "type": "tuple"
        }
      ],
      "name": "decodeUint64",
      "outputs": [
        {
          "internalType": "uint64",
          "name": "",
          "type": "uint64"
        }
      ],
      "stateMutability": "pure",
      "type": "function"
    },
    {
      "inputs": [
        {
          "components": [
            {
              "components": [
                {
                  "internalType": "bytes",
                  "name": "data",
                  "type": "bytes"
                },
                {
                  "internalType": "uint32",
                  "name": "cursor",
                  "type": "uint32"
                }
              ],
              "internalType": "struct BufferLib.Buffer",
              "name": "buffer",
              "type": "tuple"
            },
            {
              "internalType": "uint8",
              "name": "initialByte",
              "type": "uint8"
            },
            {
              "internalType": "uint8",
              "name": "majorType",
              "type": "uint8"
            },
            {
              "internalType": "uint8",
              "name": "additionalInformation",
              "type": "uint8"
            },
            {
              "internalType": "uint64",
              "name": "len",
              "type": "uint64"
            },
            {
              "internalType": "uint64",
              "name": "tag",
              "type": "uint64"
            }
          ],
          "internalType": "struct CBOR.Value",
          "name": "_cborValue",
          "type": "tuple"
        }
      ],
      "name": "decodeUint64Array",
      "outputs": [
        {
          "internalType": "uint64[]",
          "name": "",
          "type": "uint64[]"
        }
      ],
      "stateMutability": "pure",
      "type": "function"
    },
    {
      "inputs": [
        {
          "internalType": "bytes",
          "name": "_cborBytes",
          "type": "bytes"
        }
      ],
      "name": "valueFromBytes",
      "outputs": [
        {
          "components": [
            {
              "components": [
                {
                  "internalType": "bytes",
                  "name": "data",
                  "type": "bytes"
                },
                {
                  "internalType": "uint32",
                  "name": "cursor",
                  "type": "uint32"
                }
              ],
              "internalType": "struct BufferLib.Buffer",
              "name": "buffer",
              "type": "tuple"
            },
            {
              "internalType": "uint8",
              "name": "initialByte",
              "type": "uint8"
            },
            {
              "internalType": "uint8",
              "name": "majorType",
              "type": "uint8"
            },
            {
              "internalType": "uint8",
              "name": "additionalInformation",
              "type": "uint8"
            },
            {
              "internalType": "uint64",
              "name": "len",
              "type": "uint64"
            },
            {
              "internalType": "uint64",
              "name": "tag",
              "type": "uint64"
            }
          ],
          "internalType": "struct CBOR.Value",
          "name": "",
          "type": "tuple"
        }
      ],
      "stateMutability": "pure",
      "type": "function"
    },
    {
      "inputs": [
        {
          "components": [
            {
              "internalType": "bytes",
              "name": "data",
              "type": "bytes"
            },
            {
              "internalType": "uint32",
              "name": "cursor",
              "type": "uint32"
            }
          ],
          "internalType": "struct BufferLib.Buffer",
          "name": "_buffer",
          "type": "tuple"
        }
      ],
      "name": "valueFromBuffer",
      "outputs": [
        {
          "components": [
            {
              "components": [
                {
                  "internalType": "bytes",
                  "name": "data",
                  "type": "bytes"
                },
                {
                  "internalType": "uint32",
                  "name": "cursor",
                  "type": "uint32"
                }
              ],
              "internalType": "struct BufferLib.Buffer",
              "name": "buffer",
              "type": "tuple"
            },
            {
              "internalType": "uint8",
              "name": "initialByte",
              "type": "uint8"
            },
            {
              "internalType": "uint8",
              "name": "majorType",
              "type": "uint8"
            },
            {
              "internalType": "uint8",
              "name": "additionalInformation",
              "type": "uint8"
            },
            {
              "internalType": "uint64",
              "name": "len",
              "type": "uint64"
            },
            {
              "internalType": "uint64",
              "name": "tag",
              "type": "uint64"
            }
          ],
          "internalType": "struct CBOR.Value",
          "name": "",
          "type": "tuple"
        }
      ],
      "stateMutability": "pure",
      "type": "function"
    }
  ],
  "bytecode": "0x611b31610026600b82828239805160001a60731461001957fe5b30600052607381538281f3fe73000000000000000000000000000000000000000030146080604052600436106100b35760003560e01c80639ada26471161007b5780639ada264714610161578063ac871cbd14610181578063d9aee209146101a1578063dcb68ea1146101c1578063dfca5d34146101d4578063f896fab3146101e7576100b3565b806325652e89146100b8578063537ae6d7146100e157806354ee27e61461010157806364af2817146101215780636e16eb8114610141575b600080fd5b6100cb6100c6366004611228565b6101fa565b6040516100d89190611435565b60405180910390f35b6100f46100ef366004611228565b610333565b6040516100d89190611489565b61011461010f366004611228565b6103a9565b6040516100d8919061138e565b61013461012f366004611228565b6104cc565b6040516100d89190611476565b61015461014f366004611228565b610596565b6040516100d891906113d5565b61017461016f366004611228565b6106b9565b6040516100d89190611497565b61019461018f3660046111f6565b61071a565b6040516100d891906119f4565b6101b46101af366004611228565b6107f8565b6040516100d89190611a91565b6101146101cf366004611228565b610833565b6101946101e23660046111c4565b610959565b6101346101f5366004611228565b61098e565b6060816040015160ff1660041461022c5760405162461bcd60e51b815260040161022390611996565b60405180910390fd5b600061024083600001518460600151610a9a565b90506001600160401b038082161061026a5760405162461bcd60e51b8152600401610223906117c4565b6060816001600160401b03166001600160401b038111801561028b57600080fd5b506040519080825280602002602001820160405280156102b5578160200160208202803683370190505b50905060005b826001600160401b0316816001600160401b03161015610329576102dd61107c565b85516102e89061071a565b90506102f3816107f8565b83836001600160401b03168151811061030857fe5b6001600160401b0390921660209283029190910190910152506001016102bb565b509150505b919050565b6000816040015160ff166001141561036c57600061035983600001518460600151610a9a565b6001600160401b031619915061032e9050565b604082015160ff1661039157610381826107f8565b6001600160401b0316905061032e565b60405162461bcd60e51b8152600401610223906115de565b6060816040015160ff166004146103d25760405162461bcd60e51b81526004016102239061184a565b60006103e683600001518460600151610a9a565b90506001600160401b03808216106104105760405162461bcd60e51b8152600401610223906117c4565b6060816001600160401b03166001600160401b038111801561043157600080fd5b5060405190808252806020026020018201604052801561045b578160200160208202803683370190505b50905060005b826001600160401b0316816001600160401b031610156103295761048361107c565b855161048e9061071a565b905061049981610333565b83836001600160401b0316815181106104ae57fe5b600f92830b90920b6020928302919091019091015250600101610461565b60606104e082600001518360600151610a9a565b6001600160401b0390811660808401819052141561057d57606060005b8061057557600061051685600001518660400151610b5c565b90506001600160401b03808216101561056a57845183906105439060046001600160401b03851604610bd7565b60405160200161055492919061132e565b604051602081830303815290604052925061056f565b600191505b506104fd565b50905061032e565b61058f82600001518360800151610bd7565b905061032e565b6060816040015160ff166004146105bf5760405162461bcd60e51b815260040161022390611539565b60006105d383600001518460600151610a9a565b90506001600160401b03808216106105fd5760405162461bcd60e51b8152600401610223906117c4565b6060816001600160401b03166001600160401b038111801561061e57600080fd5b5060405190808252806020026020018201604052801561065257816020015b606081526020019060019003908161063d5790505b50905060005b826001600160401b0316816001600160401b031610156103295761067a61107c565b85516106859061071a565b9050610690816104cc565b83836001600160401b0316815181106106a557fe5b602090810291909101015250600101610658565b6000816040015160ff166007146106e25760405162461bcd60e51b815260040161022390611648565b816060015160ff166019146107095760405162461bcd60e51b8152600401610223906116ea565b815161071490610cff565b92915050565b61072261107c565b8151516107415760405162461bcd60e51b81526004016102239061194c565b600060ff818060001960015b80156107915761075c88610dad565b95506007600587901c169450601f861693506006851415610788576107818885610a9a565b915061078c565b5060005b61074d565b60078560ff1611156107b55760405162461bcd60e51b8152600401610223906116b3565b506040805160c08101825297885260ff958616602089015293851693870193909352921660608501526001600160401b0391821660808501521660a08301525090565b6000816040015160ff166000146108215760405162461bcd60e51b8152600401610223906118a8565b61071482600001518360600151610a9a565b6060816040015160ff1660041461085c5760405162461bcd60e51b81526004016102239061184a565b600061087083600001518460600151610a9a565b90506001600160401b038082161061089a5760405162461bcd60e51b8152600401610223906117c4565b6060816001600160401b03166001600160401b03811180156108bb57600080fd5b506040519080825280602002602001820160405280156108e5578160200160208202803683370190505b50905060005b826001600160401b0316816001600160401b031610156103295761090d61107c565b85516109189061071a565b9050610923816106b9565b60030b83836001600160401b03168151811061093b57fe5b600f92830b90920b60209283029190910190910152506001016108eb565b61096161107c565b6109696110b8565b5060408051808201909152828152600060208201526109878161071a565b9392505050565b60606109a282600001518360600151610a9a565b6001600160401b03908116608084018190521415610a8457606060006109d084600001518560400151610b5c565b90506001600160401b0363ffffffff8216101561057557835182906109fb908363ffffffff610e0016565b604051602001610a0c92919061132e565b6040516020818303038152906040529150610a2f84600001518560400151610b5c565b90506001600160401b0363ffffffff821610156105755783518290610a5a908363ffffffff610e0016565b604051602001610a6b92919061132e565b604051602081830303815290604052915050905061032e565b6080820151825161058f9163ffffffff610e0016565b600060188260ff161015610ab2575060ff8116610714565b8160ff1660181415610ad157610ac783610dad565b60ff169050610714565b8160ff1660191415610af157610ae683610ebd565b61ffff169050610714565b8160ff16601a1415610b1357610b0683610f13565b63ffffffff169050610714565b8160ff16601b1415610b2f57610b2883610f69565b9050610714565b8160ff16601f1415610b445750600019610714565b60405162461bcd60e51b81526004016102239061175c565b600080610b6884610dad565b90508060ff1660ff1415610b8157506000199050610714565b6000610b908583601f16610a9a565b90506001600160401b03808216108015610bb357506007600583901c1660ff8516145b610bcf5760405162461bcd60e51b815260040161022390611813565b949350505050565b60608060005b836001600160401b0316816001600160401b03161015610cf7576000610c0286610dad565b90506080811615610cc95760e08160ff161015610c3e57610c2286610dad565b603f16600682601f1660ff16901b179050600185039450610cc9565b60f08160ff161015610c8357610c5386610dad565b603f166006610c6188610dad565b603f1660ff16901b600c83600f1660ff16901b17179050600285039450610cc9565b610c8c86610dad565b603f166006610c9a88610dad565b603f16901b600c610caa89610dad565b603f1660ff16901b601284600f1660ff16901b17171790506003850394505b8281604051602001610cdc92919061135c565b60408051601f19818403018152919052925050600101610bdd565b509392505050565b600080610d0b83610ebd565b61ffff81169150618000811690617c008116600390810b600a1d600e1901916103ff1690600f9083900b1415610d4057610400175b6000600383900b8113610d6d57600a8260030b610400178460030b6001901b6127100202901c9050610d93565b600a8360000360030b6001901b8360030b610400176127100281610d8d57fe5b04901c90505b63ffffffff841615610da3576000035b9695505050505050565b60008160200151826000015151808263ffffffff1610610ddf5760405162461bcd60e51b8152600401610223906114dc565b50508151602090920180516001938101840151930163ffffffff1690525090565b60608260000151518284602001510163ffffffff161115610e335760405162461bcd60e51b815260040161022390611905565b60608263ffffffff166001600160401b0381118015610e5157600080fd5b506040519080825280601f01601f191660200182016040528015610e7c576020820181803683370190505b5084516020808701519293509091908183018101908401610ea4818363ffffffff8a16610fbf565b610eb088886001610ffd565b5093979650505050505050565b60008160200151600101826000015151808263ffffffff1610610ef25760405162461bcd60e51b8152600401610223906114dc565b50508151602090920180516002938101840151930163ffffffff1690525090565b60008160200151600301826000015151808263ffffffff1610610f485760405162461bcd60e51b8152600401610223906114dc565b50508151602090920180516004938101840151930163ffffffff1690525090565b60008160200151600701826000015151808263ffffffff1610610f9e5760405162461bcd60e51b8152600401610223906114dc565b50508151602090920180516008938101840151930163ffffffff1690525090565b5b60208110610fdf578151835260209283019290910190601f1901610fc0565b905182516020929092036101000a6000190180199091169116179052565b60008115611040578263ffffffff168460200151840163ffffffff16116110365760405162461bcd60e51b8152600401610223906114a5565b8360200151830192505b83515163ffffffff841611156110685760405162461bcd60e51b815260040161022390611597565b505063ffffffff1660209190910181905290565b6040518060c0016040528061108f6110b8565b815260006020820181905260408201819052606082018190526080820181905260a09091015290565b60408051808201909152606081526000602082015290565b600082601f8301126110e0578081fd5b81356001600160401b038111156110f5578182fd5b611108601f8201601f1916602001611aa5565b915080825283602082850101111561111f57600080fd5b8060208401602084013760009082016020015292915050565b600060408284031215611149578081fd5b6111536040611aa5565b905081356001600160401b0381111561116b57600080fd5b611177848285016110d0565b825250602082013563ffffffff8116811461119157600080fd5b602082015292915050565b80356001600160401b038116811461071457600080fd5b803560ff8116811461071457600080fd5b6000602082840312156111d5578081fd5b81356001600160401b038111156111ea578182fd5b610bcf848285016110d0565b600060208284031215611207578081fd5b81356001600160401b0381111561121c578182fd5b610bcf84828501611138565b600060208284031215611239578081fd5b81356001600160401b038082111561124f578283fd5b81840160c08187031215611261578384fd5b61126b60c0611aa5565b925080358281111561127b578485fd5b61128787828401611138565b84525061129786602083016111b3565b60208401526112a986604083016111b3565b60408401526112bb86606083016111b3565b60608401526112cd866080830161119c565b60808401526112df8660a0830161119c565b60a08401525090949350505050565b60008151808452611306816020860160208601611acb565b601f01601f19169290920160200192915050565b6001600160401b03169052565b60ff169052565b60008351611340818460208801611acb565b8351908301611353828260208801611acb565b01949350505050565b6000835161136e818460208801611acb565b60f89390931b6001600160f81b0319169190920190815260010192915050565b6020808252825182820181905260009190848201906040850190845b818110156113c9578351600f0b835292840192918401916001016113aa565b50909695505050505050565b6000602080830181845280855180835260408601915060408482028701019250838701855b8281101561142857603f198886030184526114168583516112ee565b945092850192908501906001016113fa565b5092979650505050505050565b6020808252825182820181905260009190848201906040850190845b818110156113c95783516001600160401b031683529284019291840191600101611451565b60006020825261098760208301846112ee565b600f9190910b815260200190565b60039190910b815260200190565b6020808252601d908201527f496e7465676572206f766572666c6f77207768656e207365656b696e67000000604082015260600190565b6020808252603b908201527f547269656420746f20726561642066726f6d206120636f6e73756d656420427560408201527f6666657220286d75737420726577696e64206974206669727374290000000000606082015260800190565b602080825260409082018190527f547269656420746f20726561642060737472696e675b5d602066726f6d206120908201527f6043424f522e56616c7565602077697468206d616a6f725479706520213d2034606082015260800190565b60208082526027908201527f4e6f7420656e6f75676820627974657320696e20627566666572207768656e206040820152667365656b696e6760c81b606082015260800190565b60208082526044908201527f547269656420746f20726561642060696e74313238602066726f6d206120604360408201527f424f522e56616c7565602077697468206d616a6f7254797065206e6f742030206060820152636f72203160e01b608082015260a00190565b60208082526045908201527f547269656420746f2072656164206120606669786564602076616c756520667260408201527f6f6d2061206043424f522e56616c7565602077697468206d616a6f725479706560608201526420213d203760d81b608082015260a00190565b60208082526017908201527f496e76616c69642043424f52206d616a6f722074797065000000000000000000604082015260600190565b6020808252604c908201527f547269656420746f2072656164206066697865643136602066726f6d2061206060408201527f43424f522e56616c7565602077697468206164646974696f6e616c496e666f7260608201526b6d6174696f6e20213d20323560a01b608082015260a00190565b60208082526042908201527f496e76616c6964206c656e67746820656e636f64696e6720286e6f6e2d65786960408201527f7374656e74206164646974696f6e616c496e666f726d6174696f6e2076616c75606082015261652960f01b608082015260a00190565b6020808252602f908201527f496e646566696e6974652d6c656e6774682043424f522061727261797320617260408201526e19481b9bdd081cdd5c1c1bdc9d1959608a1b606082015260800190565b60208082526019908201527f496e76616c696420696e646566696e697465206c656e67746800000000000000604082015260600190565b602080825260409082018190527f547269656420746f20726561642060696e743132385b5d602066726f6d206120908201527f6043424f522e56616c7565602077697468206d616a6f725479706520213d2034606082015260800190565b6020808252603e908201527f547269656420746f2072656164206075696e743634602066726f6d206120604360408201527f424f522e56616c7565602077697468206d616a6f725479706520213d20300000606082015260800190565b60208082526027908201527f4e6f7420656e6f75676820627974657320696e20627566666572207768656e2060408201526672656164696e6760c81b606082015260800190565b6020808252602a908201527f466f756e6420656d70747920627566666572207768656e2070617273696e672060408201526943424f522076616c756560b01b606082015260800190565b602080825260409082018190527f547269656420746f2072656164206075696e7436345b5d602066726f6d206120908201527f6043424f522e56616c7565602077697468206d616a6f725479706520213d2034606082015260800190565b600060208252825160c060208401528051604060e0850152611a1a6101208501826112ee565b63ffffffff60208401511661010086015260ff602087015116604086015260408601519250611a4c6060860184611327565b60608601519250611a606080860184611327565b60808601519250611a7460a086018461131a565b60a08601519250611a8860c086018461131a565b95945050505050565b6001600160401b0391909116815260200190565b6040518181016001600160401b0381118282101715611ac357600080fd5b604052919050565b60005b83811015611ae6578181015183820152602001611ace565b83811115611af5576000848401525b5050505056fea2646970667358221220f96e5fa7748d39c5190a0845bc4b0aec87fd33126b8ee1369cfa3b0dd09a46d764736f6c63430006080033",
  "immutableReferences": {},
  "source": "// SPDX-License-Identifier: MIT\n\npragma solidity 0.6.8;\npragma experimental ABIEncoderV2;\n\nimport \"./BufferLib.sol\";\n\n\n/**\n * @title A minimalistic implementation of RFC 7049 Concise Binary Object Representation\n * @notice This library leverages a buffer-like structure for step-by-step decoding of bytes so as to minimize\n * the gas cost of decoding them into a useful native type.\n * @dev Most of the logic has been borrowed from Patrick Gansterers cbor.js library: https://github.com/paroga/cbor-js\n * TODO: add support for Array (majorType = 4)\n * TODO: add support for Map (majorType = 5)\n * TODO: add support for Float32 (majorType = 7, additionalInformation = 26)\n * TODO: add support for Float64 (majorType = 7, additionalInformation = 27)\n */\nlibrary CBOR {\n  using BufferLib for BufferLib.Buffer;\n\n  uint64 constant internal UINT64_MAX = ~uint64(0);\n\n  struct Value {\n    BufferLib.Buffer buffer;\n    uint8 initialByte;\n    uint8 majorType;\n    uint8 additionalInformation;\n    uint64 len;\n    uint64 tag;\n  }\n\n  /**\n   * @notice Decode a `CBOR.Value` structure into a native `bytes` value.\n   * @param _cborValue An instance of `CBOR.Value`.\n   * @return The value represented by the input, as a `bytes` value.\n   */\n  function decodeBytes(Value memory _cborValue) public pure returns(bytes memory) {\n    _cborValue.len = readLength(_cborValue.buffer, _cborValue.additionalInformation);\n    if (_cborValue.len == UINT64_MAX) {\n      bytes memory bytesData;\n\n      // These checks look repetitive but the equivalent loop would be more expensive.\n      uint32 itemLength = uint32(readIndefiniteStringLength(_cborValue.buffer, _cborValue.majorType));\n      if (itemLength < UINT64_MAX) {\n        bytesData = abi.encodePacked(bytesData, _cborValue.buffer.read(itemLength));\n        itemLength = uint32(readIndefiniteStringLength(_cborValue.buffer, _cborValue.majorType));\n        if (itemLength < UINT64_MAX) {\n          bytesData = abi.encodePacked(bytesData, _cborValue.buffer.read(itemLength));\n        }\n      }\n      return bytesData;\n    } else {\n      return _cborValue.buffer.read(uint32(_cborValue.len));\n    }\n  }\n\n  /**\n   * @notice Decode a `CBOR.Value` structure into a `fixed16` value.\n   * @dev Due to the lack of support for floating or fixed point arithmetic in the EVM, this method offsets all values\n   * by 5 decimal orders so as to get a fixed precision of 5 decimal positions, which should be OK for most `fixed16`\n   * use cases. In other words, the output of this method is 10,000 times the actual value, encoded into an `int32`.\n   * @param _cborValue An instance of `CBOR.Value`.\n   * @return The value represented by the input, as an `int128` value.\n   */\n  function decodeFixed16(Value memory _cborValue) public pure returns(int32) {\n    require(_cborValue.majorType == 7, \"Tried to read a `fixed` value from a `CBOR.Value` with majorType != 7\");\n    require(_cborValue.additionalInformation == 25, \"Tried to read `fixed16` from a `CBOR.Value` with additionalInformation != 25\");\n    return _cborValue.buffer.readFloat16();\n  }\n\n  /**\n * @notice Decode a `CBOR.Value` structure into a native `int128[]` value whose inner values follow the same convention.\n * as explained in `decodeFixed16`.\n * @param _cborValue An instance of `CBOR.Value`.\n * @return The value represented by the input, as an `int128[]` value.\n */\n  function decodeFixed16Array(Value memory _cborValue) public pure returns(int128[] memory) {\n    require(_cborValue.majorType == 4, \"Tried to read `int128[]` from a `CBOR.Value` with majorType != 4\");\n\n    uint64 length = readLength(_cborValue.buffer, _cborValue.additionalInformation);\n    require(length < UINT64_MAX, \"Indefinite-length CBOR arrays are not supported\");\n\n    int128[] memory array = new int128[](length);\n    for (uint64 i = 0; i < length; i++) {\n      Value memory item = valueFromBuffer(_cborValue.buffer);\n      array[i] = decodeFixed16(item);\n    }\n\n    return array;\n  }\n\n  /**\n   * @notice Decode a `CBOR.Value` structure into a native `int128` value.\n   * @param _cborValue An instance of `CBOR.Value`.\n   * @return The value represented by the input, as an `int128` value.\n   */\n  function decodeInt128(Value memory _cborValue) public pure returns(int128) {\n    if (_cborValue.majorType == 1) {\n      uint64 length = readLength(_cborValue.buffer, _cborValue.additionalInformation);\n      return int128(-1) - int128(length);\n    } else if (_cborValue.majorType == 0) {\n      // Any `uint64` can be safely casted to `int128`, so this method supports majorType 1 as well so as to have offer\n      // a uniform API for positive and negative numbers\n      return int128(decodeUint64(_cborValue));\n    }\n    revert(\"Tried to read `int128` from a `CBOR.Value` with majorType not 0 or 1\");\n  }\n\n  /**\n   * @notice Decode a `CBOR.Value` structure into a native `int128[]` value.\n   * @param _cborValue An instance of `CBOR.Value`.\n   * @return The value represented by the input, as an `int128[]` value.\n   */\n  function decodeInt128Array(Value memory _cborValue) public pure returns(int128[] memory) {\n    require(_cborValue.majorType == 4, \"Tried to read `int128[]` from a `CBOR.Value` with majorType != 4\");\n\n    uint64 length = readLength(_cborValue.buffer, _cborValue.additionalInformation);\n    require(length < UINT64_MAX, \"Indefinite-length CBOR arrays are not supported\");\n\n    int128[] memory array = new int128[](length);\n    for (uint64 i = 0; i < length; i++) {\n      Value memory item = valueFromBuffer(_cborValue.buffer);\n      array[i] = decodeInt128(item);\n    }\n\n    return array;\n  }\n\n  /**\n   * @notice Decode a `CBOR.Value` structure into a native `string` value.\n   * @param _cborValue An instance of `CBOR.Value`.\n   * @return The value represented by the input, as a `string` value.\n   */\n  function decodeString(Value memory _cborValue) public pure returns(string memory) {\n    _cborValue.len = readLength(_cborValue.buffer, _cborValue.additionalInformation);\n    if (_cborValue.len == UINT64_MAX) {\n      bytes memory textData;\n      bool done;\n      while (!done) {\n        uint64 itemLength = readIndefiniteStringLength(_cborValue.buffer, _cborValue.majorType);\n        if (itemLength < UINT64_MAX) {\n          textData = abi.encodePacked(textData, readText(_cborValue.buffer, itemLength / 4));\n        } else {\n          done = true;\n        }\n      }\n      return string(textData);\n    } else {\n      return string(readText(_cborValue.buffer, _cborValue.len));\n    }\n  }\n\n  /**\n   * @notice Decode a `CBOR.Value` structure into a native `string[]` value.\n   * @param _cborValue An instance of `CBOR.Value`.\n   * @return The value represented by the input, as an `string[]` value.\n   */\n  function decodeStringArray(Value memory _cborValue) public pure returns(string[] memory) {\n    require(_cborValue.majorType == 4, \"Tried to read `string[]` from a `CBOR.Value` with majorType != 4\");\n\n    uint64 length = readLength(_cborValue.buffer, _cborValue.additionalInformation);\n    require(length < UINT64_MAX, \"Indefinite-length CBOR arrays are not supported\");\n\n    string[] memory array = new string[](length);\n    for (uint64 i = 0; i < length; i++) {\n      Value memory item = valueFromBuffer(_cborValue.buffer);\n      array[i] = decodeString(item);\n    }\n\n    return array;\n  }\n\n  /**\n   * @notice Decode a `CBOR.Value` structure into a native `uint64` value.\n   * @param _cborValue An instance of `CBOR.Value`.\n   * @return The value represented by the input, as an `uint64` value.\n   */\n  function decodeUint64(Value memory _cborValue) public pure returns(uint64) {\n    require(_cborValue.majorType == 0, \"Tried to read `uint64` from a `CBOR.Value` with majorType != 0\");\n    return readLength(_cborValue.buffer, _cborValue.additionalInformation);\n  }\n\n  /**\n   * @notice Decode a `CBOR.Value` structure into a native `uint64[]` value.\n   * @param _cborValue An instance of `CBOR.Value`.\n   * @return The value represented by the input, as an `uint64[]` value.\n   */\n  function decodeUint64Array(Value memory _cborValue) public pure returns(uint64[] memory) {\n    require(_cborValue.majorType == 4, \"Tried to read `uint64[]` from a `CBOR.Value` with majorType != 4\");\n\n    uint64 length = readLength(_cborValue.buffer, _cborValue.additionalInformation);\n    require(length < UINT64_MAX, \"Indefinite-length CBOR arrays are not supported\");\n\n    uint64[] memory array = new uint64[](length);\n    for (uint64 i = 0; i < length; i++) {\n      Value memory item = valueFromBuffer(_cborValue.buffer);\n      array[i] = decodeUint64(item);\n    }\n\n    return array;\n  }\n\n  /**\n   * @notice Decode a CBOR.Value structure from raw bytes.\n   * @dev This is the main factory for CBOR.Value instances, which can be later decoded into native EVM types.\n   * @param _cborBytes Raw bytes representing a CBOR-encoded value.\n   * @return A `CBOR.Value` instance containing a partially decoded value.\n   */\n  function valueFromBytes(bytes memory _cborBytes) public pure returns(Value memory) {\n    BufferLib.Buffer memory buffer = BufferLib.Buffer(_cborBytes, 0);\n\n    return valueFromBuffer(buffer);\n  }\n\n  /**\n   * @notice Decode a CBOR.Value structure from raw bytes.\n   * @dev This is an alternate factory for CBOR.Value instances, which can be later decoded into native EVM types.\n   * @param _buffer A Buffer structure representing a CBOR-encoded value.\n   * @return A `CBOR.Value` instance containing a partially decoded value.\n   */\n  function valueFromBuffer(BufferLib.Buffer memory _buffer) public pure returns(Value memory) {\n    require(_buffer.data.length > 0, \"Found empty buffer when parsing CBOR value\");\n\n    uint8 initialByte;\n    uint8 majorType = 255;\n    uint8 additionalInformation;\n    uint64 length;\n    uint64 tag = UINT64_MAX;\n\n    bool isTagged = true;\n    while (isTagged) {\n      // Extract basic CBOR properties from input bytes\n      initialByte = _buffer.readUint8();\n      majorType = initialByte >> 5;\n      additionalInformation = initialByte & 0x1f;\n\n      // Early CBOR tag parsing.\n      if (majorType == 6) {\n        tag = readLength(_buffer, additionalInformation);\n      } else {\n        isTagged = false;\n      }\n    }\n\n    require(majorType <= 7, \"Invalid CBOR major type\");\n\n    return CBOR.Value(\n      _buffer,\n      initialByte,\n      majorType,\n      additionalInformation,\n      length,\n      tag);\n  }\n\n  // Reads the length of the next CBOR item from a buffer, consuming a different number of bytes depending on the\n  // value of the `additionalInformation` argument.\n  function readLength(BufferLib.Buffer memory _buffer, uint8 additionalInformation) private pure returns(uint64) {\n    if (additionalInformation < 24) {\n      return additionalInformation;\n    }\n    if (additionalInformation == 24) {\n      return _buffer.readUint8();\n    }\n    if (additionalInformation == 25) {\n      return _buffer.readUint16();\n    }\n    if (additionalInformation == 26) {\n      return _buffer.readUint32();\n    }\n    if (additionalInformation == 27) {\n      return _buffer.readUint64();\n    }\n    if (additionalInformation == 31) {\n      return UINT64_MAX;\n    }\n    revert(\"Invalid length encoding (non-existent additionalInformation value)\");\n  }\n\n  // Read the length of a CBOR indifinite-length item (arrays, maps, byte strings and text) from a buffer, consuming\n  // as many bytes as specified by the first byte.\n  function readIndefiniteStringLength(BufferLib.Buffer memory _buffer, uint8 majorType) private pure returns(uint64) {\n    uint8 initialByte = _buffer.readUint8();\n    if (initialByte == 0xff) {\n      return UINT64_MAX;\n    }\n    uint64 length = readLength(_buffer, initialByte & 0x1f);\n    require(length < UINT64_MAX && (initialByte >> 5) == majorType, \"Invalid indefinite length\");\n    return length;\n  }\n\n  // Read a text string of a given length from a buffer. Returns a `bytes memory` value for the sake of genericness,\n  // but it can be easily casted into a string with `string(result)`.\n  // solium-disable-next-line security/no-assign-params\n  function readText(BufferLib.Buffer memory _buffer, uint64 _length) private pure returns(bytes memory) {\n    bytes memory result;\n    for (uint64 index = 0; index < _length; index++) {\n      uint8 value = _buffer.readUint8();\n      if (value & 0x80 != 0) {\n        if (value < 0xe0) {\n          value = (value & 0x1f) << 6 |\n            (_buffer.readUint8() & 0x3f);\n          _length -= 1;\n        } else if (value < 0xf0) {\n          value = (value & 0x0f) << 12 |\n            (_buffer.readUint8() & 0x3f) << 6 |\n            (_buffer.readUint8() & 0x3f);\n          _length -= 2;\n        } else {\n          value = (value & 0x0f) << 18 |\n            (_buffer.readUint8() & 0x3f) << 12 |\n            (_buffer.readUint8() & 0x3f) << 6  |\n            (_buffer.readUint8() & 0x3f);\n          _length -= 3;\n        }\n      }\n      result = abi.encodePacked(result, value);\n    }\n    return result;\n  }\n}\n",
  "sourcePath": "/Users/sbacha/witnet-ethereum-bridge/contracts/CBOR.sol",
  "compiler": {
    "name": "solc",
    "version": "0.6.8+commit.0bbfe453.Emscripten.clang"
  },
  "schemaVersion": "3.2.0",
  "updatedAt": "2020-06-12T08:08:15.462Z",
  "devdoc": {
    "details": "Most of the logic has been borrowed from Patrick Gansterers cbor.js library: https://github.com/paroga/cbor-js TODO: add support for Array (majorType = 4) TODO: add support for Map (majorType = 5) TODO: add support for Float32 (majorType = 7, additionalInformation = 26) TODO: add support for Float64 (majorType = 7, additionalInformation = 27)",
    "methods": {
      "decodeBytes(CBOR.Value)": {
        "params": {
          "_cborValue": "An instance of `CBOR.Value`."
        },
        "returns": {
          "_0": "The value represented by the input, as a `bytes` value."
        }
      },
      "decodeFixed16(CBOR.Value)": {
        "details": "Due to the lack of support for floating or fixed point arithmetic in the EVM, this method offsets all values by 5 decimal orders so as to get a fixed precision of 5 decimal positions, which should be OK for most `fixed16` use cases. In other words, the output of this method is 10,000 times the actual value, encoded into an `int32`.",
        "params": {
          "_cborValue": "An instance of `CBOR.Value`."
        },
        "returns": {
          "_0": "The value represented by the input, as an `int128` value."
        }
      },
      "decodeFixed16Array(CBOR.Value)": {
        "params": {
          "_cborValue": "An instance of `CBOR.Value`."
        },
        "returns": {
          "_0": "The value represented by the input, as an `int128[]` value."
        }
      },
      "decodeInt128(CBOR.Value)": {
        "params": {
          "_cborValue": "An instance of `CBOR.Value`."
        },
        "returns": {
          "_0": "The value represented by the input, as an `int128` value."
        }
      },
      "decodeInt128Array(CBOR.Value)": {
        "params": {
          "_cborValue": "An instance of `CBOR.Value`."
        },
        "returns": {
          "_0": "The value represented by the input, as an `int128[]` value."
        }
      },
      "decodeString(CBOR.Value)": {
        "params": {
          "_cborValue": "An instance of `CBOR.Value`."
        },
        "returns": {
          "_0": "The value represented by the input, as a `string` value."
        }
      },
      "decodeStringArray(CBOR.Value)": {
        "params": {
          "_cborValue": "An instance of `CBOR.Value`."
        },
        "returns": {
          "_0": "The value represented by the input, as an `string[]` value."
        }
      },
      "decodeUint64(CBOR.Value)": {
        "params": {
          "_cborValue": "An instance of `CBOR.Value`."
        },
        "returns": {
          "_0": "The value represented by the input, as an `uint64` value."
        }
      },
      "decodeUint64Array(CBOR.Value)": {
        "params": {
          "_cborValue": "An instance of `CBOR.Value`."
        },
        "returns": {
          "_0": "The value represented by the input, as an `uint64[]` value."
        }
      },
      "valueFromBuffer(BufferLib.Buffer)": {
        "details": "This is an alternate factory for CBOR.Value instances, which can be later decoded into native EVM types.",
        "params": {
          "_buffer": "A Buffer structure representing a CBOR-encoded value."
        },
        "returns": {
          "_0": "A `CBOR.Value` instance containing a partially decoded value."
        }
      },
      "valueFromBytes(bytes)": {
        "details": "This is the main factory for CBOR.Value instances, which can be later decoded into native EVM types.",
        "params": {
          "_cborBytes": "Raw bytes representing a CBOR-encoded value."
        },
        "returns": {
          "_0": "A `CBOR.Value` instance containing a partially decoded value."
        }
      }
    },
    "title": "A minimalistic implementation of RFC 7049 Concise Binary Object Representation"
  },
  "userdoc": {
    "methods": {
      "decodeBytes(CBOR.Value)": {
        "notice": "Decode a `CBOR.Value` structure into a native `bytes` value."
      },
      "decodeFixed16(CBOR.Value)": {
        "notice": "Decode a `CBOR.Value` structure into a `fixed16` value."
      },
      "decodeFixed16Array(CBOR.Value)": {
        "notice": "Decode a `CBOR.Value` structure into a native `int128[]` value whose inner values follow the same convention. as explained in `decodeFixed16`."
      },
      "decodeInt128(CBOR.Value)": {
        "notice": "Decode a `CBOR.Value` structure into a native `int128` value."
      },
      "decodeInt128Array(CBOR.Value)": {
        "notice": "Decode a `CBOR.Value` structure into a native `int128[]` value."
      },
      "decodeString(CBOR.Value)": {
        "notice": "Decode a `CBOR.Value` structure into a native `string` value."
      },
      "decodeStringArray(CBOR.Value)": {
        "notice": "Decode a `CBOR.Value` structure into a native `string[]` value."
      },
      "decodeUint64(CBOR.Value)": {
        "notice": "Decode a `CBOR.Value` structure into a native `uint64` value."
      },
      "decodeUint64Array(CBOR.Value)": {
        "notice": "Decode a `CBOR.Value` structure into a native `uint64[]` value."
      },
      "valueFromBuffer(BufferLib.Buffer)": {
        "notice": "Decode a CBOR.Value structure from raw bytes."
      },
      "valueFromBytes(bytes)": {
        "notice": "Decode a CBOR.Value structure from raw bytes."
      }
    },
    "notice": "This library leverages a buffer-like structure for step-by-step decoding of bytes so as to minimize the gas cost of decoding them into a useful native type."
  }
}