{
  "contractName": "MockWitnetRequestsBoard",
  "abi": [
    {
      "inputs": [],
      "stateMutability": "nonpayable",
      "type": "constructor"
    },
    {
      "inputs": [
        {
          "internalType": "uint256",
          "name": "",
          "type": "uint256"
        }
      ],
      "name": "requests",
      "outputs": [
        {
          "internalType": "bytes",
          "name": "dr",
          "type": "bytes"
        },
        {
          "internalType": "uint256",
          "name": "inclusionReward",
          "type": "uint256"
        },
        {
          "internalType": "uint256",
          "name": "tallyReward",
          "type": "uint256"
        },
        {
          "internalType": "bytes",
          "name": "result",
          "type": "bytes"
        },
        {
          "internalType": "uint256",
          "name": "timestamp",
          "type": "uint256"
        },
        {
          "internalType": "uint256",
          "name": "drHash",
          "type": "uint256"
        },
        {
          "internalType": "address payable",
          "name": "pkhClaim",
          "type": "address"
        }
      ],
      "stateMutability": "view",
      "type": "function"
    },
    {
      "inputs": [],
      "name": "witnet",
      "outputs": [
        {
          "internalType": "address",
          "name": "",
          "type": "address"
        }
      ],
      "stateMutability": "view",
      "type": "function"
    },
    {
      "inputs": [
        {
          "internalType": "bytes",
          "name": "_dr",
          "type": "bytes"
        },
        {
          "internalType": "uint256",
          "name": "_tallyReward",
          "type": "uint256"
        }
      ],
      "name": "postDataRequest",
      "outputs": [
        {
          "internalType": "uint256",
          "name": "",
          "type": "uint256"
        }
      ],
      "stateMutability": "payable",
      "type": "function"
    },
    {
      "inputs": [
        {
          "internalType": "uint256",
          "name": "_id",
          "type": "uint256"
        },
        {
          "internalType": "uint256",
          "name": "_tallyReward",
          "type": "uint256"
        }
      ],
      "name": "upgradeDataRequest",
      "outputs": [],
      "stateMutability": "payable",
      "type": "function"
    },
    {
      "inputs": [
        {
          "internalType": "uint256",
          "name": "_id",
          "type": "uint256"
        },
        {
          "internalType": "uint256",
          "name": "_drHash",
          "type": "uint256"
        }
      ],
      "name": "reportDrHash",
      "outputs": [],
      "stateMutability": "nonpayable",
      "type": "function"
    },
    {
      "inputs": [
        {
          "internalType": "uint256",
          "name": "_id",
          "type": "uint256"
        },
        {
          "internalType": "bytes",
          "name": "_result",
          "type": "bytes"
        }
      ],
      "name": "reportResult",
      "outputs": [],
      "stateMutability": "nonpayable",
      "type": "function"
    },
    {
      "inputs": [
        {
          "internalType": "uint256",
          "name": "_id",
          "type": "uint256"
        }
      ],
      "name": "readResult",
      "outputs": [
        {
          "internalType": "bytes",
          "name": "",
          "type": "bytes"
        }
      ],
      "stateMutability": "view",
      "type": "function"
    },
    {
      "inputs": [
        {
          "internalType": "address",
          "name": "_address",
          "type": "address"
        }
      ],
      "name": "isUpgradable",
      "outputs": [
        {
          "internalType": "bool",
          "name": "",
          "type": "bool"
        }
      ],
      "stateMutability": "view",
      "type": "function"
    },
    {
      "inputs": [
        {
          "internalType": "uint256",
          "name": "_id",
          "type": "uint256"
        }
      ],
      "name": "readDrHash",
      "outputs": [
        {
          "internalType": "uint256",
          "name": "",
          "type": "uint256"
        }
      ],
      "stateMutability": "view",
      "type": "function"
    }
  ],
  "bytecode": "0x608060405234801561001057600080fd5b506100196100dd565b6001805480820182556000919091528151805183926007027fb10e2d527612073b26eecdfd717e6a320cf44b4afac2b0732d9fcbe2b7fa0cf6019161006391839160200190610123565b50602082810151600183015560408301516002830155606083015180516100909260038501920190610123565b506080820151600482015560a0820151600582015560c090910151600690910180546001600160a01b039092166001600160a01b03199283161790556000805490911633179055506101be565b6040518060e0016040528060608152602001600081526020016000815260200160608152602001600081526020016000815260200160006001600160a01b031681525090565b828054600181600116156101000203166002900490600052602060002090601f016020900481019282601f1061016457805160ff1916838001178555610191565b82800160010185558215610191579182015b82811115610191578251825591602001919060010190610176565b5061019d9291506101a1565b5090565b6101bb91905b8082111561019d57600081556001016101a7565b90565b610b17806101cd6000396000f3fe6080604052600436106100865760003560e01c806381d12c581161005957806381d12c58146101bc5780638b4e863d146102f9578063be2adb3514610329578063ec32e3db14610370578063fa9d240d146103e057610086565b806308ba73421461008b57806345b3d782146100c757806346d1d21a1461016657806348ab5b6514610197575b600080fd5b34801561009757600080fd5b506100b5600480360360208110156100ae57600080fd5b5035610464565b60408051918252519081900360200190f35b3480156100d357600080fd5b506100f1600480360360208110156100ea57600080fd5b503561048d565b6040805160208082528351818301528351919283929083019185019080838360005b8381101561012b578181015183820152602001610113565b50505050905090810190601f1680156101585780820380516001836020036101000a031916815260200191505b509250505060405180910390f35b34801561017257600080fd5b5061017b61053e565b604080516001600160a01b039092168252519081900360200190f35b6101ba600480360360408110156101ad57600080fd5b508035906020013561054d565b005b3480156101c857600080fd5b506101e6600480360360208110156101df57600080fd5b50356105a7565b604051808060200188815260200187815260200180602001868152602001858152602001846001600160a01b03166001600160a01b0316815260200183810383528a818151815260200191508051906020019080838360005b8381101561025757818101518382015260200161023f565b50505050905090810190601f1680156102845780820380516001836020036101000a031916815260200191505b50838103825287518152875160209182019189019080838360005b838110156102b757818101518382015260200161029f565b50505050905090810190601f1680156102e45780820380516001836020036101000a031916815260200191505b50995050505050505050505060405180910390f35b34801561030557600080fd5b506101ba6004803603604081101561031c57600080fd5b508035906020013561071e565b34801561033557600080fd5b5061035c6004803603602081101561034c57600080fd5b50356001600160a01b031661079d565b604080519115158252519081900360200190f35b6100b56004803603604081101561038657600080fd5b8101906020810181356401000000008111156103a157600080fd5b8201836020820111156103b357600080fd5b803590602001918460018302840111640100000000831117156103d557600080fd5b9193509150356107c4565b3480156103ec57600080fd5b506101ba6004803603604081101561040357600080fd5b8135919081019060408101602082013564010000000081111561042557600080fd5b82018360208201111561043757600080fd5b8035906020019184600183028401116401000000008311171561045957600080fd5b509092509050610907565b60006001828154811061047357fe5b90600052602060002090600702016005015490505b919050565b60606001828154811061049c57fe5b6000918252602091829020600360079092020101805460408051601f60026000196101006001871615020190941693909304928301859004850281018501909152818152928301828280156105325780601f1061050757610100808354040283529160200191610532565b820191906000526020600020905b81548152906001019060200180831161051557829003601f168201915b50505050509050919050565b6000546001600160a01b031681565b8034036001838154811061055d57fe5b906000526020600020906007020160010160008282540192505081905550806001838154811061058957fe5b60009182526020909120600260079092020101805490910190555050565b600181815481106105b457fe5b60009182526020918290206007919091020180546040805160026001841615610100026000190190931692909204601f81018590048502830185019091528082529193509183919083018282801561064d5780601f106106225761010080835404028352916020019161064d565b820191906000526020600020905b81548152906001019060200180831161063057829003601f168201915b505050505090806001015490806002015490806003018054600181600116156101000203166002900480601f0160208091040260200160405190810160405280929190818152602001828054600181600116156101000203166002900480156106f75780601f106106cc576101008083540402835291602001916106f7565b820191906000526020600020905b8154815290600101906020018083116106da57829003601f168201915b5050505060048301546005840154600690940154929390929091506001600160a01b031687565b806001838154811061072c57fe5b906000526020600020906007020160050181905550336001600160a01b03166108fc6001848154811061075b57fe5b9060005260206000209060070201600201549081150290604051600060405180830381858888f19350505050158015610798573d6000803e3d6000fd5b505050565b600080546001600160a01b03838116911614156107bc57506001610488565b506000919050565b6001546000906107d2610992565b6001805480820182556000919091528151805183926007027fb10e2d527612073b26eecdfd717e6a320cf44b4afac2b0732d9fcbe2b7fa0cf6019161081c918391602001906109d8565b506020828101516001830155604083015160028301556060830151805161084992600385019201906109d8565b506080820151816004015560a0820151816005015560c08201518160060160006101000a8154816001600160a01b0302191690836001600160a01b03160217905550505085856001848154811061089c57fe5b600091825260209091206108b69360079092020191610a56565b50833403600183815481106108c757fe5b90600052602060002090600702016001018190555083600183815481106108ea57fe5b600091825260209091206007909102016002015550949350505050565b81816001858154811061091657fe5b90600052602060002090600702016003019190610934929190610a56565b50336001600160a01b03166108fc6001858154811061094f57fe5b9060005260206000209060070201600201549081150290604051600060405180830381858888f1935050505015801561098c573d6000803e3d6000fd5b50505050565b6040518060e0016040528060608152602001600081526020016000815260200160608152602001600081526020016000815260200160006001600160a01b031681525090565b828054600181600116156101000203166002900490600052602060002090601f016020900481019282601f10610a1957805160ff1916838001178555610a46565b82800160010185558215610a46579182015b82811115610a46578251825591602001919060010190610a2b565b50610a52929150610ac4565b5090565b828054600181600116156101000203166002900490600052602060002090601f016020900481019282601f10610a975782800160ff19823516178555610a46565b82800160010185558215610a46579182015b82811115610a46578235825591602001919060010190610aa9565b610ade91905b80821115610a525760008155600101610aca565b9056fea2646970667358221220dd567b5c8476c2c4ff9d84364ac77990d86cec30a14b3cc67b5a4befce333eed64736f6c63430006080033",
  "immutableReferences": {},
  "source": "// SPDX-License-Identifier: MIT\n\npragma solidity 0.6.8;\n\nimport \"../WitnetRequestsBoardInterface.sol\";\n\n\n/**\n * @title Witnet Requests Board mocked\n * @notice Contract to bridge requests to Witnet for testing purposes.\n * @dev This contract enables posting requests that Witnet bridges will insert into the Witnet network.\n  * The result of the requests will be posted back to this contract by the bridge nodes too.\n * @author Witnet Foundation\n */\ncontract MockWitnetRequestsBoard is WitnetRequestsBoardInterface {\n\n  struct DataRequest {\n    bytes dr;\n    uint256 inclusionReward;\n    uint256 tallyReward;\n    bytes result;\n    uint256 timestamp;\n    uint256 drHash;\n    address payable pkhClaim;\n  }\n\n  address public witnet;\n\n  DataRequest[] public requests;\n\n  constructor () public {\n    // Insert an empty request so as to initialize the requests array with length > 0\n    DataRequest memory request;\n    requests.push(request);\n    witnet = msg.sender;\n  }\n\n  /// @dev Posts a data request into the WRB in expectation that it will be relayed and resolved in Witnet with a total reward that equals to msg.value.\n  /// @param _dr The bytes corresponding to the Protocol Buffers serialization of the data request output.\n  /// @param _tallyReward The amount of value that will be detracted from the transaction value and reserved for rewarding the reporting of the final result (aka tally) of the data request.\n  /// @return The unique identifier of the data request.\n  function postDataRequest(bytes calldata _dr, uint256 _tallyReward)\n    external\n    payable\n    override\n  returns(uint256)\n  {\n    uint256 _id = requests.length;\n    DataRequest memory dr;\n    requests.push(dr);\n\n    requests[_id].dr = _dr;\n    requests[_id].inclusionReward = msg.value - _tallyReward;\n    requests[_id].tallyReward = _tallyReward;\n    return _id;\n  }\n\n  /// @dev Increments the rewards of a data request by adding more value to it. The new request reward will be increased by msg.value minus the difference between the former tally reward and the new tally reward.\n  /// @param _id The unique identifier of the data request.\n  /// @param _tallyReward The new tally reward. Needs to be equal or greater than the former tally reward.\n  function upgradeDataRequest(uint256 _id, uint256 _tallyReward)\n    external\n    payable\n    override\n  {\n    requests[_id].inclusionReward += msg.value - _tallyReward;\n    requests[_id].tallyReward += _tallyReward;\n  }\n\n  /// @dev Reports the hash of a data request in Witnet.\n  /// @param _id The unique identifier of the data request.\n  /// @param _drHash The hash itself.\n  function reportDrHash (uint256 _id, uint256 _drHash) external {\n    requests[_id].drHash = _drHash;\n    msg.sender.transfer(requests[_id].tallyReward);\n  }\n\n  /// @dev Reports the result of a data request in Witnet.\n  /// @param _id The unique identifier of the data request.\n  /// @param _result The result itself as bytes.\n  function reportResult (uint256 _id, bytes calldata _result) external {\n    requests[_id].result = _result;\n    msg.sender.transfer(requests[_id].tallyReward);\n  }\n\n  /// @dev Retrieves the result (if already available) of one data request from the WRB.\n  /// @param _id The unique identifier of the data request.\n  /// @return The result of the DR.\n  function readResult (uint256 _id) external view override returns(bytes memory) {\n    return requests[_id].result;\n  }\n\n  /// @dev Verifies if the contract is upgradable.\n  /// @return true if the contract upgradable.\n  function isUpgradable(address _address) external view override returns(bool) {\n    if (_address == witnet) {\n      return true;\n    }\n    return false;\n  }\n\n  /// @dev Retrieves hash of the data request transaction in Witnet.\n  /// @param _id The unique identifier of the data request.\n  /// @return The hash of the DataRequest transaction in Witnet.\n  function readDrHash (uint256 _id) external view override returns(uint256) {\n    return requests[_id].drHash;\n  }\n}\n",
  "sourcePath": "/Users/sbacha/witnet-ethereum-bridge/contracts/mocks/MockWitnetRequestsBoard.sol",
  "compiler": {
    "name": "solc",
    "version": "0.6.8+commit.0bbfe453.Emscripten.clang"
  },
  "schemaVersion": "3.2.0",
  "updatedAt": "2020-06-12T08:08:15.525Z",
  "devdoc": {
    "author": "Witnet Foundation",
    "details": "This contract enables posting requests that Witnet bridges will insert into the Witnet network. The result of the requests will be posted back to this contract by the bridge nodes too.",
    "methods": {
      "isUpgradable(address)": {
        "details": "Verifies if the contract is upgradable.",
        "returns": {
          "_0": "true if the contract upgradable."
        }
      },
      "postDataRequest(bytes,uint256)": {
        "details": "Posts a data request into the WRB in expectation that it will be relayed and resolved in Witnet with a total reward that equals to msg.value.",
        "params": {
          "_dr": "The bytes corresponding to the Protocol Buffers serialization of the data request output.",
          "_tallyReward": "The amount of value that will be detracted from the transaction value and reserved for rewarding the reporting of the final result (aka tally) of the data request."
        },
        "returns": {
          "_0": "The unique identifier of the data request."
        }
      },
      "readDrHash(uint256)": {
        "details": "Retrieves hash of the data request transaction in Witnet.",
        "params": {
          "_id": "The unique identifier of the data request."
        },
        "returns": {
          "_0": "The hash of the DataRequest transaction in Witnet."
        }
      },
      "readResult(uint256)": {
        "details": "Retrieves the result (if already available) of one data request from the WRB.",
        "params": {
          "_id": "The unique identifier of the data request."
        },
        "returns": {
          "_0": "The result of the DR."
        }
      },
      "reportDrHash(uint256,uint256)": {
        "details": "Reports the hash of a data request in Witnet.",
        "params": {
          "_drHash": "The hash itself.",
          "_id": "The unique identifier of the data request."
        }
      },
      "reportResult(uint256,bytes)": {
        "details": "Reports the result of a data request in Witnet.",
        "params": {
          "_id": "The unique identifier of the data request.",
          "_result": "The result itself as bytes."
        }
      },
      "upgradeDataRequest(uint256,uint256)": {
        "details": "Increments the rewards of a data request by adding more value to it. The new request reward will be increased by msg.value minus the difference between the former tally reward and the new tally reward.",
        "params": {
          "_id": "The unique identifier of the data request.",
          "_tallyReward": "The new tally reward. Needs to be equal or greater than the former tally reward."
        }
      }
    },
    "title": "Witnet Requests Board mocked"
  },
  "userdoc": {
    "methods": {},
    "notice": "Contract to bridge requests to Witnet for testing purposes."
  }
}