{
  "contractName": "MockBlockRelay",
  "abi": [
    {
      "inputs": [],
      "stateMutability": "nonpayable",
      "type": "constructor"
    },
    {
      "anonymous": false,
      "inputs": [
        {
          "indexed": true,
          "internalType": "address",
          "name": "_from",
          "type": "address"
        },
        {
          "indexed": false,
          "internalType": "uint256",
          "name": "_id",
          "type": "uint256"
        }
      ],
      "name": "NewBlock",
      "type": "event"
    },
    {
      "inputs": [
        {
          "internalType": "uint256",
          "name": "",
          "type": "uint256"
        }
      ],
      "name": "blocks",
      "outputs": [
        {
          "internalType": "uint256",
          "name": "drHashMerkleRoot",
          "type": "uint256"
        },
        {
          "internalType": "uint256",
          "name": "tallyHashMerkleRoot",
          "type": "uint256"
        }
      ],
      "stateMutability": "view",
      "type": "function"
    },
    {
      "inputs": [],
      "name": "lastBlock",
      "outputs": [
        {
          "internalType": "uint256",
          "name": "blockHash",
          "type": "uint256"
        },
        {
          "internalType": "uint256",
          "name": "epoch",
          "type": "uint256"
        }
      ],
      "stateMutability": "view",
      "type": "function"
    },
    {
      "inputs": [],
      "name": "witnet",
      "outputs": [
        {
          "internalType": "address",
          "name": "",
          "type": "address"
        }
      ],
      "stateMutability": "view",
      "type": "function"
    },
    {
      "inputs": [],
      "name": "getLastBeacon",
      "outputs": [
        {
          "internalType": "bytes",
          "name": "",
          "type": "bytes"
        }
      ],
      "stateMutability": "view",
      "type": "function"
    },
    {
      "inputs": [],
      "name": "getLastEpoch",
      "outputs": [
        {
          "internalType": "uint256",
          "name": "",
          "type": "uint256"
        }
      ],
      "stateMutability": "view",
      "type": "function"
    },
    {
      "inputs": [],
      "name": "getLastHash",
      "outputs": [
        {
          "internalType": "uint256",
          "name": "",
          "type": "uint256"
        }
      ],
      "stateMutability": "view",
      "type": "function"
    },
    {
      "inputs": [
        {
          "internalType": "uint256[]",
          "name": "_poi",
          "type": "uint256[]"
        },
        {
          "internalType": "uint256",
          "name": "_blockHash",
          "type": "uint256"
        },
        {
          "internalType": "uint256",
          "name": "_index",
          "type": "uint256"
        },
        {
          "internalType": "uint256",
          "name": "_element",
          "type": "uint256"
        }
      ],
      "name": "verifyDrPoi",
      "outputs": [
        {
          "internalType": "bool",
          "name": "",
          "type": "bool"
        }
      ],
      "stateMutability": "view",
      "type": "function"
    },
    {
      "inputs": [
        {
          "internalType": "uint256[]",
          "name": "_poi",
          "type": "uint256[]"
        },
        {
          "internalType": "uint256",
          "name": "_blockHash",
          "type": "uint256"
        },
        {
          "internalType": "uint256",
          "name": "_index",
          "type": "uint256"
        },
        {
          "internalType": "uint256",
          "name": "_element",
          "type": "uint256"
        }
      ],
      "name": "verifyTallyPoi",
      "outputs": [
        {
          "internalType": "bool",
          "name": "",
          "type": "bool"
        }
      ],
      "stateMutability": "view",
      "type": "function"
    },
    {
      "inputs": [
        {
          "internalType": "address",
          "name": "",
          "type": "address"
        }
      ],
      "name": "isUpgradable",
      "outputs": [
        {
          "internalType": "bool",
          "name": "",
          "type": "bool"
        }
      ],
      "stateMutability": "view",
      "type": "function"
    },
    {
      "inputs": [
        {
          "internalType": "uint256",
          "name": "_blockHash",
          "type": "uint256"
        },
        {
          "internalType": "uint256",
          "name": "_epoch",
          "type": "uint256"
        },
        {
          "internalType": "uint256",
          "name": "_drMerkleRoot",
          "type": "uint256"
        },
        {
          "internalType": "uint256",
          "name": "_tallyMerkleRoot",
          "type": "uint256"
        }
      ],
      "name": "postNewBlock",
      "outputs": [],
      "stateMutability": "nonpayable",
      "type": "function"
    },
    {
      "inputs": [
        {
          "internalType": "uint256",
          "name": "_blockHash",
          "type": "uint256"
        }
      ],
      "name": "readDrMerkleRoot",
      "outputs": [
        {
          "internalType": "uint256",
          "name": "",
          "type": "uint256"
        }
      ],
      "stateMutability": "view",
      "type": "function"
    },
    {
      "inputs": [
        {
          "internalType": "uint256",
          "name": "_blockHash",
          "type": "uint256"
        }
      ],
      "name": "readTallyMerkleRoot",
      "outputs": [
        {
          "internalType": "uint256",
          "name": "",
          "type": "uint256"
        }
      ],
      "stateMutability": "view",
      "type": "function"
    }
  ],
  "bytecode": "0x608060405234801561001057600080fd5b50600080546001600160a01b03191633179055610915806100326000396000f3fe608060405234801561001057600080fd5b50600436106100b45760003560e01c80639827653511610071578063982765351461022c578063be2adb3514610249578063d2afe01a1461026f578063e987ed58146102a0578063f25b3f991461031d578063fcc770ee1461033a576100b4565b80631b58f9c7146100b9578063398bac631461014957806346d1d21a146101635780634a91004614610187578063806b984f1461018f5780639806e62b146101b0575b600080fd5b610135600480360360808110156100cf57600080fd5b8101906020810181356401000000008111156100ea57600080fd5b8201836020820111156100fc57600080fd5b8035906020019184602083028401116401000000008311171561011e57600080fd5b919350915080359060208101359060400135610357565b604080519115158252519081900360200190f35b61015161040a565b60408051918252519081900360200190f35b61016b610410565b604080516001600160a01b039092168252519081900360200190f35b61015161041f565b610197610425565b6040805192835260208301919091528051918290030190f35b610135600480360360808110156101c657600080fd5b8101906020810181356401000000008111156101e157600080fd5b8201836020820111156101f357600080fd5b8035906020019184602083028401116401000000008311171561021557600080fd5b91935091508035906020810135906040013561042e565b6101516004803603602081101561024257600080fd5b50356104d8565b6101356004803603602081101561025f57600080fd5b50356001600160a01b0316610543565b61029e6004803603608081101561028557600080fd5b5080359060208101359060408101359060600135610549565b005b6102a861066e565b6040805160208082528351818301528351919283929083019185019080838360005b838110156102e25781810151838201526020016102ca565b50505050905090810190601f16801561030f5780820380516001836020036101000a031916815260200191505b509250505060405180910390f35b6101976004803603602081101561033357600080fd5b503561069a565b6101516004803603602081101561035057600080fd5b50356106b3565b60008381526003602052604081205484906103ae576040805162461bcd60e51b81526020600482015260126024820152714e6f6e2d6578697374696e6720626c6f636b60701b604482015290519081900360640190fd5b600085815260036020908152604091829020548251898302818101840190945289815290926103fe928b918b91829190850190849080828437600092019190915250859250899150889050610721565b98975050505050505050565b60025490565b6000546001600160a01b031681565b60015490565b60015460025482565b6000838152600360205260408120548490610485576040805162461bcd60e51b81526020600482015260126024820152714e6f6e2d6578697374696e6720626c6f636b60701b604482015290519081900360640190fd5b600085815260036020908152604091829020600101548251898302818101840190945289815290926103fe928b918b91829190850190849080828437600092019190915250859250899150889050610721565b600081815260036020526040812054829061052f576040805162461bcd60e51b81526020600482015260126024820152714e6f6e2d6578697374696e6720626c6f636b60701b604482015290519081900360640190fd5b505060009081526003602052604090205490565b50600190565b6000546001600160a01b031633146105a0576040805162461bcd60e51b815260206004820152601560248201527414d95b99195c881b9bdd08185d5d1a1bdc9a5e9959605a1b604482015290519081900360640190fd5b600084815260036020526040902054849015610603576040805162461bcd60e51b815260206004820152601960248201527f54686520626c6f636b20616c7265616479206578697374656400000000000000604482015290519081900360640190fd5b60018581556002859055600086815260036020908152604080832087815590930185905590548251888152925188936001600160a01b03909216927fe1c9ac156359e117ba0744ca389de158e27192cd006ad58e099f4beb0b568e17928290030190a2505050505050565b600154600254604080516020810193909352828101919091528051808303820181526060909201905290565b6003602052600090815260409020805460019091015482565b600081815260036020526040812054829061070a576040805162461bcd60e51b81526020600482015260126024820152714e6f6e2d6578697374696e6720626c6f636b60701b604482015290519081900360640190fd5b505060009081526003602052604090206001015490565b60008183825b87518110156108d257600282066108015760028389838151811061074757fe5b602002602001015160405160200180838152602001828152602001925050506040516020818303038152906040526040518082805190602001908083835b602083106107a45780518252601f199092019160209182019101610785565b51815160209384036101000a60001901801990921691161790526040519190930194509192505080830381855afa1580156107e3573d6000803e3d6000fd5b5050506040513d60208110156107f857600080fd5b505192506108c6565b600288828151811061080f57fe5b60200260200101518460405160200180838152602001828152602001925050506040516020818303038152906040526040518082805190602001908083835b6020831061086d5780518252601f19909201916020918201910161084e565b51815160209384036101000a60001901801990921691161790526040519190930194509192505080830381855afa1580156108ac573d6000803e3d6000fd5b5050506040513d60208110156108c157600080fd5b505192505b600191821c9101610727565b505090931494935050505056fea2646970667358221220182825798987493686e57bfc43783e281e5c797e16bbd421e8dae0b24690ee9e64736f6c63430006080033",
  "immutableReferences": {},
  "source": "// SPDX-License-Identifier: MIT\n\npragma solidity 0.6.8;\n\nimport \"witnet-ethereum-block-relay/contracts/BlockRelayInterface.sol\";\n\n\n/**\n * @title Block relay contract\n * @notice Contract to store/read block headers from the Witnet network.\n * @author Witnet Foundation\n */\ncontract MockBlockRelay is BlockRelayInterface {\n\n  struct MerkleRoots {\n    // hash of the merkle root of the DRs in Witnet\n    uint256 drHashMerkleRoot;\n    // hash of the merkle root of the tallies in Witnet\n    uint256 tallyHashMerkleRoot;\n  }\n\n  struct Beacon {\n    // hash of the last block\n    uint256 blockHash;\n    // epoch of the last block\n    uint256 epoch;\n  }\n\n  // Address of the block pusher\n  address public witnet;\n  // Last block reported\n  Beacon public lastBlock;\n\n  mapping (uint256 => MerkleRoots) public blocks;\n\n  // Event emitted when a new block is posted to the contract\n  event NewBlock(address indexed _from, uint256 _id);\n\n  // Only the owner should be able to push blocks\n  modifier isOwner() {\n    require(msg.sender == witnet, \"Sender not authorized\"); // If it is incorrect here, it reverts.\n    _; // Otherwise, it continues.\n  }\n\n  // Ensures block exists\n  modifier blockExists(uint256 _id){\n    require(blocks[_id].drHashMerkleRoot!=0, \"Non-existing block\");\n    _;\n  }\n\n  // Ensures block does not exist\n  modifier blockDoesNotExist(uint256 _id){\n    require(blocks[_id].drHashMerkleRoot==0, \"The block already existed\");\n    _;\n  }\n\n  constructor() public{\n    // Only the contract deployer is able to push blocks\n    witnet = msg.sender;\n  }\n\n  /// @dev Read the beacon of the last block inserted.\n  /// @return bytes to be signed by bridge nodes.\n  function getLastBeacon()\n    external\n    view\n    override\n  returns(bytes memory)\n  {\n    return abi.encodePacked(lastBlock.blockHash, lastBlock.epoch);\n  }\n\n  /// @notice Returns the lastest epoch reported to the block relay.\n  /// @return the last epoch.\n  function getLastEpoch() external view override returns(uint256) {\n    return lastBlock.epoch;\n  }\n\n  /// @notice Returns the latest hash reported to the block relay.\n  /// @return the last block hash.\n  function getLastHash() external view override returns(uint256) {\n    return lastBlock.blockHash;\n  }\n\n  /// @dev Verifies the validity of a PoI against the DR merkle root.\n  /// @param _poi the proof of inclusion as [sibling1, sibling2,..].\n  /// @param _blockHash the blockHash.\n  /// @param _index the index in the merkle tree of the element to verify.\n  /// @param _element the leaf to be verified.\n  /// @return true or false depending the validity.\n  function verifyDrPoi(\n    uint256[] calldata _poi,\n    uint256 _blockHash,\n    uint256 _index,\n    uint256 _element)\n    external\n    view\n    blockExists(_blockHash)\n    override\n  returns(bool)\n  {\n    uint256 drMerkleRoot = blocks[_blockHash].drHashMerkleRoot;\n    return(verifyPoi(\n      _poi,\n      drMerkleRoot,\n      _index,\n      _element));\n  }\n\n  /// @dev Verifies the validity of a PoI against the tally merkle root.\n  /// @param _poi the proof of inclusion as [sibling1, sibling2,..].\n  /// @param _blockHash the blockHash.\n  /// @param _index the index in the merkle tree of the element to verify.\n  /// @param _element the element.\n  /// @return true or false depending the validity.\n  function verifyTallyPoi(\n    uint256[] calldata _poi,\n    uint256 _blockHash,\n    uint256 _index,\n    uint256 _element)\n    external\n    view\n    blockExists(_blockHash)\n    override\n  returns(bool)\n  {\n    uint256 tallyMerkleRoot = blocks[_blockHash].tallyHashMerkleRoot;\n    return(verifyPoi(\n      _poi,\n      tallyMerkleRoot,\n      _index,\n      _element));\n  }\n\n  /// @dev Determines if the contract is upgradable.\n  /// @return true if the contract is upgradable.\n  function isUpgradable(address) external view override returns(bool) {\n    return true;\n  }\n\n  /// @dev Post new block into the block relay.\n  /// @param _blockHash Hash of the block header.\n  /// @param _epoch Witnet epoch to which the block belongs to.\n  /// @param _drMerkleRoot Merkle root belonging to the data requests.\n  /// @param _tallyMerkleRoot Merkle root belonging to the tallies.\n  function postNewBlock(\n    uint256 _blockHash,\n    uint256 _epoch,\n    uint256 _drMerkleRoot,\n    uint256 _tallyMerkleRoot)\n    external\n    isOwner\n    blockDoesNotExist(_blockHash)\n  {\n    uint256 id = _blockHash;\n    lastBlock.blockHash = id;\n    lastBlock.epoch = _epoch;\n    blocks[id].drHashMerkleRoot = _drMerkleRoot;\n    blocks[id].tallyHashMerkleRoot = _tallyMerkleRoot;\n    emit NewBlock(witnet, id);\n  }\n\n  /// @dev Retrieve the requests-only merkle root hash that was reported for a specific block header.\n  /// @param _blockHash Hash of the block header.\n  /// @return Requests-only merkle root hash in the block header.\n  function readDrMerkleRoot(uint256 _blockHash)\n    external\n    view\n    blockExists(_blockHash)\n  returns(uint256)\n  {\n    return blocks[_blockHash].drHashMerkleRoot;\n  }\n\n  /// @dev Retrieve the tallies-only merkle root hash that was reported for a specific block header.\n  /// @param _blockHash Hash of the block header.\n  /// tallies-only merkle root hash in the block header.\n  function readTallyMerkleRoot(uint256 _blockHash)\n    external\n    view\n    blockExists(_blockHash)\n  returns(uint256)\n  {\n    return blocks[_blockHash].tallyHashMerkleRoot;\n  }\n\n  /// @dev Verifies the validity of a PoI.\n  /// @param _poi the proof of inclusion as [sibling1, sibling2,..].\n  /// @param _root the merkle root.\n  /// @param _index the index in the merkle tree of the element to verify.\n  /// @param _element the leaf to be verified.\n  /// @return true or false depending the validity.\n  function verifyPoi(\n    uint256[] memory _poi,\n    uint256 _root,\n    uint256 _index,\n    uint256 _element)\n  private pure returns(bool)\n  {\n    uint256 tree = _element;\n    uint256 index = _index;\n    // We want to prove that the hash of the _poi and the _element is equal to _root.\n    // For knowing if concatenate to the left or the right we check the parity of the the index.\n    for (uint i = 0; i < _poi.length; i++) {\n      if (index%2 == 0) {\n        tree = uint256(sha256(abi.encodePacked(tree, _poi[i])));\n      } else {\n        tree = uint256(sha256(abi.encodePacked(_poi[i], tree)));\n      }\n      index = index >> 1;\n    }\n    return _root == tree;\n  }\n}",
  "sourcePath": "/Users/sbacha/witnet-ethereum-bridge/contracts/mocks/MockBlockRelay.sol",
  "compiler": {
    "name": "solc",
    "version": "0.6.8+commit.0bbfe453.Emscripten.clang"
  },
  "schemaVersion": "3.2.0",
  "updatedAt": "2020-06-12T08:08:15.521Z",
  "devdoc": {
    "author": "Witnet Foundation",
    "methods": {
      "getLastBeacon()": {
        "details": "Read the beacon of the last block inserted.",
        "returns": {
          "_0": "bytes to be signed by bridge nodes."
        }
      },
      "getLastEpoch()": {
        "returns": {
          "_0": "the last epoch."
        }
      },
      "getLastHash()": {
        "returns": {
          "_0": "the last block hash."
        }
      },
      "isUpgradable(address)": {
        "details": "Determines if the contract is upgradable.",
        "returns": {
          "_0": "true if the contract is upgradable."
        }
      },
      "postNewBlock(uint256,uint256,uint256,uint256)": {
        "details": "Post new block into the block relay.",
        "params": {
          "_blockHash": "Hash of the block header.",
          "_drMerkleRoot": "Merkle root belonging to the data requests.",
          "_epoch": "Witnet epoch to which the block belongs to.",
          "_tallyMerkleRoot": "Merkle root belonging to the tallies."
        }
      },
      "readDrMerkleRoot(uint256)": {
        "details": "Retrieve the requests-only merkle root hash that was reported for a specific block header.",
        "params": {
          "_blockHash": "Hash of the block header."
        },
        "returns": {
          "_0": "Requests-only merkle root hash in the block header."
        }
      },
      "readTallyMerkleRoot(uint256)": {
        "details": "Retrieve the tallies-only merkle root hash that was reported for a specific block header.",
        "params": {
          "_blockHash": "Hash of the block header. tallies-only merkle root hash in the block header."
        }
      },
      "verifyDrPoi(uint256[],uint256,uint256,uint256)": {
        "details": "Verifies the validity of a PoI against the DR merkle root.",
        "params": {
          "_blockHash": "the blockHash.",
          "_element": "the leaf to be verified.",
          "_index": "the index in the merkle tree of the element to verify.",
          "_poi": "the proof of inclusion as [sibling1, sibling2,..]."
        },
        "returns": {
          "_0": "true or false depending the validity."
        }
      },
      "verifyTallyPoi(uint256[],uint256,uint256,uint256)": {
        "details": "Verifies the validity of a PoI against the tally merkle root.",
        "params": {
          "_blockHash": "the blockHash.",
          "_element": "the element.",
          "_index": "the index in the merkle tree of the element to verify.",
          "_poi": "the proof of inclusion as [sibling1, sibling2,..]."
        },
        "returns": {
          "_0": "true or false depending the validity."
        }
      }
    },
    "title": "Block relay contract"
  },
  "userdoc": {
    "methods": {
      "getLastEpoch()": {
        "notice": "Returns the lastest epoch reported to the block relay."
      },
      "getLastHash()": {
        "notice": "Returns the latest hash reported to the block relay."
      }
    },
    "notice": "Contract to store/read block headers from the Witnet network."
  }
}