{
  "contractName": "Request",
  "abi": [
    {
      "inputs": [
        {
          "internalType": "bytes",
          "name": "_bytecode",
          "type": "bytes"
        }
      ],
      "stateMutability": "nonpayable",
      "type": "constructor"
    },
    {
      "inputs": [],
      "name": "bytecode",
      "outputs": [
        {
          "internalType": "bytes",
          "name": "",
          "type": "bytes"
        }
      ],
      "stateMutability": "view",
      "type": "function"
    },
    {
      "inputs": [],
      "name": "id",
      "outputs": [
        {
          "internalType": "uint256",
          "name": "",
          "type": "uint256"
        }
      ],
      "stateMutability": "view",
      "type": "function"
    }
  ],
  "bytecode": "0x608060405234801561001057600080fd5b506040516103ce3803806103ce8339818101604052602081101561003357600080fd5b810190808051604051939291908464010000000082111561005357600080fd5b90830190602082018581111561006857600080fd5b825164010000000081118282018810171561008257600080fd5b82525081516020918201929091019080838360005b838110156100af578181015183820152602001610097565b50505050905090810190601f1680156100dc5780820380516001836020036101000a031916815260200191505b50604052505081516100f691506000906020840190610188565b506002816040518082805190602001908083835b602083106101295780518252601f19909201916020918201910161010a565b51815160209384036101000a60001901801990921691161790526040519190930194509192505080830381855afa158015610168573d6000803e3d6000fd5b5050506040513d602081101561017d57600080fd5b505160015550610223565b828054600181600116156101000203166002900490600052602060002090601f016020900481019282601f106101c957805160ff19168380011785556101f6565b828001600101855582156101f6579182015b828111156101f65782518255916020019190600101906101db565b50610202929150610206565b5090565b61022091905b80821115610202576000815560010161020c565b90565b61019c806102326000396000f3fe608060405234801561001057600080fd5b50600436106100365760003560e01c8063af640d0f1461003b578063f094000214610055575b600080fd5b6100436100d2565b60408051918252519081900360200190f35b61005d6100d8565b6040805160208082528351818301528351919283929083019185019080838360005b8381101561009757818101518382015260200161007f565b50505050905090810190601f1680156100c45780820380516001836020036101000a031916815260200191505b509250505060405180910390f35b60015481565b6000805460408051602060026001851615610100026000190190941693909304601f8101849004840282018401909252818152929183018282801561015e5780601f106101335761010080835404028352916020019161015e565b820191906000526020600020905b81548152906001019060200180831161014157829003601f168201915b50505050508156fea264697066735822122098eac82bbdc231682f182dd0a2f1d3b1ef50a84fb0254ca9ae9b91b39508571a64736f6c63430006080033",
  "immutableReferences": {},
  "source": "// SPDX-License-Identifier: MIT\n\npragma solidity >=0.6.0 <0.7.0;\n\n\n/**\n * @title The serialized form of a Witnet data request\n */\ncontract Request {\n  bytes public bytecode;\n  uint256 public id;\n\n /**\n  * @dev A `Request` is constructed around a `bytes memory` value containing a well-formed Witnet data request serialized\n  * using Protocol Buffers. However, we cannot verify its validity at this point. This implies that contracts using\n  * the WRB should not be considered trustless before a valid Proof-of-Inclusion has been posted for the requests.\n  * The hash of the request is computed in the constructor to guarantee consistency. Otherwise there could be a\n  * mismatch and a data request could be resolved with the result of another.\n  * @param _bytecode Witnet request in bytes.\n  */\n  constructor(bytes memory _bytecode) public {\n    bytecode = _bytecode;\n    id = uint256(sha256(_bytecode));\n  }\n}\n",
  "sourcePath": "/Users/sbacha/witnet-ethereum-bridge/contracts/Request.sol",
  "compiler": {
    "name": "solc",
    "version": "0.6.8+commit.0bbfe453.Emscripten.clang"
  },
  "schemaVersion": "3.2.0",
  "updatedAt": "2020-06-12T08:08:15.480Z",
  "devdoc": {
    "methods": {
      "constructor": {
        "details": "A `Request` is constructed around a `bytes memory` value containing a well-formed Witnet data request serialized using Protocol Buffers. However, we cannot verify its validity at this point. This implies that contracts using the WRB should not be considered trustless before a valid Proof-of-Inclusion has been posted for the requests. The hash of the request is computed in the constructor to guarantee consistency. Otherwise there could be a mismatch and a data request could be resolved with the result of another.",
        "params": {
          "_bytecode": "Witnet request in bytes."
        }
      }
    },
    "title": "The serialized form of a Witnet data request"
  },
  "userdoc": {
    "methods": {}
  }
}