{
  "contractName": "WitnetRequestsBoard",
  "abi": [
    {
      "inputs": [
        {
          "internalType": "address",
          "name": "_blockRelayAddress",
          "type": "address"
        },
        {
          "internalType": "uint8",
          "name": "_repFactor",
          "type": "uint8"
        }
      ],
      "stateMutability": "nonpayable",
      "type": "constructor"
    },
    {
      "anonymous": false,
      "inputs": [
        {
          "indexed": true,
          "internalType": "address",
          "name": "_from",
          "type": "address"
        },
        {
          "indexed": false,
          "internalType": "uint256",
          "name": "_id",
          "type": "uint256"
        }
      ],
      "name": "IncludedRequest",
      "type": "event"
    },
    {
      "anonymous": false,
      "inputs": [
        {
          "indexed": true,
          "internalType": "address",
          "name": "_from",
          "type": "address"
        },
        {
          "indexed": false,
          "internalType": "uint256",
          "name": "_id",
          "type": "uint256"
        }
      ],
      "name": "PostedRequest",
      "type": "event"
    },
    {
      "anonymous": false,
      "inputs": [
        {
          "indexed": true,
          "internalType": "address",
          "name": "_from",
          "type": "address"
        },
        {
          "indexed": false,
          "internalType": "uint256",
          "name": "_id",
          "type": "uint256"
        }
      ],
      "name": "PostedResult",
      "type": "event"
    },
    {
      "inputs": [],
      "name": "CLAIM_EXPIRATION",
      "outputs": [
        {
          "internalType": "uint256",
          "name": "",
          "type": "uint256"
        }
      ],
      "stateMutability": "view",
      "type": "function"
    },
    {
      "inputs": [],
      "name": "abs",
      "outputs": [
        {
          "internalType": "uint32",
          "name": "activeIdentities",
          "type": "uint32"
        },
        {
          "internalType": "uint32",
          "name": "nextActiveIdentities",
          "type": "uint32"
        },
        {
          "internalType": "uint256",
          "name": "lastBlockNumber",
          "type": "uint256"
        }
      ],
      "stateMutability": "view",
      "type": "function"
    },
    {
      "inputs": [],
      "name": "blockRelay",
      "outputs": [
        {
          "internalType": "contract BlockRelayProxy",
          "name": "",
          "type": "address"
        }
      ],
      "stateMutability": "view",
      "type": "function"
    },
    {
      "inputs": [],
      "name": "repFactor",
      "outputs": [
        {
          "internalType": "uint8",
          "name": "",
          "type": "uint8"
        }
      ],
      "stateMutability": "view",
      "type": "function"
    },
    {
      "inputs": [
        {
          "internalType": "uint256",
          "name": "",
          "type": "uint256"
        }
      ],
      "name": "requests",
      "outputs": [
        {
          "internalType": "bytes",
          "name": "dr",
          "type": "bytes"
        },
        {
          "internalType": "uint256",
          "name": "inclusionReward",
          "type": "uint256"
        },
        {
          "internalType": "uint256",
          "name": "tallyReward",
          "type": "uint256"
        },
        {
          "internalType": "bytes",
          "name": "result",
          "type": "bytes"
        },
        {
          "internalType": "uint256",
          "name": "blockNumber",
          "type": "uint256"
        },
        {
          "internalType": "uint256",
          "name": "epoch",
          "type": "uint256"
        },
        {
          "internalType": "uint256",
          "name": "drHash",
          "type": "uint256"
        },
        {
          "internalType": "address payable",
          "name": "pkhClaim",
          "type": "address"
        }
      ],
      "stateMutability": "view",
      "type": "function"
    },
    {
      "inputs": [],
      "name": "witnet",
      "outputs": [
        {
          "internalType": "address",
          "name": "",
          "type": "address"
        }
      ],
      "stateMutability": "view",
      "type": "function"
    },
    {
      "inputs": [
        {
          "internalType": "bytes",
          "name": "_serialized",
          "type": "bytes"
        },
        {
          "internalType": "uint256",
          "name": "_tallyReward",
          "type": "uint256"
        }
      ],
      "name": "postDataRequest",
      "outputs": [
        {
          "internalType": "uint256",
          "name": "",
          "type": "uint256"
        }
      ],
      "stateMutability": "payable",
      "type": "function"
    },
    {
      "inputs": [
        {
          "internalType": "uint256",
          "name": "_id",
          "type": "uint256"
        },
        {
          "internalType": "uint256",
          "name": "_tallyReward",
          "type": "uint256"
        }
      ],
      "name": "upgradeDataRequest",
      "outputs": [],
      "stateMutability": "payable",
      "type": "function"
    },
    {
      "inputs": [
        {
          "internalType": "uint256[]",
          "name": "_ids",
          "type": "uint256[]"
        }
      ],
      "name": "checkDataRequestsClaimability",
      "outputs": [
        {
          "internalType": "bool[]",
          "name": "",
          "type": "bool[]"
        }
      ],
      "stateMutability": "view",
      "type": "function"
    },
    {
      "inputs": [
        {
          "internalType": "uint256",
          "name": "_id",
          "type": "uint256"
        },
        {
          "internalType": "uint256[]",
          "name": "_poi",
          "type": "uint256[]"
        },
        {
          "internalType": "uint256",
          "name": "_index",
          "type": "uint256"
        },
        {
          "internalType": "uint256",
          "name": "_blockHash",
          "type": "uint256"
        },
        {
          "internalType": "uint256",
          "name": "_epoch",
          "type": "uint256"
        }
      ],
      "name": "reportDataRequestInclusion",
      "outputs": [],
      "stateMutability": "nonpayable",
      "type": "function"
    },
    {
      "inputs": [
        {
          "internalType": "uint256",
          "name": "_id",
          "type": "uint256"
        },
        {
          "internalType": "uint256[]",
          "name": "_poi",
          "type": "uint256[]"
        },
        {
          "internalType": "uint256",
          "name": "_index",
          "type": "uint256"
        },
        {
          "internalType": "uint256",
          "name": "_blockHash",
          "type": "uint256"
        },
        {
          "internalType": "uint256",
          "name": "_epoch",
          "type": "uint256"
        },
        {
          "internalType": "bytes",
          "name": "_result",
          "type": "bytes"
        }
      ],
      "name": "reportResult",
      "outputs": [],
      "stateMutability": "nonpayable",
      "type": "function"
    },
    {
      "inputs": [
        {
          "internalType": "uint256",
          "name": "_id",
          "type": "uint256"
        }
      ],
      "name": "readDataRequest",
      "outputs": [
        {
          "internalType": "bytes",
          "name": "",
          "type": "bytes"
        }
      ],
      "stateMutability": "view",
      "type": "function"
    },
    {
      "inputs": [
        {
          "internalType": "uint256",
          "name": "_id",
          "type": "uint256"
        }
      ],
      "name": "readResult",
      "outputs": [
        {
          "internalType": "bytes",
          "name": "",
          "type": "bytes"
        }
      ],
      "stateMutability": "view",
      "type": "function"
    },
    {
      "inputs": [
        {
          "internalType": "uint256",
          "name": "_id",
          "type": "uint256"
        }
      ],
      "name": "readDrHash",
      "outputs": [
        {
          "internalType": "uint256",
          "name": "",
          "type": "uint256"
        }
      ],
      "stateMutability": "view",
      "type": "function"
    },
    {
      "inputs": [],
      "name": "requestsCount",
      "outputs": [
        {
          "internalType": "uint256",
          "name": "",
          "type": "uint256"
        }
      ],
      "stateMutability": "view",
      "type": "function"
    },
    {
      "inputs": [
        {
          "internalType": "bytes",
          "name": "_proof",
          "type": "bytes"
        }
      ],
      "name": "decodeProof",
      "outputs": [
        {
          "internalType": "uint256[4]",
          "name": "",
          "type": "uint256[4]"
        }
      ],
      "stateMutability": "pure",
      "type": "function"
    },
    {
      "inputs": [
        {
          "internalType": "bytes",
          "name": "_point",
          "type": "bytes"
        }
      ],
      "name": "decodePoint",
      "outputs": [
        {
          "internalType": "uint256[2]",
          "name": "",
          "type": "uint256[2]"
        }
      ],
      "stateMutability": "pure",
      "type": "function"
    },
    {
      "inputs": [
        {
          "internalType": "uint256[2]",
          "name": "_publicKey",
          "type": "uint256[2]"
        },
        {
          "internalType": "uint256[4]",
          "name": "_proof",
          "type": "uint256[4]"
        },
        {
          "internalType": "bytes",
          "name": "_message",
          "type": "bytes"
        }
      ],
      "name": "computeFastVerifyParams",
      "outputs": [
        {
          "internalType": "uint256[2]",
          "name": "",
          "type": "uint256[2]"
        },
        {
          "internalType": "uint256[4]",
          "name": "",
          "type": "uint256[4]"
        }
      ],
      "stateMutability": "pure",
      "type": "function"
    },
    {
      "inputs": [
        {
          "internalType": "uint256",
          "name": "_blockNumber",
          "type": "uint256"
        }
      ],
      "name": "updateAbsActivity",
      "outputs": [],
      "stateMutability": "nonpayable",
      "type": "function"
    },
    {
      "inputs": [
        {
          "internalType": "address",
          "name": "_address",
          "type": "address"
        }
      ],
      "name": "isUpgradable",
      "outputs": [
        {
          "internalType": "bool",
          "name": "",
          "type": "bool"
        }
      ],
      "stateMutability": "view",
      "type": "function"
    },
    {
      "inputs": [
        {
          "internalType": "uint256[]",
          "name": "_ids",
          "type": "uint256[]"
        },
        {
          "internalType": "uint256[4]",
          "name": "_poe",
          "type": "uint256[4]"
        },
        {
          "internalType": "uint256[2]",
          "name": "_publicKey",
          "type": "uint256[2]"
        },
        {
          "internalType": "uint256[2]",
          "name": "_uPoint",
          "type": "uint256[2]"
        },
        {
          "internalType": "uint256[4]",
          "name": "_vPointHelpers",
          "type": "uint256[4]"
        },
        {
          "internalType": "bytes",
          "name": "addrSignature",
          "type": "bytes"
        }
      ],
      "name": "claimDataRequests",
      "outputs": [
        {
          "internalType": "bool",
          "name": "",
          "type": "bool"
        }
      ],
      "stateMutability": "nonpayable",
      "type": "function"
    },
    {
      "inputs": [],
      "name": "getLastBeacon",
      "outputs": [
        {
          "internalType": "bytes",
          "name": "",
          "type": "bytes"
        }
      ],
      "stateMutability": "view",
      "type": "function"
    }
  ],
  "bytecode": "0x60806040523480156200001157600080fd5b506040516200488b3803806200488b833981810160405260408110156200003757600080fd5b508051602090910151600180546001600160a01b0384166001600160a01b03199182161790915560008054909116331790556200007362000152565b600280546001810182556000919091528151805183926008027f405787fa12a823e0f2b7631cc41b3ba8828b3321ca811111fa75cd3aa3bb5ace0191620000c091839160200190620001a0565b5060208281015160018301556040830151600283015560608301518051620000ef9260038501920190620001a0565b506080820151600482015560a0820151600582015560c0820151600682015560e090910151600791820180546001600160a01b0319166001600160a01b03909216919091179055805460ff191660ff939093169290921790915550620002459050565b6040518061010001604052806060815260200160008152602001600081526020016060815260200160008152602001600081526020016000815260200160006001600160a01b031681525090565b828054600181600116156101000203166002900490600052602060002090601f016020900481019282601f10620001e357805160ff191683800117855562000213565b8280016001018555821562000213579182015b8281111562000213578251825591602001919060010190620001f6565b506200022192915062000225565b5090565b6200024291905b808211156200022157600081556001016200022c565b90565b61463680620002556000396000f3fe6080604052600436106101355760003560e01c8063be2adb35116100ab578063c9d4ef1f1161006f578063c9d4ef1f146109aa578063cbfc2a7c14610a3a578063e987ed5814610ac8578063ec32e3db14610add578063fbfa4b7f14610b4b578063fdae747614610b6057610135565b8063be2adb351461067e578063bf935e8f146106c5578063c6de1d55146106da578063c95ac47a14610704578063c9bcae14146107cc57610135565b806348ab5b65116100fd57806348ab5b651461028657806351cdea5f146102ab5780635fb843471461036157806381d12c581461042c5780638a68f33e14610570578063a6e7ad2d1461065457610135565b806308ba73421461013a5780632d4a22e814610176578063309e11fc146101a157806345b3d782146101d257806346d1d21a14610271575b600080fd5b34801561014657600080fd5b506101646004803603602081101561015d57600080fd5b5035610b9c565b60408051918252519081900360200190f35b34801561018257600080fd5b5061018b610c0b565b6040805160ff9092168252519081900360200190f35b3480156101ad57600080fd5b506101b6610c14565b604080516001600160a01b039092168252519081900360200190f35b3480156101de57600080fd5b506101fc600480360360208110156101f557600080fd5b5035610c23565b6040805160208082528351818301528351919283929083019185019080838360005b8381101561023657818101518382015260200161021e565b50505050905090810190601f1680156102635780820380516001836020036101000a031916815260200191505b509250505060405180910390f35b34801561027d57600080fd5b506101b6610d1a565b6102a96004803603604081101561029c57600080fd5b5080359060200135610d29565b005b3480156102b757600080fd5b50610326600480360360208110156102ce57600080fd5b810190602081018135600160201b8111156102e857600080fd5b8201836020820111156102fa57600080fd5b803590602001918460018302840111600160201b8311171561031b57600080fd5b509092509050610f25565b6040518082600260200280838360005b8381101561034e578181015183820152602001610336565b5050505090500191505060405180910390f35b34801561036d57600080fd5b506103dc6004803603602081101561038457600080fd5b810190602081018135600160201b81111561039e57600080fd5b8201836020820111156103b057600080fd5b803590602001918460208302840111600160201b831117156103d157600080fd5b509092509050610f73565b60408051602080825283518183015283519192839290830191858101910280838360005b83811015610418578181015183820152602001610400565b505050509050019250505060405180910390f35b34801561043857600080fd5b506104566004803603602081101561044f57600080fd5b5035611229565b604051808060200189815260200188815260200180602001878152602001868152602001858152602001846001600160a01b03166001600160a01b0316815260200183810383528b818151815260200191508051906020019080838360005b838110156104cd5781810151838201526020016104b5565b50505050905090810190601f1680156104fa5780820380516001836020036101000a031916815260200191505b5083810382528851815288516020918201918a019080838360005b8381101561052d578181015183820152602001610515565b50505050905090810190601f16801561055a5780820380516001836020036101000a031916815260200191505b509a505050505050505050505060405180910390f35b34801561057c57600080fd5b506102a9600480360360c081101561059357600080fd5b81359190810190604081016020820135600160201b8111156105b457600080fd5b8201836020820111156105c657600080fd5b803590602001918460208302840111600160201b831117156105e757600080fd5b919390928235926020810135926040820135929091608081019060600135600160201b81111561061657600080fd5b82018360208201111561062857600080fd5b803590602001918460018302840111600160201b8311171561064957600080fd5b5090925090506113a5565b34801561066057600080fd5b506102a96004803603602081101561067757600080fd5b5035611887565b34801561068a57600080fd5b506106b1600480360360208110156106a157600080fd5b50356001600160a01b03166118da565b604080519115158252519081900360200190f35b3480156106d157600080fd5b50610164611901565b3480156106e657600080fd5b506101fc600480360360208110156106fd57600080fd5b5035611906565b34801561071057600080fd5b50610787600480360360e081101561072757600080fd5b604082019082018260e0810160c0820135600160201b81111561074957600080fd5b82018360208201111561075b57600080fd5b803590602001918460018302840111600160201b8311171561077c57600080fd5b5090925090506119c3565b6040518083600260200280838360005b838110156107af578181015183820152602001610797565b505086519290940191825250915083905060808083836020610400565b3480156107d857600080fd5b506106b160048036036101c08110156107f057600080fd5b810190602081018135600160201b81111561080a57600080fd5b82018360208201111561081c57600080fd5b803590602001918460208302840111600160201b8311171561083d57600080fd5b91908080602002602001604051908101604052809392919081815260200183836020028082843760009201919091525050604080516080818101909252939695948181019493509150600490839083908082843760009201919091525050604080518082018252929594938181019392509060029083908390808284376000920191909152505060408051808201825292959493818101939250906002908390839080828437600092019190915250506040805160808181019092529295949381810193925090600490839083908082843760009201919091525091949392602081019250359050600160201b81111561093657600080fd5b82018360208201111561094857600080fd5b803590602001918460018302840111600160201b8311171561096957600080fd5b91908080601f016020809104026020016040519081016040528093929190818152602001838380828437600092019190915250929550611a64945050505050565b3480156109b657600080fd5b50610a25600480360360208110156109cd57600080fd5b810190602081018135600160201b8111156109e757600080fd5b8201836020820111156109f957600080fd5b803590602001918460018302840111600160201b83111715610a1a57600080fd5b509092509050611c42565b60405181518152808260808083836020610336565b348015610a4657600080fd5b506102a9600480360360a0811015610a5d57600080fd5b81359190810190604081016020820135600160201b811115610a7e57600080fd5b820183602082011115610a9057600080fd5b803590602001918460208302840111600160201b83111715610ab157600080fd5b919350915080359060208101359060400135611c89565b348015610ad457600080fd5b506101fc612178565b61016460048036036040811015610af357600080fd5b810190602081018135600160201b811115610b0d57600080fd5b820183602082011115610b1f57600080fd5b803590602001918460018302840111600160201b83111715610b4057600080fd5b9193509150356122ae565b348015610b5757600080fd5b506101646124c3565b348015610b6c57600080fd5b50610b756124c9565b6040805163ffffffff94851681529290931660208301528183015290519081900360600190f35b6002546000908210610be4576040805162461bcd60e51b815260206004820152600c60248201526b1259081b9bdd08199bdd5b9960a21b604482015290519081900360640190fd5b60028281548110610bf157fe5b90600052602060002090600802016006015490505b919050565b60075460ff1681565b6001546001600160a01b031681565b6002546060908210610c6b576040805162461bcd60e51b815260206004820152600c60248201526b1259081b9bdd08199bdd5b9960a21b604482015290519081900360640190fd5b60028281548110610c7857fe5b6000918252602091829020600360089092020101805460408051601f6002600019610100600187161502019094169390930492830185900485028101850190915281815292830182828015610d0e5780601f10610ce357610100808354040283529160200191610d0e565b820191906000526020600020905b815481529060010190602001808311610cf157829003601f168201915b50505050509050919050565b6000546001600160a01b031681565b348180821015610d6a5760405162461bcd60e51b81526004018080602001828103825260408152602001806145656040913960400191505060405180910390fd5b8360028181548110610d7857fe5b9060005260206000209060080201600301805460018160011615610100020316600290049050600014610dec576040805162461bcd60e51b815260206004820152601760248201527614995cdd5b1d08185b1c9958591e481a5b98db1d591959604a1b604482015290519081900360640190fd5b60028581548110610df957fe5b906000526020600020906008020160060154600014610e9f57833414610e505760405162461bcd60e51b815260040180806020018281038252604b81526020018061441e604b913960600191505060405180910390fd5b610e7860028681548110610e6057fe5b906000526020600020906008020160020154856124e4565b60028681548110610e8557fe5b906000526020600020906008020160020181905550610f1e565b610ec960028681548110610eaf57fe5b9060005260206000209060080201600101548534036124e4565b60028681548110610ed657fe5b906000526020600020906008020160010181905550610efb60028681548110610e6057fe5b60028681548110610f0857fe5b9060005260206000209060080201600201819055505b5050505050565b610f2d61421a565b610f6c83838080601f01602080910402602001604051908101604052809392919081815260200183838082843760009201919091525061253e92505050565b9392505050565b606081818167ffffffffffffffff81118015610f8e57600080fd5b50604051908082528060200260200182016040528015610fb8578160200160208202803683370190505b50905060005b82811015611220576000868683818110610fd457fe5b90506020020135905061118660028281548110610fed57fe5b60009182526020918290206040805160089390930290910180546002610100600183161581026000190190921604601f810186900490950284016101209081019093528301848152929390928492909184918401828280156110905780601f1061106557610100808354040283529160200191611090565b820191906000526020600020905b81548152906001019060200180831161107357829003601f168201915b505050505081526020016001820154815260200160028201548152602001600382018054600181600116156101000203166002900480601f0160208091040260200160405190810160405280929190818152602001828054600181600116156101000203166002900480156111465780601f1061111b57610100808354040283529160200191611146565b820191906000526020600020905b81548152906001019060200180831161112957829003601f168201915b50505091835250506004820154602082015260058201546040820152600682015460608201526007909101546001600160a01b03166080909101526125cc565b80156111b057506002818154811061119a57fe5b9060005260206000209060080201600601546000145b80156111bd575060025481105b80156111fb5750600281815481106111d157fe5b90600052602060002090600802016003018054600181600116156101000203166002900490506000145b83838151811061120757fe5b9115156020928302919091019091015250600101610fbe565b50949350505050565b6002818154811061123657fe5b60009182526020918290206008919091020180546040805160026001841615610100026000190190931692909204601f8101859004850283018501909152808252919350918391908301828280156112cf5780601f106112a4576101008083540402835291602001916112cf565b820191906000526020600020905b8154815290600101906020018083116112b257829003601f168201915b505050505090806001015490806002015490806003018054600181600116156101000203166002900480601f0160208091040260200160405190810160405280929190818152602001828054600181600116156101000203166002900480156113795780601f1061134e57610100808354040283529160200191611379565b820191906000526020600020905b81548152906001019060200180831161135c57829003601f168201915b50505050600483015460058401546006850154600790950154939491939092506001600160a01b031688565b87600281815481106113b357fe5b90600052602060002090600802016006015460001415611410576040805162461bcd60e51b81526020600482015260136024820152721114881b9bdd081e595d081a5b98db1d591959606a1b604482015290519081900360640190fd5b886002818154811061141e57fe5b9060005260206000209060080201600301805460018160011615610100020316600290049050600014611492576040805162461bcd60e51b815260206004820152601760248201527614995cdd5b1d08185b1c9958591e481a5b98db1d591959604a1b604482015290519081900360640190fd5b336114a460038263ffffffff61260a16565b6114f5576040805162461bcd60e51b815260206004820152601760248201527f4e6f742061206d656d626572206f662074686520414253000000000000000000604482015290519081900360640190fd5b8560028c8154811061150357fe5b90600052602060002090600802016005015411156115525760405162461bcd60e51b815260040180806020018281038252603c815260200180614469603c913960400191505060405180910390fd5b8560028c8154811061156057fe5b6000918252602090912060056008909202010155836115bf576040805162461bcd60e51b81526020600482015260166024820152750a4cae6ead8e840d0c2e640f4cae4de40d8cadccee8d60531b604482015290519081900360640190fd5b848460028d815481106115ce57fe5b906000526020600020906008020160030191906115ec929190614238565b5060006002808d815481106115fd57fe5b9060005260206000209060080201600601548787604051602001808481526020018383808284378083019250505093505050506040516020818303038152906040526040518082805190602001908083835b6020831061166e5780518252601f19909201916020918201910161164f565b51815160209384036101000a60001901801990921691161790526040519190930194509192505080830381855afa1580156116ad573d6000803e3d6000fd5b5050506040513d60208110156116c257600080fd5b810190808051906020019092919050505060001c9050600160009054906101000a90046001600160a01b03166001600160a01b031663565133898c8c8b8b8e876040518763ffffffff1660e01b815260040180806020018681526020018581526020018481526020018381526020018281038252888882818152602001925060200280828437600081840152601f19601f82011690508083019250505097505050505050505060206040518083038186803b15801561178057600080fd5b505afa158015611794573d6000803e3d6000fd5b505050506040513d60208110156117aa57600080fd5b50516117eb576040805162461bcd60e51b815260206004820152600b60248201526a496e76616c696420506f4960a81b604482015290519081900360640190fd5b336001600160a01b03166108fc60028e8154811061180557fe5b9060005260206000209060080201600201549081150290604051600060405180830381858888f19350505050158015611842573d6000803e3d6000fd5b50604080518d8152905133917f8d8b0475cd196102cef21d842139689bd3544d1bfd4065c8c9ca33e3de5f4a34919081900360200190a2505050505050505050505050565b438111156118c65760405162461bcd60e51b815260040180806020018281038252602e8152602001806145a5602e913960400191505060405180910390fd5b6118d760038263ffffffff61262f16565b50565b600080546001600160a01b03838116911614156118f957506001610c06565b506000919050565b600d81565b600254606090821061194e576040805162461bcd60e51b815260206004820152600c60248201526b1259081b9bdd08199bdd5b9960a21b604482015290519081900360640190fd5b6002828154811061195b57fe5b6000918252602091829020600890910201805460408051601f6002600019610100600187161502019094169390930492830185900485028101850190915281815292830182828015610d0e5780601f10610ce357610100808354040283529160200191610d0e565b6119cb61421a565b6119d36142b6565b604080518082018252611a5791889060029083908390808284376000920191909152505060408051608081810190925291508890600490839083908082843760009201919091525050604080516020601f8a01819004810282018101909252888152915088908890819084018382808284376000920191909152506126f992505050565b9150915094509492505050565b604080513360601b602082015281518082036014018152603490910190915260009085908390611a95908383612811565b611ade576040805162461bcd60e51b81526020600482015260156024820152744e6f7420612076616c6964207369676e617475726560581b604482015290519081900360640190fd5b87878787611aee848484846129b4565b611b31576040805162461bcd60e51b815260206004820152600f60248201526e4e6f7420612076616c696420506f4560881b604482015290519081900360640190fd5b60005b8d51811015611c2e57611b6060028f8381518110611b4e57fe5b602002602001015181548110610fed57fe5b611b9b5760405162461bcd60e51b815260040180806020018281038252603381526020018061450d6033913960400191505060405180910390fd5b3360028f8381518110611baa57fe5b602002602001015181548110611bbc57fe5b906000526020600020906008020160070160006101000a8154816001600160a01b0302191690836001600160a01b031602179055504360028f8381518110611c0057fe5b602002602001015181548110611c1257fe5b6000918252602090912060046008909202010155600101611b34565b5060019d9c50505050505050505050505050565b611c4a6142b6565b610f6c83838080601f016020809104026020016040519081016040528093929190818152602001838380828437600092019190915250612a8892505050565b8560028181548110611c9757fe5b906000526020600020906008020160060154600014611cf3576040805162461bcd60e51b8152602060048201526013602482015272111488185b1c9958591e481a5b98db1d591959606a1b604482015290519081900360640190fd5b611d0360028881548110610fed57fe5b15611d3f5760405162461bcd60e51b81526004018080602001828103825260258152602001806145406025913960400191505060405180910390fd5b8160028881548110611d4d57fe5b90600052602060002090600802016005015410611d9b5760405162461bcd60e51b81526004018080602001828103825260468152602001806144a56046913960600191505060405180910390fd5b8160028881548110611da957fe5b90600052602060002090600802016005018190555060006002808981548110611dce57fe5b90600052602060002090600802016000016040518082805460018160011615610100020316600290048015611e3a5780601f10611e18576101008083540402835291820191611e3a565b820191906000526020600020905b815481529060010190602001808311611e26575b5050915050602060405180830381855afa158015611e5c573d6000803e3d6000fd5b5050506040513d6020811015611e7157600080fd5b50519050600060028289898481611e8457fe5b9050602002013560405160200180838152602001828152602001925050506040516020818303038152906040526040518082805190602001908083835b60208310611ee05780518252601f199092019160209182019101611ec1565b51815160209384036101000a60001901801990921691161790526040519190930194509192505080830381855afa158015611f1f573d6000803e3d6000fd5b5050506040513d6020811015611f3457600080fd5b50516002805491925082918b908110611f4957fe5b906000526020600020906008020160060181905550600160009054906101000a90046001600160a01b03166001600160a01b0316635e717a1a898988888b886040518763ffffffff1660e01b815260040180806020018681526020018581526020018481526020018381526020018281038252888882818152602001925060200280828437600081840152601f19601f82011690508083019250505097505050505050505060206040518083038186803b15801561200657600080fd5b505afa15801561201a573d6000803e3d6000fd5b505050506040513d602081101561203057600080fd5b5051612071576040805162461bcd60e51b815260206004820152600b60248201526a496e76616c696420506f4960a81b604482015290519081900360640190fd5b6002898154811061207e57fe5b906000526020600020906008020160070160009054906101000a90046001600160a01b03166001600160a01b03166108fc60028b815481106120bc57fe5b9060005260206000209060080201600101549081150290604051600060405180830381858888f193505050501580156120f9573d6000803e3d6000fd5b5061213660028a8154811061210a57fe5b60009182526020909120600760089092020101546003906001600160a01b03164363ffffffff612b3a16565b50604080518a8152905133917f606da8983234a575e6a11bdee69d011116464a48c9fcaa18f1523046ac6b421e919081900360200190a2505050505050505050565b60015460408051631d30fdab60e31b815290516060926001600160a01b03169163e987ed58916004808301926000929190829003018186803b1580156121bd57600080fd5b505afa1580156121d1573d6000803e3d6000fd5b505050506040513d6000823e601f3d908101601f1916820160405260208110156121fa57600080fd5b8101908080516040519392919084600160201b82111561221957600080fd5b90830190602082018581111561222e57600080fd5b8251600160201b81118282018810171561224757600080fd5b82525081516020918201929091019080838360005b8381101561227457818101518382015260200161225c565b50505050905090810190601f1680156122a15780820380516001836020036101000a031916815260200191505b5060405250505090505b90565b60003482808210156122f15760405162461bcd60e51b81526004018080602001828103825260408152602001806145656040913960400191505060405180910390fd5b6002546122fc6142d4565b87878080601f01602080910402602001604051908101604052809392919081815260200183838082843760009201919091525050509082525061233f3487612cf3565b6020808301919091526040808301889052600154815163398bac6360e01b815291516001600160a01b039091169263398bac639260048082019391829003018186803b15801561238e57600080fd5b505afa1580156123a2573d6000803e3d6000fd5b505050506040513d60208110156123b857600080fd5b505160a0820152600280546001810182556000919091528151805183926008027f405787fa12a823e0f2b7631cc41b3ba8828b3321ca811111fa75cd3aa3bb5ace019161240a91839160200190614322565b50602082810151600183015560408301516002830155606083015180516124379260038501920190614322565b506080820151600482015560a0820151600582015560c0820151600682015560e090910151600790910180546001600160a01b039092166001600160a01b031990921691909117905560408051838152905133917f512c720a10f3b0e3dcf2b8c1eee461d5e2d0ec63f32ec487d83ea4632c5e9913919081900360200190a25092505b50509392505050565b60025490565b60055460065463ffffffff80831692600160201b9004169083565b600082820183811015610f6c576040805162461bcd60e51b815260206004820152601b60248201527f536166654d6174683a206164646974696f6e206f766572666c6f770000000000604482015290519081900360640190fd5b61254661421a565b815160211461259c576040805162461bcd60e51b815260206004820152601d60248201527f4d616c666f726d656420636f6d7072657373656420454320706f696e74000000604482015290519081900360640190fd5b6001820151602183015160006125b28383612d35565b604080518082019091529283526020830152509392505050565b60008160800151600014806125e75750600d82608001514303115b80156125f5575060c0820151155b80156126045750606082015151155b92915050565b6001600160a01b03166000908152600191909101602052604090205461ffff16151590565b808260030154808210156126745760405162461bcd60e51b81526004018080602001828103825260378152602001806143e76037913960400191505060405180910390fd5b60008060006126838787612d4c565b925060ff16925060ff16925061269b87848484612d97565b6126ec576040805162461bcd60e51b815260206004820152601e60248201527f546865204142532077617320616c726561647920757020746f20646174650000604482015290519081900360640190fd5b5050505060039092015550565b61270161421a565b6127096142b6565b61271161421a565b61271b8685612ddd565b60208084019190915290825260608601516040870151885192890151600093849361278c9390927f79be667ef9dcbbac55a06295ce870b07029bfcdb2dce28d959f2815b16f81798927f483ada7726a3c4655da4fbfc0e1108a8fd17b448a68554199c47d08ffb10d4b8929161307d565b6060890151855192945090925060009182916127b0918760015b60200201516130d1565b60408b01518b5192945090925060009182916127ce918d60016127a6565b6040805180820182529889526020808a01989098528051608081018252968752968601949094529484019490945250606082015291989197509095505050505050565b6020810151604082015160608301516000929190831a7f7fffffffffffffffffffffffffffffff5d576e7357a4501ddfe92f46681b20a082111561285b5760009350505050610f6c565b60ff81161580159061287157508060ff16600114155b156128825760009350505050610f6c565b80601c03905060006002886040518082805190602001908083835b602083106128bc5780518252601f19909201916020918201910161289d565b51815160209384036101000a60001901801990921691161790526040519190930194509192505080830381855afa1580156128fb573d6000803e3d6000fd5b5050506040513d602081101561291057600080fd5b50518751602089015191925060009161292991906130f4565b9050806001600160a01b031660018385888860405160008152602001604052604051808581526020018460ff1660ff1681526020018381526020018281526020019450505050506020604051602081039080840390855afa158015612992573d6000803e3d6000fd5b505050602060405103516001600160a01b031614955050505050509392505050565b6000848484846129ce83856129c7612178565b8585613129565b612a11576040805162461bcd60e51b815260206004820152600f60248201526e2737ba1030903b30b634b2102b292360891b604482015290519081900360640190fd5b885160208a0151600091612a2491613240565b60075460055491925060ff1663ffffffff9091161015612a48576001955050612a7c565b60075460055460ff9091169063ffffffff1660001981612a6457fe5b04028111612a76576001955050612a7c565b60009550505b50505050949350505050565b612a906142b6565b8151605114612adc576040805162461bcd60e51b815260206004820152601360248201527226b0b63337b936b2b2102b292310383937b7b360691b604482015290519081900360640190fd5b60018201516021830151603184015160518501516000612afc8585612d35565b6040805160808101825295865260208601919091526fffffffffffffffffffffffffffffffff90931692840192909252606083015250915050919050565b600081846003015480821015612b815760405162461bcd60e51b81526004018080602001828103825260378152602001806143e76037913960400191505060405180910390fd5b6000806000612b908988612d4c565b925060ff16925060ff169250612ba889848484612d97565b15612bb95760038901879055612c36565b61ffff8316600090815260208a90526040812054905b81811015612c335761ffff8516600090815260208c90526040902080546001600160a01b038c16919083908110612c0257fe5b6000918252602090912001546001600160a01b03161415612c2b576000975050505050506124ba565b600101612bcf565b50505b61ffff838116600090815260208b815260408083208054600180820183559185528385200180546001600160a01b0319166001600160a01b038f1690811790915584528d0190915290205416612cb457600289018054600163ffffffff600160201b808404821692909201160267ffffffff00000000199091161790555b5050506001600160a01b038516600090815260018088016020526040909120805461ffff80821684011661ffff19909116179055925050509392505050565b6000610f6c83836040518060400160405280601e81526020017f536166654d6174683a207375627472616374696f6e206f766572666c6f77000081525061336a565b6000610f6c8383600060076401000003d019613401565b60008080806064600886040690506000606460ff16600860ff16886003015481612d7257fe5b0481612d7a57fe5b600389015493965006935050610320908503101590509250925092565b60008115612daf57612daa8584856134c3565b612dd1565b8261ffff168461ffff1614612dc957612daa8585856134c3565b506000612dd5565b5060015b949350505050565b600080606060fe6001612dfd878560200201518860016020020151613527565b86604051602001808560ff1660ff1660f81b81526001018460ff1660ff1660f81b815260010183805190602001908083835b60208310612e4e5780518252601f199092019160209182019101612e2f565b51815160209384036101000a600019018019909216911617905285519190930192850191508083835b60208310612e965780518252601f199092019160209182019101612e77565b6001836020036101000a038019825116818451168082178552505050505050905001945050505050604051602081830303815290604052905060008090505b6101008160ff161015613028576000600283836040516020018083805190602001908083835b60208310612f1a5780518252601f199092019160209182019101612efb565b6001836020036101000a0380198251168184511680821785525050505050509050018260ff1660ff1660f81b8152600101925050506040516020818303038152906040526040518082805190602001908083835b60208310612f8d5780518252601f199092019160209182019101612f6e565b51815160209384036101000a60001901801990921691161790526040519190930194509192505080830381855afa158015612fcc573d6000803e3d6000fd5b5050506040513d6020811015612fe157600080fd5b50519050806000612ff3600283612d35565b905061300a8282600060076401000003d019613565565b1561301d57909550935061307692505050565b505050600101612ed5565b506040805162461bcd60e51b815260206004820152601860248201527f4e6f2076616c696420706f696e742077617320666f756e640000000000000000604482015290519081900360640190fd5b9250929050565b60008060008061308e8a8a8a6130d1565b915091506000806130a08989896130d1565b915091506000806130bc8686868660006401000003d0196135f8565b909f909e509c50505050505050505050505050565b6000806130e885858560006401000003d01961362c565b91509150935093915050565b60408051602080820194909452808201929092528051808303820181526060909201905280519101206001600160a01b031690565b600061313361421a565b61313d8786612ddd565b6020808401919091529082526060870151604088015189518a8401518851948901516131699590613666565b158061319557506060860151815160208301518551613193939291908760015b602002015161375d565b155b806131bb575060408087015187516020890151928601516131b99390876003613189565b155b156131ca576000915050613237565b825160208401516040850151606086015160009384936131f6939192909190856401000003d0196135f8565b84516020808701518c518d8301518c51938d0151969850949650600095613224959293919291908989613815565b60408a015160809190911c149450505050505b95945050505050565b6000606060fe60036132528686613527565b604051602001808460ff1660ff1660f81b81526001018360ff1660ff1660f81b815260010182805190602001908083835b602083106132a25780518252601f199092019160209182019101613283565b6001836020036101000a038019825116818451168082178552505050505050905001935050505060405160208183030381529060405290506002816040518082805190602001908083835b6020831061330c5780518252601f1990920191602091820191016132ed565b51815160209384036101000a60001901801990921691161790526040519190930194509192505080830381855afa15801561334b573d6000803e3d6000fd5b5050506040513d602081101561336057600080fd5b5051949350505050565b600081848411156133f95760405162461bcd60e51b81526004018080602001828103825283818151815260200191508051906020019080838360005b838110156133be5781810151838201526020016133a6565b50505050905090810190601f1680156133eb5780820380516001836020036101000a031916815260200191505b509250505060405180910390fd5b505050900390565b60008560ff166002148061341857508560ff166003145b6134535760405162461bcd60e51b81526004018080602001828103825260228152602001806144eb6022913960400191505060405180910390fd5b6000828061345d57fe5b838061346557fe5b85858061346e57fe5b888a0908848061347a57fe5b858061348257fe5b898a09890908905061349b816004600186010485613a47565b90506000600260ff8916830106156134b5578184036134b7565b815b98975050505050505050565b60646001820161ffff16065b8261ffff168161ffff16146134fa576134e88482613b03565b606461ffff60018301160690506134cf565b506135058383613b03565b50506002018054600160201b810463ffffffff1663ffffffff19909116179055565b604080516001600160f81b0319600190931660020160f81b929092166020830152602180830193909352805180830390930183526041909101905290565b600085158061357357508186145b8061357c575084155b8061358657508185145b1561359357506000613237565b6000828061359d57fe5b8687099050600083806135ac57fe5b8885806135b557fe5b8a8b0909905085156135d95783806135c957fe5b84806135d157fe5b878a09820890505b84156135ed5783806135e757fe5b85820890505b149695505050505050565b600080600080613609888887613b8a565b9150915061361b8a8a84848a8a613ba6565b935093505050965096945050505050565b60008060008060006136438a8a8a60018b8b613c05565b92509250925061365583838389613cb7565b945094505050509550959350505050565b600070014551231950b75fc4402da1732fc9bebe1987810381900690868209905070014551231950b75fc4402da1732fc9bebe198781030660006001838882166136b157601b6136b4565b601c5b8a70014551231950b75fc4402da1732fc9bebe198c870960001b60405160008152602001604052604051808581526020018460ff1660ff1681526020018381526020018281526020019450505050506020604051602081039080840390855afa158015613725573d6000803e3d6000fd5b505050602060405103519050806001600160a01b031661374587876130f4565b6001600160a01b0316149a9950505050505050505050565b6000806001816002870661377257601b613775565b601c5b8870014551231950b75fc4402da1732fc9bebe198a8c09604080516000815260208082018084529690965260ff90941684820152606084019290925260808301525160a08083019392601f198301929081900390910190855afa1580156137e0573d6000803e3d6000fd5b505050602060405103519050806001600160a01b031661380085856130f4565b6001600160a01b031614979650505050505050565b6000606060fe60026138278c8c613527565b6138318b8b613527565b61383b8a8a613527565b6138458989613527565b604051602001808760ff1660ff1660f81b81526001018660ff1660ff1660f81b815260010185805190602001908083835b602083106138955780518252601f199092019160209182019101613876565b51815160209384036101000a600019018019909216911617905287519190930192870191508083835b602083106138dd5780518252601f1990920191602091820191016138be565b51815160209384036101000a600019018019909216911617905286519190930192860191508083835b602083106139255780518252601f199092019160209182019101613906565b51815160209384036101000a600019018019909216911617905285519190930192850191508083835b6020831061396d5780518252601f19909201916020918201910161394e565b6001836020036101000a0380198251168184511680821785525050505050509050019650505050505050604051602081830303815290604052905060006002826040518082805190602001908083835b602083106139dc5780518252601f1990920191602091820191016139bd565b51815160209384036101000a60001901801990921691161790526040519190930194509192505080830381855afa158015613a1b573d6000803e3d6000fd5b5050506040513d6020811015613a3057600080fd5b50516040518190529b9a5050505050505050505050565b600081613a8d576040805162461bcd60e51b815260206004820152600f60248201526e4d6f64756c7573206973207a65726f60881b604482015290519081900360640190fd5b83613a9a57506000610f6c565b82613aa757506001610f6c565b6001600160ff1b5b801561122057838186161515870a85848509099150836002820486161515870a85848509099150836004820486161515870a85848509099150836008820486161515870a8584850909915060109004613aaf565b61ffff8116600090815260208390526040812054905b81811015613b685761ffff831660009081526020859052604090208054613b6091869184908110613b4657fe5b6000918252602090912001546001600160a01b0316613d0e565b600101613b19565b5061ffff82166000908152602084905260408120613b8591614390565b505050565b600080848385850381613b9957fe5b0691509150935093915050565b6000808080808a891415613bce57613bc28b8b60018a8a613de1565b91945092509050613be7565b613bdf8b8b60018c8c60018c613f13565b919450925090505b613bf383838389613cb7565b94509450505050965096945050505050565b6000808088613c126143ae565b898152602081018990526040810188905260008060018d613c3c5791965094509250613cab915050565b8415613ca1576001851615613c7157835160208501516040860151613c699286928692869291908f613f13565b919450925090505b835160208501516040860151600290970496613c909291908d8d613de1565b604087015260208601528452613c3c565b9196509450925050505b96509650969350505050565b6000806000613cc6858561416c565b905060008480613cd257fe5b828309905060008580613ce157fe5b828a09905060008680613cf057fe5b8780613cf857fe5b8486098a09919a91995090975050505050505050565b613d18828261260a565b613d535760405162461bcd60e51b815260040180806020018281038252602e8152602001806145d3602e913960400191505060405180910390fd5b6001600160a01b03811660009081526001830160205260409020805461ffff19811661ffff918216600019018216179182905516613ddd576001600160a01b03811660009081526001830160205260409020805461ffff1916905560028201805460001963ffffffff600160201b808404821692909201160267ffffffff00000000199091161790555b5050565b6000808085613df7575086915085905084613f08565b613dff6143ae565b8480613e0757fe5b898a0981528480613e1457fe5b88890960208201528480613e2457fe5b878809604082015260008580613e3657fe5b8680613e3e57fe5b60208401518c09600409905060008680613e5457fe5b8780613e5c57fe5b8880613e6457fe5b604086015180098a098880613e7557fe5b855160030908905060008780613e8757fe5b8880613e8f57fe5b84850889038980613e9c57fe5b84850908905060008880613eac57fe5b8980613eb457fe5b8a80613ebc57fe5b602088015180096008098a038a80613ed057fe5b8b80613ed857fe5b858d038808860908905060008980613eec57fe5b8a80613ef457fe5b8d8f09600209929850909650909450505050505b955095509592505050565b6000808089158015613f23575088155b15613f3557508591508490508361415f565b86158015613f41575085155b15613f5357508891508790508661415f565b613f5b6142b6565b8480613f6357fe5b898a0981528480613f7057fe5b81518a0960208201528480613f8157fe5b86870960408201528480613f9157fe5b6040820151870960608201526040805160808101909152808680613fb157fe5b60408401518e0981526020018680613fc557fe5b60608401518d0981526020018680613fd957fe5b83518b0981526020018680613fea57fe5b60208401518a09905260408101518151919250141561403f576040805162461bcd60e51b815260206004820152600c60248201526b496e76616c6964206461746160a01b604482015290519081900360640190fd5b6140476142b6565b858061404f57fe5b8251604084015190880390088152858061406557fe5b6020830151606084015190880390086020820152858061408157fe5b815180096040820152858061409257fe5b81516040830151096060820152600086806140a957fe5b6060830151880388806140b857fe5b6020850151800908905086806140ca57fe5b87806140d257fe5b88806140da57fe5b6040850151865109600209880382089050600087806140f557fe5b88806140fd57fe5b838a038a8061410857fe5b6040870151885109086020850151099050878061412157fe5b888061412957fe5b60608501516020870151098903820890506000888061414457fe5b898061414c57fe5b8b8f098551099297509095509093505050505b9750975097945050505050565b6000821580159061417d5750818314155b801561418857508115155b6141ca576040805162461bcd60e51b815260206004820152600e60248201526d24b73b30b634b210373ab6b132b960911b604482015290519081900360640190fd5b600060018385835b811561420e578183816141e157fe5b0490508387806141ed57fe5b88806141f557fe5b86840989038708909550935090918183029003906141d2565b50929695505050505050565b60405180604001604052806002906020820280368337509192915050565b828054600181600116156101000203166002900490600052602060002090601f016020900481019282601f106142795782800160ff198235161785556142a6565b828001600101855582156142a6579182015b828111156142a657823582559160200191906001019061428b565b506142b29291506143cc565b5090565b60405180608001604052806004906020820280368337509192915050565b6040518061010001604052806060815260200160008152602001600081526020016060815260200160008152602001600081526020016000815260200160006001600160a01b031681525090565b828054600181600116156101000203166002900490600052602060002090601f016020900481019282601f1061436357805160ff19168380011785556142a6565b828001600101855582156142a6579182015b828111156142a6578251825591602001919060010190614375565b50805460008255906000526020600020908101906118d791906143cc565b60405180606001604052806003906020820280368337509192915050565b6122ab91905b808211156142b257600081556001016143d256fe5468652070726f766964656420626c6f636b206973206f6c646572207468616e20746865206c617374207570646174656420626c6f636b54786e2076616c75652073686f756c6420657175616c20726573756c742072657761726420617267756d656e742028726571756573742072657761726420616c726561647920706169642954686520726573756c742063616e6e6f74206265207265706f72746564206265666f726520746865207265717565737420697320696e636c75646564546865207265717565737420696e636c7573696f6e206d757374206265207265706f7274656420616674657220697420697320706f7374656420696e746f2074686520575242496e76616c696420636f6d7072657373656420454320706f696e74207072656669784f6e65206f6620746865206c697374656420646174612072657175657374732077617320616c726561647920636c61696d656444617461205265717565737420686173206e6f7420796574206265656e20636c61696d65645472616e73616374696f6e2076616c7565206e6565647320746f20626520657175616c206f722067726561746572207468616e2074616c6c79207265776172645468652070726f766964656420626c6f636b206e756d62657220686173206e6f74206265656e2072656163686564546865206964656e74697479206164647265737320697320616c7265616479206f7574206f662074686520415253a2646970667358221220dd255b16364b0d042ec1f5c7856690c621333dc8d0b6ddef096dc7964e55768664736f6c63430006080033",
  "immutableReferences": {},
  "source": "// SPDX-License-Identifier: MIT\n\npragma solidity 0.6.8;\n\nimport \"@openzeppelin/contracts/math/SafeMath.sol\";\nimport \"vrf-solidity/contracts/VRF.sol\";\nimport \"./ActiveBridgeSetLib.sol\";\nimport \"witnet-ethereum-block-relay/contracts/BlockRelayProxy.sol\";\nimport \"./WitnetRequestsBoardInterface.sol\";\n\n\n/**\n * @title Witnet Requests Board\n * @notice Contract to bridge requests to Witnet.\n * @dev This contract enables posting requests that Witnet bridges will insert into the Witnet network.\n * The result of the requests will be posted back to this contract by the bridge nodes too.\n * @author Witnet Foundation\n */\ncontract WitnetRequestsBoard is WitnetRequestsBoardInterface {\n\n  using ActiveBridgeSetLib for ActiveBridgeSetLib.ActiveBridgeSet;\n\n  // Expiration period after which a Witnet Request can be claimed again\n  uint256 public constant CLAIM_EXPIRATION = 13;\n\n  struct DataRequest {\n    bytes dr;\n    uint256 inclusionReward;\n    uint256 tallyReward;\n    bytes result;\n    // Block number at which the DR was claimed for the last time\n    uint256 blockNumber;\n    // The epoch of the block including the last transaction related to the dr\n    // (postDataRequest, reportDataRequestInclusion, reportResult)\n    uint256 epoch;\n    uint256 drHash;\n    address payable pkhClaim;\n  }\n\n  // Owner of the Witnet Request Board\n  address public witnet;\n\n  // Block Relay proxy prividing verification functions\n  BlockRelayProxy public blockRelay;\n\n  // Witnet Requests within the board\n  DataRequest[] public requests;\n\n  // Set of recently active bridges\n  ActiveBridgeSetLib.ActiveBridgeSet public abs;\n\n  // Replication factor for Active Bridge Set identities\n  uint8 public repFactor;\n\n  // Event emitted when a new DR is posted\n  event PostedRequest(address indexed _from, uint256 _id);\n\n  // Event emitted when a DR inclusion proof is posted\n  event IncludedRequest(address indexed _from, uint256 _id);\n\n  // Event emitted when a result proof is posted\n  event PostedResult(address indexed _from, uint256 _id);\n\n  // Ensures the reward is not greater than the value\n  modifier payingEnough(uint256 _value, uint256 _tally) {\n    require(_value >= _tally, \"Transaction value needs to be equal or greater than tally reward\");\n    _;\n  }\n\n  // Ensures the poe is valid\n  modifier poeValid(\n    uint256[4] memory _poe,\n    uint256[2] memory _publicKey,\n    uint256[2] memory _uPoint,\n    uint256[4] memory _vPointHelpers) {\n    require(\n      verifyPoe(\n        _poe,\n        _publicKey,\n        _uPoint,\n        _vPointHelpers),\n      \"Not a valid PoE\");\n    _;\n  }\n\n  // Ensures signature (sign(msg.sender)) is valid\n  modifier validSignature(\n    uint256[2] memory _publicKey,\n    bytes memory addrSignature) {\n    require(verifySig(abi.encodePacked(msg.sender), _publicKey, addrSignature), \"Not a valid signature\");\n    _;\n  }\n\n  // Ensures the DR inclusion proof has not been reported yet\n  modifier drNotIncluded(uint256 _id) {\n    require(requests[_id].drHash == 0, \"DR already included\");\n    _;\n  }\n\n  // Ensures the DR inclusion has been already reported\n  modifier drIncluded(uint256 _id) {\n    require(requests[_id].drHash != 0, \"DR not yet included\");\n    _;\n  }\n\n  // Ensures the result has not been reported yet\n  modifier resultNotIncluded(uint256 _id) {\n    require(requests[_id].result.length == 0, \"Result already included\");\n    _;\n  }\n\n// Ensures the VRF is valid\n  modifier vrfValid(\n    uint256[4] memory _poe,\n    uint256[2] memory _publicKey,\n    uint256[2] memory _uPoint,\n    uint256[4] memory _vPointHelpers) virtual {\n    require(\n      VRF.fastVerify(\n        _publicKey,\n        _poe,\n        getLastBeacon(),\n        _uPoint,\n        _vPointHelpers),\n      \"Not a valid VRF\");\n    _;\n  }\n  // Ensures the address belongs to the active bridge set\n  modifier absMember(address _address) {\n    require(abs.absMembership(_address), \"Not a member of the ABS\");\n    _;\n  }\n\n /**\n  * @notice Include an address to specify the Witnet Block Relay and a replication factor.\n  * @param _blockRelayAddress BlockRelayProxy address.\n  * @param _repFactor replication factor.\n  */\n  constructor(address _blockRelayAddress, uint8 _repFactor) public {\n    blockRelay = BlockRelayProxy(_blockRelayAddress);\n    witnet = msg.sender;\n\n    // Insert an empty request so as to initialize the requests array with length > 0\n    DataRequest memory request;\n    requests.push(request);\n    repFactor = _repFactor;\n  }\n\n  /// @dev Posts a data request into the WRB in expectation that it will be relayed and resolved in Witnet with a total reward that equals to msg.value.\n  /// @param _serialized The bytes corresponding to the Protocol Buffers serialization of the data request output.\n  /// @param _tallyReward The amount of value that will be detracted from the transaction value and reserved for rewarding the reporting of the final result (aka tally) of the data request.\n  /// @return The unique identifier of the data request.\n  function postDataRequest(bytes calldata _serialized, uint256 _tallyReward)\n    external\n    payable\n    payingEnough(msg.value, _tallyReward)\n    override\n  returns(uint256)\n  {\n    // The initial length of the `requests` array will become the ID of the request for everything related to the WRB\n    uint256 id = requests.length;\n\n    // Create a new `DataRequest` object and initialize all the non-default fields\n    DataRequest memory request;\n    request.dr = _serialized;\n    request.inclusionReward = SafeMath.sub(msg.value, _tallyReward);\n    request.tallyReward = _tallyReward;\n    request.epoch = blockRelay.getLastEpoch();\n\n    // Push the new request into the contract state\n    requests.push(request);\n\n    // Let observers know that a new request has been posted\n    emit PostedRequest(msg.sender, id);\n\n    return id;\n  }\n\n  /// @dev Increments the rewards of a data request by adding more value to it. The new request reward will be increased by msg.value minus the difference between the former tally reward and the new tally reward.\n  /// @param _id The unique identifier of the data request.\n  /// @param _tallyReward The new tally reward. Needs to be equal or greater than the former tally reward.\n  function upgradeDataRequest(uint256 _id, uint256 _tallyReward)\n    external\n    payable\n    payingEnough(msg.value, _tallyReward)\n    resultNotIncluded(_id)\n    override\n  {\n    if (requests[_id].drHash != 0) {\n      require(\n        msg.value == _tallyReward,\n        \"Txn value should equal result reward argument (request reward already paid)\"\n      );\n      requests[_id].tallyReward = SafeMath.add(requests[_id].tallyReward, _tallyReward);\n    } else {\n      requests[_id].inclusionReward = SafeMath.add(requests[_id].inclusionReward, msg.value - _tallyReward);\n      requests[_id].tallyReward = SafeMath.add(requests[_id].tallyReward, _tallyReward);\n    }\n  }\n\n  /// @dev Checks if the data requests from a list are claimable or not.\n  /// @param _ids The list of data request identifiers to be checked.\n  /// @return An array of booleans indicating if data requests are claimable or not.\n  function checkDataRequestsClaimability(uint256[] calldata _ids) external view returns (bool[] memory) {\n    uint256 idsLength = _ids.length;\n    bool[] memory validIds = new bool[](idsLength);\n    for (uint i = 0; i < idsLength; i++) {\n      uint256 index = _ids[i];\n      validIds[i] = (dataRequestCanBeClaimed(requests[index])) &&\n        requests[index].drHash == 0 &&\n        index < requests.length &&\n        requests[index].result.length == 0;\n    }\n\n    return validIds;\n  }\n\n  /// @dev Presents a proof of inclusion to prove that the request was posted into Witnet so as to unlock the inclusion reward that was put aside for the claiming identity (public key hash).\n  /// @param _id The unique identifier of the data request.\n  /// @param _poi A proof of inclusion proving that the data request appears listed in one recent block in Witnet.\n  /// @param _index The index in the merkle tree.\n  /// @param _blockHash The hash of the block in which the data request was inserted.\n  /// @param _epoch The epoch in which the blockHash was created.\n  function reportDataRequestInclusion(\n    uint256 _id,\n    uint256[] calldata _poi,\n    uint256 _index,\n    uint256 _blockHash,\n    uint256 _epoch)\n    external\n    drNotIncluded(_id)\n {\n    // Check the data request has been claimed\n    require(dataRequestCanBeClaimed(requests[_id]) == false, \"Data Request has not yet been claimed\");\n\n    // Ensures the request inclusion is reported after the epoch in which the request was posted\n    require(\n      requests[_id].epoch < _epoch,\n      \"The request inclusion must be reported after it is posted into the WRB\");\n    // Update the dr epoch\n    requests[_id].epoch = _epoch;\n\n    uint256 drOutputHash = uint256(sha256(requests[_id].dr));\n    uint256 drHash = uint256(sha256(abi.encodePacked(drOutputHash, _poi[0])));\n\n    // Update the state upon which this function depends before the external call\n    requests[_id].drHash = drHash;\n    require(\n      blockRelay.verifyDrPoi(\n      _poi,\n      _blockHash,\n      _epoch,\n      _index,\n      drOutputHash), \"Invalid PoI\");\n    requests[_id].pkhClaim.transfer(requests[_id].inclusionReward);\n    // Push requests[_id].pkhClaim to abs\n    abs.pushActivity(requests[_id].pkhClaim, block.number);\n    emit IncludedRequest(msg.sender, _id);\n  }\n\n  /// @dev Reports the result of a data request in Witnet.\n  /// @param _id The unique identifier of the data request.\n  /// @param _poi A proof of inclusion proving that the data in _result has been acknowledged by the Witnet network as being the final result for the data request by putting in a tally transaction inside a Witnet block.\n  /// @param _index The position of the tally transaction in the tallies-only merkle tree in the Witnet block.\n  /// @param _blockHash The hash of the block in which the result (tally) was inserted.\n  /// @param _epoch The epoch in which the blockHash was created.\n  /// @param _result The result itself as bytes.\n  function reportResult(\n    uint256 _id,\n    uint256[] calldata _poi,\n    uint256 _index,\n    uint256 _blockHash,\n    uint256 _epoch,\n    bytes calldata _result)\n    external\n    drIncluded(_id)\n    resultNotIncluded(_id)\n    absMember(msg.sender)\n {\n    // Ensures the result was published in a later block than the request\n    require(requests[_id].epoch <= _epoch, \"The result cannot be reported before the request is included\");\n    // Update epoch of the request\n    requests[_id].epoch = _epoch;\n\n    // Ensures the result byes do not have zero length\n    // This would not be a valid encoding with CBOR and could trigger a reentrancy attack\n    require(_result.length != 0, \"Result has zero length\");\n\n    // Update the state upon which this function depends before the external call\n    requests[_id].result = _result;\n\n    uint256 resHash = uint256(sha256(abi.encodePacked(requests[_id].drHash, _result)));\n    require(\n      blockRelay.verifyTallyPoi(\n      _poi,\n      _blockHash,\n      _epoch,\n      _index,\n      resHash), \"Invalid PoI\");\n    msg.sender.transfer(requests[_id].tallyReward);\n\n    emit PostedResult(msg.sender, _id);\n  }\n\n  /// @dev Retrieves the bytes of the serialization of one data request from the WRB.\n  /// @param _id The unique identifier of the data request.\n  /// @return The result of the data request as bytes.\n  function readDataRequest(uint256 _id) external view returns(bytes memory) {\n    require(requests.length > _id, \"Id not found\");\n    return requests[_id].dr;\n  }\n\n  /// @dev Retrieves the result (if already available) of one data request from the WRB.\n  /// @param _id The unique identifier of the data request.\n  /// @return The result of the DR\n  function readResult(uint256 _id) external view override returns(bytes memory) {\n    require(requests.length > _id, \"Id not found\");\n    return requests[_id].result;\n  }\n\n  /// @dev Retrieves hash of the data request transaction in Witnet.\n  /// @param _id The unique identifier of the data request.\n  /// @return The hash of the DataRequest transaction in Witnet.\n  function readDrHash(uint256 _id) external view override returns(uint256) {\n    require(requests.length > _id, \"Id not found\");\n    return requests[_id].drHash;\n  }\n\n  /// @dev Returns the number of data requests in the WRB.\n  /// @return the number of data requests in the WRB.\n  function requestsCount() external view returns(uint256) {\n    return requests.length;\n  }\n\n  /// @notice Wrapper around the decodeProof from VRF library.\n  /// @dev Decode VRF proof from bytes.\n  /// @param _proof The VRF proof as an array composed of `[gamma-x, gamma-y, c, s]`.\n  /// @return The VRF proof as an array composed of `[gamma-x, gamma-y, c, s]`.\n  function decodeProof(bytes calldata _proof) external pure returns (uint[4] memory) {\n    return VRF.decodeProof(_proof);\n  }\n\n  /// @notice Wrapper around the decodePoint from VRF library.\n  /// @dev Decode EC point from bytes.\n  /// @param _point The EC point as bytes.\n  /// @return The point as `[point-x, point-y]`.\n  function decodePoint(bytes calldata _point) external pure returns (uint[2] memory) {\n    return VRF.decodePoint(_point);\n  }\n\n  /// @dev Wrapper around the computeFastVerifyParams from VRF library.\n  /// @dev Compute the parameters (EC points) required for the VRF fast verification function..\n  /// @param _publicKey The public key as an array composed of `[pubKey-x, pubKey-y]`.\n  /// @param _proof The VRF proof as an array composed of `[gamma-x, gamma-y, c, s]`.\n  /// @param _message The message (in bytes) used for computing the VRF.\n  /// @return The fast verify required parameters as the tuple `([uPointX, uPointY], [sHX, sHY, cGammaX, cGammaY])`.\n  function computeFastVerifyParams(uint256[2] calldata _publicKey, uint256[4] calldata _proof, bytes calldata _message)\n    external pure returns (uint256[2] memory, uint256[4] memory)\n  {\n    return VRF.computeFastVerifyParams(_publicKey, _proof, _message);\n  }\n\n  /// @dev Updates the ABS activity with the block number provided.\n  /// @param _blockNumber update the ABS until this block number.\n  function updateAbsActivity(uint256 _blockNumber) external {\n    require (_blockNumber <= block.number, \"The provided block number has not been reached\");\n\n    abs.updateActivity(_blockNumber);\n  }\n\n  /// @dev Verifies if the contract is upgradable.\n  /// @return true if the contract upgradable.\n  function isUpgradable(address _address) external view override returns(bool) {\n    if (_address == witnet) {\n      return true;\n    }\n    return false;\n  }\n\n  /// @dev Claim drs to be posted to Witnet by the node.\n  /// @param _ids Data request ids to be claimed.\n  /// @param _poe PoE claiming eligibility.\n  /// @param _uPoint uPoint coordinates as [uPointX, uPointY] corresponding to U = s*B - c*Y.\n  /// @param _vPointHelpers helpers for calculating the V point as [(s*H)X, (s*H)Y, cGammaX, cGammaY]. V = s*H + cGamma.\n  function claimDataRequests(\n    uint256[] memory _ids,\n    uint256[4] memory _poe,\n    uint256[2] memory _publicKey,\n    uint256[2] memory _uPoint,\n    uint256[4] memory _vPointHelpers,\n    bytes memory addrSignature)\n    public\n    validSignature(_publicKey, addrSignature)\n    poeValid(_poe,_publicKey, _uPoint,_vPointHelpers)\n  returns(bool)\n  {\n    for (uint i = 0; i < _ids.length; i++) {\n      require(\n        dataRequestCanBeClaimed(requests[_ids[i]]),\n        \"One of the listed data requests was already claimed\"\n      );\n      requests[_ids[i]].pkhClaim = msg.sender;\n      requests[_ids[i]].blockNumber = block.number;\n    }\n    return true;\n  }\n\n  /// @dev Read the beacon of the last block inserted.\n  /// @return bytes to be signed by the node as PoE.\n  function getLastBeacon() public view virtual returns(bytes memory) {\n    return blockRelay.getLastBeacon();\n  }\n\n  /// @dev Claim drs to be posted to Witnet by the node.\n  /// @param _poe PoE claiming eligibility.\n  /// @param _publicKey The public key as an array composed of `[pubKey-x, pubKey-y]`.\n  /// @param _uPoint uPoint coordinates as [uPointX, uPointY] corresponding to U = s*B - c*Y.\n  /// @param _vPointHelpers helpers for calculating the V point as [(s*H)X, (s*H)Y, cGammaX, cGammaY]. V = s*H + cGamma.\n  function verifyPoe(\n    uint256[4] memory _poe,\n    uint256[2] memory _publicKey,\n    uint256[2] memory _uPoint,\n    uint256[4] memory _vPointHelpers)\n    internal\n    view\n    vrfValid(_poe,_publicKey, _uPoint,_vPointHelpers)\n  returns(bool)\n  {\n    uint256 vrf = uint256(VRF.gammaToHash(_poe[0], _poe[1]));\n    // True if vrf/(2^{256} -1) <= repFactor/abs.activeIdentities\n    if (abs.activeIdentities < repFactor) {\n      return true;\n    }\n    // We rewrote it as vrf <= ((2^{256} -1)/abs.activeIdentities)*repFactor to gain efficiency\n    if (vrf <= ((~uint256(0)/abs.activeIdentities)*repFactor)) {\n      return true;\n    }\n\n    return false;\n  }\n\n  /// @dev Verifies the validity of a signature.\n  /// @param _message message to be verified.\n  /// @param _publicKey public key of the signer as `[pubKey-x, pubKey-y]`.\n  /// @param _addrSignature the signature to verify asas r||s||v.\n  /// @return true or false depending the validity.\n  function verifySig(\n    bytes memory _message,\n    uint256[2] memory _publicKey,\n    bytes memory _addrSignature)\n    internal\n    pure\n  returns(bool)\n  {\n    bytes32 r;\n    bytes32 s;\n    uint8 v;\n    assembly {\n            r := mload(add(_addrSignature, 0x20))\n            s := mload(add(_addrSignature, 0x40))\n            v := byte(0, mload(add(_addrSignature, 0x60)))\n    }\n\n    if (uint256(s) > 0x7FFFFFFFFFFFFFFFFFFFFFFFFFFFFFFF5D576E7357A4501DDFE92F46681B20A0) {\n      return false;\n    }\n\n    if (v != 0 && v != 1) {\n      return false;\n    }\n    v = 28 - v;\n\n    bytes32 msgHash = sha256(_message);\n    address hashedKey = VRF.pointToAddress(_publicKey[0], _publicKey[1]);\n    return ecrecover(\n      msgHash,\n      v,\n      r,\n      s) == hashedKey;\n  }\n\n  function dataRequestCanBeClaimed(DataRequest memory _request) private view returns (bool) {\n    return\n      (_request.blockNumber == 0 || block.number - _request.blockNumber > CLAIM_EXPIRATION) &&\n      _request.drHash == 0 &&\n      _request.result.length == 0;\n  }\n\n}\n",
  "sourcePath": "/Users/sbacha/witnet-ethereum-bridge/contracts/WitnetRequestsBoard.sol",
  "compiler": {
    "name": "solc",
    "version": "0.6.8+commit.0bbfe453.Emscripten.clang"
  },
  "schemaVersion": "3.2.0",
  "updatedAt": "2020-06-12T08:08:15.500Z",
  "devdoc": {
    "author": "Witnet Foundation",
    "details": "This contract enables posting requests that Witnet bridges will insert into the Witnet network. The result of the requests will be posted back to this contract by the bridge nodes too.",
    "methods": {
      "checkDataRequestsClaimability(uint256[])": {
        "details": "Checks if the data requests from a list are claimable or not.",
        "params": {
          "_ids": "The list of data request identifiers to be checked."
        },
        "returns": {
          "_0": "An array of booleans indicating if data requests are claimable or not."
        }
      },
      "claimDataRequests(uint256[],uint256[4],uint256[2],uint256[2],uint256[4],bytes)": {
        "details": "Claim drs to be posted to Witnet by the node.",
        "params": {
          "_ids": "Data request ids to be claimed.",
          "_poe": "PoE claiming eligibility.",
          "_uPoint": "uPoint coordinates as [uPointX, uPointY] corresponding to U = s*B - c*Y.",
          "_vPointHelpers": "helpers for calculating the V point as [(s*H)X, (s*H)Y, cGammaX, cGammaY]. V = s*H + cGamma."
        }
      },
      "computeFastVerifyParams(uint256[2],uint256[4],bytes)": {
        "details": "Wrapper around the computeFastVerifyParams from VRF library.Compute the parameters (EC points) required for the VRF fast verification function..",
        "params": {
          "_message": "The message (in bytes) used for computing the VRF.",
          "_proof": "The VRF proof as an array composed of `[gamma-x, gamma-y, c, s]`.",
          "_publicKey": "The public key as an array composed of `[pubKey-x, pubKey-y]`."
        },
        "returns": {
          "_0": "The fast verify required parameters as the tuple `([uPointX, uPointY], [sHX, sHY, cGammaX, cGammaY])`."
        }
      },
      "constructor": {
        "params": {
          "_blockRelayAddress": "BlockRelayProxy address.",
          "_repFactor": "replication factor."
        }
      },
      "decodePoint(bytes)": {
        "details": "Decode EC point from bytes.",
        "params": {
          "_point": "The EC point as bytes."
        },
        "returns": {
          "_0": "The point as `[point-x, point-y]`."
        }
      },
      "decodeProof(bytes)": {
        "details": "Decode VRF proof from bytes.",
        "params": {
          "_proof": "The VRF proof as an array composed of `[gamma-x, gamma-y, c, s]`."
        },
        "returns": {
          "_0": "The VRF proof as an array composed of `[gamma-x, gamma-y, c, s]`."
        }
      },
      "getLastBeacon()": {
        "details": "Read the beacon of the last block inserted.",
        "returns": {
          "_0": "bytes to be signed by the node as PoE."
        }
      },
      "isUpgradable(address)": {
        "details": "Verifies if the contract is upgradable.",
        "returns": {
          "_0": "true if the contract upgradable."
        }
      },
      "postDataRequest(bytes,uint256)": {
        "details": "Posts a data request into the WRB in expectation that it will be relayed and resolved in Witnet with a total reward that equals to msg.value.",
        "params": {
          "_serialized": "The bytes corresponding to the Protocol Buffers serialization of the data request output.",
          "_tallyReward": "The amount of value that will be detracted from the transaction value and reserved for rewarding the reporting of the final result (aka tally) of the data request."
        },
        "returns": {
          "_0": "The unique identifier of the data request."
        }
      },
      "readDataRequest(uint256)": {
        "details": "Retrieves the bytes of the serialization of one data request from the WRB.",
        "params": {
          "_id": "The unique identifier of the data request."
        },
        "returns": {
          "_0": "The result of the data request as bytes."
        }
      },
      "readDrHash(uint256)": {
        "details": "Retrieves hash of the data request transaction in Witnet.",
        "params": {
          "_id": "The unique identifier of the data request."
        },
        "returns": {
          "_0": "The hash of the DataRequest transaction in Witnet."
        }
      },
      "readResult(uint256)": {
        "details": "Retrieves the result (if already available) of one data request from the WRB.",
        "params": {
          "_id": "The unique identifier of the data request."
        },
        "returns": {
          "_0": "The result of the DR"
        }
      },
      "reportDataRequestInclusion(uint256,uint256[],uint256,uint256,uint256)": {
        "details": "Presents a proof of inclusion to prove that the request was posted into Witnet so as to unlock the inclusion reward that was put aside for the claiming identity (public key hash).",
        "params": {
          "_blockHash": "The hash of the block in which the data request was inserted.",
          "_epoch": "The epoch in which the blockHash was created.",
          "_id": "The unique identifier of the data request.",
          "_index": "The index in the merkle tree.",
          "_poi": "A proof of inclusion proving that the data request appears listed in one recent block in Witnet."
        }
      },
      "reportResult(uint256,uint256[],uint256,uint256,uint256,bytes)": {
        "details": "Reports the result of a data request in Witnet.",
        "params": {
          "_blockHash": "The hash of the block in which the result (tally) was inserted.",
          "_epoch": "The epoch in which the blockHash was created.",
          "_id": "The unique identifier of the data request.",
          "_index": "The position of the tally transaction in the tallies-only merkle tree in the Witnet block.",
          "_poi": "A proof of inclusion proving that the data in _result has been acknowledged by the Witnet network as being the final result for the data request by putting in a tally transaction inside a Witnet block.",
          "_result": "The result itself as bytes."
        }
      },
      "requestsCount()": {
        "details": "Returns the number of data requests in the WRB.",
        "returns": {
          "_0": "the number of data requests in the WRB."
        }
      },
      "updateAbsActivity(uint256)": {
        "details": "Updates the ABS activity with the block number provided.",
        "params": {
          "_blockNumber": "update the ABS until this block number."
        }
      },
      "upgradeDataRequest(uint256,uint256)": {
        "details": "Increments the rewards of a data request by adding more value to it. The new request reward will be increased by msg.value minus the difference between the former tally reward and the new tally reward.",
        "params": {
          "_id": "The unique identifier of the data request.",
          "_tallyReward": "The new tally reward. Needs to be equal or greater than the former tally reward."
        }
      }
    },
    "title": "Witnet Requests Board"
  },
  "userdoc": {
    "methods": {
      "constructor": "Include an address to specify the Witnet Block Relay and a replication factor.",
      "decodePoint(bytes)": {
        "notice": "Wrapper around the decodePoint from VRF library."
      },
      "decodeProof(bytes)": {
        "notice": "Wrapper around the decodeProof from VRF library."
      }
    },
    "notice": "Contract to bridge requests to Witnet."
  }
}