{
  "contractName": "Witnet",
  "abi": [
    {
      "inputs": [
        {
          "internalType": "bytes",
          "name": "_cborBytes",
          "type": "bytes"
        }
      ],
      "name": "resultFromCborBytes",
      "outputs": [
        {
          "components": [
            {
              "internalType": "bool",
              "name": "success",
              "type": "bool"
            },
            {
              "components": [
                {
                  "components": [
                    {
                      "internalType": "bytes",
                      "name": "data",
                      "type": "bytes"
                    },
                    {
                      "internalType": "uint32",
                      "name": "cursor",
                      "type": "uint32"
                    }
                  ],
                  "internalType": "struct BufferLib.Buffer",
                  "name": "buffer",
                  "type": "tuple"
                },
                {
                  "internalType": "uint8",
                  "name": "initialByte",
                  "type": "uint8"
                },
                {
                  "internalType": "uint8",
                  "name": "majorType",
                  "type": "uint8"
                },
                {
                  "internalType": "uint8",
                  "name": "additionalInformation",
                  "type": "uint8"
                },
                {
                  "internalType": "uint64",
                  "name": "len",
                  "type": "uint64"
                },
                {
                  "internalType": "uint64",
                  "name": "tag",
                  "type": "uint64"
                }
              ],
              "internalType": "struct CBOR.Value",
              "name": "cborValue",
              "type": "tuple"
            }
          ],
          "internalType": "struct Witnet.Result",
          "name": "",
          "type": "tuple"
        }
      ],
      "stateMutability": "pure",
      "type": "function"
    },
    {
      "inputs": [
        {
          "components": [
            {
              "components": [
                {
                  "internalType": "bytes",
                  "name": "data",
                  "type": "bytes"
                },
                {
                  "internalType": "uint32",
                  "name": "cursor",
                  "type": "uint32"
                }
              ],
              "internalType": "struct BufferLib.Buffer",
              "name": "buffer",
              "type": "tuple"
            },
            {
              "internalType": "uint8",
              "name": "initialByte",
              "type": "uint8"
            },
            {
              "internalType": "uint8",
              "name": "majorType",
              "type": "uint8"
            },
            {
              "internalType": "uint8",
              "name": "additionalInformation",
              "type": "uint8"
            },
            {
              "internalType": "uint64",
              "name": "len",
              "type": "uint64"
            },
            {
              "internalType": "uint64",
              "name": "tag",
              "type": "uint64"
            }
          ],
          "internalType": "struct CBOR.Value",
          "name": "_cborValue",
          "type": "tuple"
        }
      ],
      "name": "resultFromCborValue",
      "outputs": [
        {
          "components": [
            {
              "internalType": "bool",
              "name": "success",
              "type": "bool"
            },
            {
              "components": [
                {
                  "components": [
                    {
                      "internalType": "bytes",
                      "name": "data",
                      "type": "bytes"
                    },
                    {
                      "internalType": "uint32",
                      "name": "cursor",
                      "type": "uint32"
                    }
                  ],
                  "internalType": "struct BufferLib.Buffer",
                  "name": "buffer",
                  "type": "tuple"
                },
                {
                  "internalType": "uint8",
                  "name": "initialByte",
                  "type": "uint8"
                },
                {
                  "internalType": "uint8",
                  "name": "majorType",
                  "type": "uint8"
                },
                {
                  "internalType": "uint8",
                  "name": "additionalInformation",
                  "type": "uint8"
                },
                {
                  "internalType": "uint64",
                  "name": "len",
                  "type": "uint64"
                },
                {
                  "internalType": "uint64",
                  "name": "tag",
                  "type": "uint64"
                }
              ],
              "internalType": "struct CBOR.Value",
              "name": "cborValue",
              "type": "tuple"
            }
          ],
          "internalType": "struct Witnet.Result",
          "name": "",
          "type": "tuple"
        }
      ],
      "stateMutability": "pure",
      "type": "function"
    },
    {
      "inputs": [
        {
          "components": [
            {
              "internalType": "bool",
              "name": "success",
              "type": "bool"
            },
            {
              "components": [
                {
                  "components": [
                    {
                      "internalType": "bytes",
                      "name": "data",
                      "type": "bytes"
                    },
                    {
                      "internalType": "uint32",
                      "name": "cursor",
                      "type": "uint32"
                    }
                  ],
                  "internalType": "struct BufferLib.Buffer",
                  "name": "buffer",
                  "type": "tuple"
                },
                {
                  "internalType": "uint8",
                  "name": "initialByte",
                  "type": "uint8"
                },
                {
                  "internalType": "uint8",
                  "name": "majorType",
                  "type": "uint8"
                },
                {
                  "internalType": "uint8",
                  "name": "additionalInformation",
                  "type": "uint8"
                },
                {
                  "internalType": "uint64",
                  "name": "len",
                  "type": "uint64"
                },
                {
                  "internalType": "uint64",
                  "name": "tag",
                  "type": "uint64"
                }
              ],
              "internalType": "struct CBOR.Value",
              "name": "cborValue",
              "type": "tuple"
            }
          ],
          "internalType": "struct Witnet.Result",
          "name": "_result",
          "type": "tuple"
        }
      ],
      "name": "isOk",
      "outputs": [
        {
          "internalType": "bool",
          "name": "",
          "type": "bool"
        }
      ],
      "stateMutability": "pure",
      "type": "function"
    },
    {
      "inputs": [
        {
          "components": [
            {
              "internalType": "bool",
              "name": "success",
              "type": "bool"
            },
            {
              "components": [
                {
                  "components": [
                    {
                      "internalType": "bytes",
                      "name": "data",
                      "type": "bytes"
                    },
                    {
                      "internalType": "uint32",
                      "name": "cursor",
                      "type": "uint32"
                    }
                  ],
                  "internalType": "struct BufferLib.Buffer",
                  "name": "buffer",
                  "type": "tuple"
                },
                {
                  "internalType": "uint8",
                  "name": "initialByte",
                  "type": "uint8"
                },
                {
                  "internalType": "uint8",
                  "name": "majorType",
                  "type": "uint8"
                },
                {
                  "internalType": "uint8",
                  "name": "additionalInformation",
                  "type": "uint8"
                },
                {
                  "internalType": "uint64",
                  "name": "len",
                  "type": "uint64"
                },
                {
                  "internalType": "uint64",
                  "name": "tag",
                  "type": "uint64"
                }
              ],
              "internalType": "struct CBOR.Value",
              "name": "cborValue",
              "type": "tuple"
            }
          ],
          "internalType": "struct Witnet.Result",
          "name": "_result",
          "type": "tuple"
        }
      ],
      "name": "isError",
      "outputs": [
        {
          "internalType": "bool",
          "name": "",
          "type": "bool"
        }
      ],
      "stateMutability": "pure",
      "type": "function"
    },
    {
      "inputs": [
        {
          "components": [
            {
              "internalType": "bool",
              "name": "success",
              "type": "bool"
            },
            {
              "components": [
                {
                  "components": [
                    {
                      "internalType": "bytes",
                      "name": "data",
                      "type": "bytes"
                    },
                    {
                      "internalType": "uint32",
                      "name": "cursor",
                      "type": "uint32"
                    }
                  ],
                  "internalType": "struct BufferLib.Buffer",
                  "name": "buffer",
                  "type": "tuple"
                },
                {
                  "internalType": "uint8",
                  "name": "initialByte",
                  "type": "uint8"
                },
                {
                  "internalType": "uint8",
                  "name": "majorType",
                  "type": "uint8"
                },
                {
                  "internalType": "uint8",
                  "name": "additionalInformation",
                  "type": "uint8"
                },
                {
                  "internalType": "uint64",
                  "name": "len",
                  "type": "uint64"
                },
                {
                  "internalType": "uint64",
                  "name": "tag",
                  "type": "uint64"
                }
              ],
              "internalType": "struct CBOR.Value",
              "name": "cborValue",
              "type": "tuple"
            }
          ],
          "internalType": "struct Witnet.Result",
          "name": "_result",
          "type": "tuple"
        }
      ],
      "name": "asBytes",
      "outputs": [
        {
          "internalType": "bytes",
          "name": "",
          "type": "bytes"
        }
      ],
      "stateMutability": "pure",
      "type": "function"
    },
    {
      "inputs": [
        {
          "components": [
            {
              "internalType": "bool",
              "name": "success",
              "type": "bool"
            },
            {
              "components": [
                {
                  "components": [
                    {
                      "internalType": "bytes",
                      "name": "data",
                      "type": "bytes"
                    },
                    {
                      "internalType": "uint32",
                      "name": "cursor",
                      "type": "uint32"
                    }
                  ],
                  "internalType": "struct BufferLib.Buffer",
                  "name": "buffer",
                  "type": "tuple"
                },
                {
                  "internalType": "uint8",
                  "name": "initialByte",
                  "type": "uint8"
                },
                {
                  "internalType": "uint8",
                  "name": "majorType",
                  "type": "uint8"
                },
                {
                  "internalType": "uint8",
                  "name": "additionalInformation",
                  "type": "uint8"
                },
                {
                  "internalType": "uint64",
                  "name": "len",
                  "type": "uint64"
                },
                {
                  "internalType": "uint64",
                  "name": "tag",
                  "type": "uint64"
                }
              ],
              "internalType": "struct CBOR.Value",
              "name": "cborValue",
              "type": "tuple"
            }
          ],
          "internalType": "struct Witnet.Result",
          "name": "_result",
          "type": "tuple"
        }
      ],
      "name": "asErrorCode",
      "outputs": [
        {
          "internalType": "enum Witnet.ErrorCodes",
          "name": "",
          "type": "Witnet.ErrorCodes"
        }
      ],
      "stateMutability": "pure",
      "type": "function"
    },
    {
      "inputs": [
        {
          "components": [
            {
              "internalType": "bool",
              "name": "success",
              "type": "bool"
            },
            {
              "components": [
                {
                  "components": [
                    {
                      "internalType": "bytes",
                      "name": "data",
                      "type": "bytes"
                    },
                    {
                      "internalType": "uint32",
                      "name": "cursor",
                      "type": "uint32"
                    }
                  ],
                  "internalType": "struct BufferLib.Buffer",
                  "name": "buffer",
                  "type": "tuple"
                },
                {
                  "internalType": "uint8",
                  "name": "initialByte",
                  "type": "uint8"
                },
                {
                  "internalType": "uint8",
                  "name": "majorType",
                  "type": "uint8"
                },
                {
                  "internalType": "uint8",
                  "name": "additionalInformation",
                  "type": "uint8"
                },
                {
                  "internalType": "uint64",
                  "name": "len",
                  "type": "uint64"
                },
                {
                  "internalType": "uint64",
                  "name": "tag",
                  "type": "uint64"
                }
              ],
              "internalType": "struct CBOR.Value",
              "name": "cborValue",
              "type": "tuple"
            }
          ],
          "internalType": "struct Witnet.Result",
          "name": "_result",
          "type": "tuple"
        }
      ],
      "name": "asErrorMessage",
      "outputs": [
        {
          "internalType": "enum Witnet.ErrorCodes",
          "name": "",
          "type": "Witnet.ErrorCodes"
        },
        {
          "internalType": "string",
          "name": "",
          "type": "string"
        }
      ],
      "stateMutability": "pure",
      "type": "function"
    },
    {
      "inputs": [
        {
          "components": [
            {
              "internalType": "bool",
              "name": "success",
              "type": "bool"
            },
            {
              "components": [
                {
                  "components": [
                    {
                      "internalType": "bytes",
                      "name": "data",
                      "type": "bytes"
                    },
                    {
                      "internalType": "uint32",
                      "name": "cursor",
                      "type": "uint32"
                    }
                  ],
                  "internalType": "struct BufferLib.Buffer",
                  "name": "buffer",
                  "type": "tuple"
                },
                {
                  "internalType": "uint8",
                  "name": "initialByte",
                  "type": "uint8"
                },
                {
                  "internalType": "uint8",
                  "name": "majorType",
                  "type": "uint8"
                },
                {
                  "internalType": "uint8",
                  "name": "additionalInformation",
                  "type": "uint8"
                },
                {
                  "internalType": "uint64",
                  "name": "len",
                  "type": "uint64"
                },
                {
                  "internalType": "uint64",
                  "name": "tag",
                  "type": "uint64"
                }
              ],
              "internalType": "struct CBOR.Value",
              "name": "cborValue",
              "type": "tuple"
            }
          ],
          "internalType": "struct Witnet.Result",
          "name": "_result",
          "type": "tuple"
        }
      ],
      "name": "asRawError",
      "outputs": [
        {
          "internalType": "uint64[]",
          "name": "",
          "type": "uint64[]"
        }
      ],
      "stateMutability": "pure",
      "type": "function"
    },
    {
      "inputs": [
        {
          "components": [
            {
              "internalType": "bool",
              "name": "success",
              "type": "bool"
            },
            {
              "components": [
                {
                  "components": [
                    {
                      "internalType": "bytes",
                      "name": "data",
                      "type": "bytes"
                    },
                    {
                      "internalType": "uint32",
                      "name": "cursor",
                      "type": "uint32"
                    }
                  ],
                  "internalType": "struct BufferLib.Buffer",
                  "name": "buffer",
                  "type": "tuple"
                },
                {
                  "internalType": "uint8",
                  "name": "initialByte",
                  "type": "uint8"
                },
                {
                  "internalType": "uint8",
                  "name": "majorType",
                  "type": "uint8"
                },
                {
                  "internalType": "uint8",
                  "name": "additionalInformation",
                  "type": "uint8"
                },
                {
                  "internalType": "uint64",
                  "name": "len",
                  "type": "uint64"
                },
                {
                  "internalType": "uint64",
                  "name": "tag",
                  "type": "uint64"
                }
              ],
              "internalType": "struct CBOR.Value",
              "name": "cborValue",
              "type": "tuple"
            }
          ],
          "internalType": "struct Witnet.Result",
          "name": "_result",
          "type": "tuple"
        }
      ],
      "name": "asFixed16",
      "outputs": [
        {
          "internalType": "int32",
          "name": "",
          "type": "int32"
        }
      ],
      "stateMutability": "pure",
      "type": "function"
    },
    {
      "inputs": [
        {
          "components": [
            {
              "internalType": "bool",
              "name": "success",
              "type": "bool"
            },
            {
              "components": [
                {
                  "components": [
                    {
                      "internalType": "bytes",
                      "name": "data",
                      "type": "bytes"
                    },
                    {
                      "internalType": "uint32",
                      "name": "cursor",
                      "type": "uint32"
                    }
                  ],
                  "internalType": "struct BufferLib.Buffer",
                  "name": "buffer",
                  "type": "tuple"
                },
                {
                  "internalType": "uint8",
                  "name": "initialByte",
                  "type": "uint8"
                },
                {
                  "internalType": "uint8",
                  "name": "majorType",
                  "type": "uint8"
                },
                {
                  "internalType": "uint8",
                  "name": "additionalInformation",
                  "type": "uint8"
                },
                {
                  "internalType": "uint64",
                  "name": "len",
                  "type": "uint64"
                },
                {
                  "internalType": "uint64",
                  "name": "tag",
                  "type": "uint64"
                }
              ],
              "internalType": "struct CBOR.Value",
              "name": "cborValue",
              "type": "tuple"
            }
          ],
          "internalType": "struct Witnet.Result",
          "name": "_result",
          "type": "tuple"
        }
      ],
      "name": "asFixed16Array",
      "outputs": [
        {
          "internalType": "int128[]",
          "name": "",
          "type": "int128[]"
        }
      ],
      "stateMutability": "pure",
      "type": "function"
    },
    {
      "inputs": [
        {
          "components": [
            {
              "internalType": "bool",
              "name": "success",
              "type": "bool"
            },
            {
              "components": [
                {
                  "components": [
                    {
                      "internalType": "bytes",
                      "name": "data",
                      "type": "bytes"
                    },
                    {
                      "internalType": "uint32",
                      "name": "cursor",
                      "type": "uint32"
                    }
                  ],
                  "internalType": "struct BufferLib.Buffer",
                  "name": "buffer",
                  "type": "tuple"
                },
                {
                  "internalType": "uint8",
                  "name": "initialByte",
                  "type": "uint8"
                },
                {
                  "internalType": "uint8",
                  "name": "majorType",
                  "type": "uint8"
                },
                {
                  "internalType": "uint8",
                  "name": "additionalInformation",
                  "type": "uint8"
                },
                {
                  "internalType": "uint64",
                  "name": "len",
                  "type": "uint64"
                },
                {
                  "internalType": "uint64",
                  "name": "tag",
                  "type": "uint64"
                }
              ],
              "internalType": "struct CBOR.Value",
              "name": "cborValue",
              "type": "tuple"
            }
          ],
          "internalType": "struct Witnet.Result",
          "name": "_result",
          "type": "tuple"
        }
      ],
      "name": "asInt128",
      "outputs": [
        {
          "internalType": "int128",
          "name": "",
          "type": "int128"
        }
      ],
      "stateMutability": "pure",
      "type": "function"
    },
    {
      "inputs": [
        {
          "components": [
            {
              "internalType": "bool",
              "name": "success",
              "type": "bool"
            },
            {
              "components": [
                {
                  "components": [
                    {
                      "internalType": "bytes",
                      "name": "data",
                      "type": "bytes"
                    },
                    {
                      "internalType": "uint32",
                      "name": "cursor",
                      "type": "uint32"
                    }
                  ],
                  "internalType": "struct BufferLib.Buffer",
                  "name": "buffer",
                  "type": "tuple"
                },
                {
                  "internalType": "uint8",
                  "name": "initialByte",
                  "type": "uint8"
                },
                {
                  "internalType": "uint8",
                  "name": "majorType",
                  "type": "uint8"
                },
                {
                  "internalType": "uint8",
                  "name": "additionalInformation",
                  "type": "uint8"
                },
                {
                  "internalType": "uint64",
                  "name": "len",
                  "type": "uint64"
                },
                {
                  "internalType": "uint64",
                  "name": "tag",
                  "type": "uint64"
                }
              ],
              "internalType": "struct CBOR.Value",
              "name": "cborValue",
              "type": "tuple"
            }
          ],
          "internalType": "struct Witnet.Result",
          "name": "_result",
          "type": "tuple"
        }
      ],
      "name": "asInt128Array",
      "outputs": [
        {
          "internalType": "int128[]",
          "name": "",
          "type": "int128[]"
        }
      ],
      "stateMutability": "pure",
      "type": "function"
    },
    {
      "inputs": [
        {
          "components": [
            {
              "internalType": "bool",
              "name": "success",
              "type": "bool"
            },
            {
              "components": [
                {
                  "components": [
                    {
                      "internalType": "bytes",
                      "name": "data",
                      "type": "bytes"
                    },
                    {
                      "internalType": "uint32",
                      "name": "cursor",
                      "type": "uint32"
                    }
                  ],
                  "internalType": "struct BufferLib.Buffer",
                  "name": "buffer",
                  "type": "tuple"
                },
                {
                  "internalType": "uint8",
                  "name": "initialByte",
                  "type": "uint8"
                },
                {
                  "internalType": "uint8",
                  "name": "majorType",
                  "type": "uint8"
                },
                {
                  "internalType": "uint8",
                  "name": "additionalInformation",
                  "type": "uint8"
                },
                {
                  "internalType": "uint64",
                  "name": "len",
                  "type": "uint64"
                },
                {
                  "internalType": "uint64",
                  "name": "tag",
                  "type": "uint64"
                }
              ],
              "internalType": "struct CBOR.Value",
              "name": "cborValue",
              "type": "tuple"
            }
          ],
          "internalType": "struct Witnet.Result",
          "name": "_result",
          "type": "tuple"
        }
      ],
      "name": "asString",
      "outputs": [
        {
          "internalType": "string",
          "name": "",
          "type": "string"
        }
      ],
      "stateMutability": "pure",
      "type": "function"
    },
    {
      "inputs": [
        {
          "components": [
            {
              "internalType": "bool",
              "name": "success",
              "type": "bool"
            },
            {
              "components": [
                {
                  "components": [
                    {
                      "internalType": "bytes",
                      "name": "data",
                      "type": "bytes"
                    },
                    {
                      "internalType": "uint32",
                      "name": "cursor",
                      "type": "uint32"
                    }
                  ],
                  "internalType": "struct BufferLib.Buffer",
                  "name": "buffer",
                  "type": "tuple"
                },
                {
                  "internalType": "uint8",
                  "name": "initialByte",
                  "type": "uint8"
                },
                {
                  "internalType": "uint8",
                  "name": "majorType",
                  "type": "uint8"
                },
                {
                  "internalType": "uint8",
                  "name": "additionalInformation",
                  "type": "uint8"
                },
                {
                  "internalType": "uint64",
                  "name": "len",
                  "type": "uint64"
                },
                {
                  "internalType": "uint64",
                  "name": "tag",
                  "type": "uint64"
                }
              ],
              "internalType": "struct CBOR.Value",
              "name": "cborValue",
              "type": "tuple"
            }
          ],
          "internalType": "struct Witnet.Result",
          "name": "_result",
          "type": "tuple"
        }
      ],
      "name": "asStringArray",
      "outputs": [
        {
          "internalType": "string[]",
          "name": "",
          "type": "string[]"
        }
      ],
      "stateMutability": "pure",
      "type": "function"
    },
    {
      "inputs": [
        {
          "components": [
            {
              "internalType": "bool",
              "name": "success",
              "type": "bool"
            },
            {
              "components": [
                {
                  "components": [
                    {
                      "internalType": "bytes",
                      "name": "data",
                      "type": "bytes"
                    },
                    {
                      "internalType": "uint32",
                      "name": "cursor",
                      "type": "uint32"
                    }
                  ],
                  "internalType": "struct BufferLib.Buffer",
                  "name": "buffer",
                  "type": "tuple"
                },
                {
                  "internalType": "uint8",
                  "name": "initialByte",
                  "type": "uint8"
                },
                {
                  "internalType": "uint8",
                  "name": "majorType",
                  "type": "uint8"
                },
                {
                  "internalType": "uint8",
                  "name": "additionalInformation",
                  "type": "uint8"
                },
                {
                  "internalType": "uint64",
                  "name": "len",
                  "type": "uint64"
                },
                {
                  "internalType": "uint64",
                  "name": "tag",
                  "type": "uint64"
                }
              ],
              "internalType": "struct CBOR.Value",
              "name": "cborValue",
              "type": "tuple"
            }
          ],
          "internalType": "struct Witnet.Result",
          "name": "_result",
          "type": "tuple"
        }
      ],
      "name": "asUint64",
      "outputs": [
        {
          "internalType": "uint64",
          "name": "",
          "type": "uint64"
        }
      ],
      "stateMutability": "pure",
      "type": "function"
    },
    {
      "inputs": [
        {
          "components": [
            {
              "internalType": "bool",
              "name": "success",
              "type": "bool"
            },
            {
              "components": [
                {
                  "components": [
                    {
                      "internalType": "bytes",
                      "name": "data",
                      "type": "bytes"
                    },
                    {
                      "internalType": "uint32",
                      "name": "cursor",
                      "type": "uint32"
                    }
                  ],
                  "internalType": "struct BufferLib.Buffer",
                  "name": "buffer",
                  "type": "tuple"
                },
                {
                  "internalType": "uint8",
                  "name": "initialByte",
                  "type": "uint8"
                },
                {
                  "internalType": "uint8",
                  "name": "majorType",
                  "type": "uint8"
                },
                {
                  "internalType": "uint8",
                  "name": "additionalInformation",
                  "type": "uint8"
                },
                {
                  "internalType": "uint64",
                  "name": "len",
                  "type": "uint64"
                },
                {
                  "internalType": "uint64",
                  "name": "tag",
                  "type": "uint64"
                }
              ],
              "internalType": "struct CBOR.Value",
              "name": "cborValue",
              "type": "tuple"
            }
          ],
          "internalType": "struct Witnet.Result",
          "name": "_result",
          "type": "tuple"
        }
      ],
      "name": "asUint64Array",
      "outputs": [
        {
          "internalType": "uint64[]",
          "name": "",
          "type": "uint64[]"
        }
      ],
      "stateMutability": "pure",
      "type": "function"
    },
    {
      "inputs": [
        {
          "internalType": "uint64",
          "name": "_stageIndex",
          "type": "uint64"
        }
      ],
      "name": "stageName",
      "outputs": [
        {
          "internalType": "string",
          "name": "",
          "type": "string"
        }
      ],
      "stateMutability": "pure",
      "type": "function"
    }
  ],
  "bytecode": "0x61277e610026600b82828239805160001a60731461001957fe5b30600052607381538281f3fe73000000000000000000000000000000000000000030146080604052600436106101155760003560e01c8063a1b90891116100ac578063d45d097d1161007b578063d45d097d1461027d578063d8868db61461029d578063e99e47f3146102bd578063f417daf5146102d0578063fc853c37146102e357610115565b8063a1b9089114610217578063a1d45d5614610237578063c71db5211461024a578063cb5371c01461026a57610115565b80636646c119116100e85780636646c119146101965780638233f9b3146101b65780638cc5eb54146101d65780639baae07f146101f757610115565b80630879730d1461011a57806308efc09714610143578063147e5c8f146101635780632d26b9e214610176575b600080fd5b61012d610128366004611751565b6102f6565b60405161013a9190612203565b60405180910390f35b610156610151366004611751565b6103b8565b60405161013a919061215c565b61012d610171366004611751565b610468565b610189610184366004611751565b610489565b60405161013a91906121a3565b6101a96101a4366004611751565b610539565b60405161013a9190612244565b6101c96101c4366004611751565b61053d565b60405161013a919061264a565b6101e96101e4366004611751565b6105e9565b60405161013a9291906122a4565b61020a6102053660046117d4565b610b44565b60405161013a9190612610565b61022a610225366004611751565b610b78565b60405161013a919061227e565b6101a9610245366004611751565b610c28565b61025d610258366004611751565b610c2d565b60405161013a91906122ce565b61022a61027836600461190f565b610cd9565b61029061028b366004611751565b610da1565b60405161013a9190612291565b6102b06102ab366004611751565b610ddb565b60405161013a91906122dc565b61020a6102cb366004611674565b610e87565b61022a6102de366004611751565b610f39565b6101566102f1366004611751565b610f95565b8051606090156103215760405162461bcd60e51b8152600401610318906125c1565b60405180910390fd5b60208201516040516325652e8960e01b815273__CBOR__________________________________916325652e899161035c9190600401612637565b60006040518083038186803b15801561037457600080fd5b505af4158015610388573d6000803e3d6000fd5b505050506040513d6000823e601f3d908101601f191682016040526103b091908101906115e5565b90505b919050565b80516060906103d95760405162461bcd60e51b81526004016103189061247b565b602082015160405163dcb68ea160e01b815273__CBOR__________________________________9163dcb68ea1916104149190600401612637565b60006040518083038186803b15801561042c57600080fd5b505af4158015610440573d6000803e3d6000fd5b505050506040513d6000823e601f3d908101601f191682016040526103b091908101906114bf565b80516060906103215760405162461bcd60e51b8152600401610318906122ea565b80516060906104aa5760405162461bcd60e51b81526004016103189061251f565b6020820151604051636e16eb8160e01b815273__CBOR__________________________________91636e16eb81916104e59190600401612637565b60006040518083038186803b1580156104fd57600080fd5b505af4158015610511573d6000803e3d6000fd5b505050506040513d6000823e601f3d908101601f191682016040526103b0919081019061155a565b5190565b805160009061055e5760405162461bcd60e51b815260040161031890612389565b602082015160405163d9aee20960e01b815273__CBOR__________________________________9163d9aee209916105999190600401612637565b60206040518083038186803b1580156105b157600080fd5b505af41580156105c5573d6000803e3d6000fd5b505050506040513d601f19601f820116820180604052508101906103b0919061192b565b60006060806105f7846102f6565b905080516000141561064257505060408051808201909152601d81527f556e6b6e6f776e206572726f7220286e6f206572726f7220636f646529000000602082015260009150610b3f565b60006106618260008151811061065457fe5b6020026020010151610ff1565b90506060600182604381111561067357fe5b14801561068257506002835110155b156106ca576106a48360018151811061069757fe5b6020026020010151611029565b6040516020016106b49190611c16565b6040516020818303038152906040529050610b38565b60028260438111156106d857fe5b1480156106e757506002835110155b1561070c576106fc8360018151811061069757fe5b6040516020016106b49190611ce0565b600382604381111561071a57fe5b14801561072957506002835110155b1561074e5761073e8360018151811061069757fe5b6040516020016106b49190611c74565b601082604381111561075c57fe5b14801561076b57506002835110155b15610790576107808360018151811061069757fe5b6040516020016106b49190611f21565b601182604381111561079e57fe5b1480156107ad57506004835110155b15610801576107c28360028151811061069757fe5b6107df846001815181106107d257fe5b6020026020010151610cd9565b6107ef8560038151811061069757fe5b6040516020016106b493929190611f82565b602082604381111561080f57fe5b14801561081e57506005835110155b15610883576108408360048151811061083357fe5b60200260200101516111dc565b6108508460038151811061069757fe5b6108608560028151811061069757fe5b610870866001815181106107d257fe5b6040516020016106b49493929190611b2e565b603082604381111561089157fe5b1480156108a057506003835110155b15610965576108b58360018151811061069757fe5b6108e56064856002815181106108c757fe5b60200260200101516001600160401b0316816108df57fe5b04611029565b610922600a6064876002815181106108f957fe5b60200260200101516001600160401b03168161091157fe5b066001600160401b0316816108df57fe5b610952600a8760028151811061093457fe5b60200260200101516001600160401b03168161094c57fe5b06611029565b6040516020016106b49493929190612034565b603182604381111561097357fe5b14801561098257506002835110155b156109a7576109978360018151811061069757fe5b6040516020016106b491906120ef565b60408260438111156109b557fe5b1480156109c457506005835110155b15610a1c576109d98360048151811061083357fe5b6109e98460038151811061069757fe5b6109f98560028151811061069757fe5b610a09866001815181106107d257fe5b6040516020016106b49493929190611a4a565b6041826043811115610a2a57fe5b148015610a3957506005835110155b15610a9157610a4e8360048151811061083357fe5b610a5e8460038151811061069757fe5b610a6e8560028151811061069757fe5b610a7e866001815181106107d257fe5b6040516020016106b49493929190611e3d565b6042826043811115610a9f57fe5b148015610aae57506005835110155b15610b0657610ac38360048151811061083357fe5b610ad38460038151811061069757fe5b610ae38560028151811061069757fe5b610af3866001815181106107d257fe5b6040516020016106b49493929190611d4c565b610b168360008151811061083357fe5b604051602001610b269190611a06565b60405160208183030381529060405290505b9093509150505b915091565b610b4c611293565b5060a0810151604080518082019091526001600160401b03909116602714158152602081019190915290565b8051606090610b995760405162461bcd60e51b81526004016103189061233c565b602082015160405163f896fab360e01b815273__CBOR__________________________________9163f896fab391610bd49190600401612637565b60006040518083038186803b158015610bec57600080fd5b505af4158015610c00573d6000803e3d6000fd5b505050506040513d6000823e601f3d908101601f191682016040526103b091908101906116dd565b511590565b8051600090610c4e5760405162461bcd60e51b815260040161031890612571565b602082015160405163537ae6d760e01b815273__CBOR__________________________________9163537ae6d791610c899190600401612637565b60206040518083038186803b158015610ca157600080fd5b505af4158015610cb5573d6000803e3d6000fd5b505050506040513d601f19601f820116820180604052508101906103b0919061170f565b60606001600160401b038216610d0f57506040805180820190915260098152681c995d1c9a595d985b60ba1b60208201526103b3565b816001600160401b031660011415610d49575060408051808201909152600b81526a30b3b3b932b3b0ba34b7b760a91b60208201526103b3565b816001600160401b031660021415610d7d575060408051808201909152600581526474616c6c7960d81b60208201526103b3565b506040805180820190915260078152663ab735b737bbb760c91b60208201526103b3565b60006060610dae836102f6565b9050805160001415610dc45760009150506103b3565b610dd48160008151811061065457fe5b9392505050565b8051600090610dfc5760405162461bcd60e51b8152600401610318906124ce565b6020820151604051639ada264760e01b815273__CBOR__________________________________91639ada264791610e379190600401612637565b60206040518083038186803b158015610e4f57600080fd5b505af4158015610e63573d6000803e3d6000fd5b505050506040513d601f19601f820116820180604052508101906103b09190611730565b610e8f611293565b610e976112b4565b6040516337f2974d60e21b815273__CBOR__________________________________9063dfca5d3490610ed0908790879060040161224f565b60006040518083038186803b158015610ee857600080fd5b505af4158015610efc573d6000803e3d6000fd5b505050506040513d6000823e601f3d908101601f19168201604052610f249190810190611806565b9050610f2f81610b44565b9150505b92915050565b8051606090610f5a5760405162461bcd60e51b81526004016103189061242b565b60208201516040516364af281760e01b815273__CBOR__________________________________916364af281791610bd49190600401612637565b8051606090610fb65760405162461bcd60e51b8152600401610318906123d9565b6020820151604051632a7713f360e11b815273__CBOR__________________________________916354ee27e6916104149190600401612637565b600060436001600160401b038316101561102157816001600160401b0316604381111561101a57fe5b90506103b3565b5060006103b3565b6060600a826001600160401b03161015611090576040805160018082528183019092526060916020820181803683370190505090508260300160f81b8160008151811061107257fe5b60200101906001600160f81b031916908160001a90535090506103b3565b6064826001600160401b0316101561111a57604080516002808252818301909252606091602082018180368337019050509050600a6001600160401b0384160460300160f81b816000815181106110e357fe5b60200101906001600160f81b031916908160001a905350600a6001600160401b0384160660300160f81b8160018151811061107257fe5b60408051600380825281830190925260609160208201818036833701905050905060646001600160401b0384160460300160f81b8160008151811061115b57fe5b60200101906001600160f81b031916908160001a905350600a60646001600160401b038516066001600160401b03168161119157fe5b0460300160f81b816001815181106111a557fe5b60200101906001600160f81b031916908160001a905350600a6001600160401b0384160660300160f81b8160028151811061107257fe5b6040805160028082528183019092526060918291906020820181803683375091925050603060106001600160401b0386160481019150600f851601603960ff8316111561122a576007820191505b60398160ff16111561123a576007015b8160f81b8360008151811061124b57fe5b60200101906001600160f81b031916908160001a9053508060f81b8360018151811061127357fe5b60200101906001600160f81b031916908160001a90535091949350505050565b60405180604001604052806000151581526020016112af6112b4565b905290565b6040518060c001604052806112c76112f0565b815260006020820181905260408201819052606082018190526080820181905260a09091015290565b60408051808201909152606081526000602082015290565b600082601f830112611318578081fd5b815161132b611326826126a3565b61265e565b915080825283602082850101111561134257600080fd5b6113538160208401602086016126c6565b5092915050565b600060c0828403121561136b578081fd5b61137560c061265e565b905081356001600160401b038082111561138e57600080fd5b818401604081870312156113a157600080fd5b6113ab604061265e565b92508035828111156113bc57600080fd5b81019150601f820186136113cf57600080fd5b81356113dd611326826126a3565b818152602088818487010111156113f357600080fd5b828186018284013760008184840101528186526114128982860161147d565b8187015285875261142589828a016114a9565b8188015250505050505061143c83604084016114a9565b604082015261144e83606084016114a9565b60608201526114608360808401611493565b60808201526114728360a08401611493565b60a082015292915050565b8035610f3381612712565b8051610f3381612712565b8035610f3381612724565b8051610f3381612724565b8035610f3381612739565b8051610f3381612739565b600060208083850312156114d1578182fd5b82516001600160401b038111156114e6578283fd5b80840185601f8201126114f7578384fd5b8051915061150761132683612684565b8281528381019082850185850284018601891015611523578687fd5b8693505b8484101561154e57805161153a81612703565b835260019390930192918501918501611527565b50979650505050505050565b6000602080838503121561156c578182fd5b82516001600160401b03811115611581578283fd5b80840185601f820112611592578384fd5b805191506115a261132683612684565b82815283810190828501865b858110156115d7576115c58a888451880101611308565b845292860192908601906001016115ae565b509098975050505050505050565b600060208083850312156115f7578182fd5b82516001600160401b0381111561160c578283fd5b80840185601f82011261161d578384fd5b8051915061162d61132683612684565b8281528381019082850185850284018601891015611649578687fd5b8693505b8484101561154e57805161166081612724565b83526001939093019291850191850161164d565b60008060208385031215611686578081fd5b82356001600160401b038082111561169c578283fd5b81850186601f8201126116ad578384fd5b80359250818311156116bd578384fd5b8660208483010111156116ce578384fd5b60200196919550909350505050565b6000602082840312156116ee578081fd5b81516001600160401b03811115611703578182fd5b610f2f84828501611308565b600060208284031215611720578081fd5b815180600f0b8114610dd4578182fd5b600060208284031215611741578081fd5b81518060030b8114610dd4578182fd5b600060208284031215611762578081fd5b81356001600160401b0380821115611778578283fd5b8184016040818703121561178a578384fd5b611794604061265e565b9250803580151581146117a5578485fd5b83526020810135828111156117b8578485fd5b6117c48782840161135a565b6020850152509195945050505050565b6000602082840312156117e5578081fd5b81356001600160401b038111156117fa578182fd5b610f2f8482850161135a565b600060208284031215611817578081fd5b81516001600160401b038082111561182d578283fd5b81840160c0818703121561183f578384fd5b61184960c061265e565b9250805182811115611859578485fd5b8082016040818903121561186b578586fd5b611875604061265e565b9150805184811115611885578687fd5b61189189828401611308565b8352506118a18860208301611488565b602083015250808452506118b886602083016114b4565b60208401526118ca86604083016114b4565b60408401526118dc86606083016114b4565b60608401526118ee866080830161149e565b60808401526119008660a0830161149e565b60a08401525090949350505050565b600060208284031215611920578081fd5b8135610dd481612724565b60006020828403121561193c578081fd5b8151610dd481612724565b6000815180845261195f8160208601602086016126c6565b601f01601f19169290920160200192915050565b6000815160c084528051604060c0860152611992610100860182611947565b63ffffffff60208401511660e087015260ff602086015116602087015260ff604086015116604087015260ff60608601511660608701526001600160401b03608086015116608087015260a085015192506119f060a08701846119f9565b95945050505050565b6001600160401b03169052565b6000700aadcd6dcdeeedc40cae4e4dee4405060f607b1b82528251611a328160118501602087016126c6565b602960f81b6011939091019283015250601201919050565b60007f556e646572666c6f77206174206f70657261746f7220636f646520307800000082528551611a8281601d850160208a016126c6565b8083016f20666f756e642061742063616c6c202360801b601d82015286519150611ab382602d830160208a016126c6565b8181016b20696e20736372697074202360a01b602d82015286519250611ae0836039830160208a016126c6565b82810191505065010333937b6960d51b603982015284519150611b0a82603f8301602088016126c6565b8181016520737461676560d01b603f82015260458101935050505095945050505050565b60006f09ee0cae4c2e8dee440c6dec8ca4060f60831b825285516020611b5a8260108601838b016126c6565b8184016f20666f756e642061742063616c6c202360801b601082015287519250611b8983838301848b016126c6565b8281016b20696e20736372697074202360a01b8382015287519350611bb484602c8301858b016126c6565b83810191505065010333937b6960d51b602c82015285519250611bdd83603283018489016126c6565b7f207374616765206973206e6f7420737570706f7274656400000000000000000092016032810192909252506049019695505050505050565b60006e536f7572636520736372697074202360881b82528251611c4081600f8501602087016126c6565b7f20776173206e6f7420612076616c69642043424f522076616c75650000000000600f939091019283015250602a01919050565b60007f5468652043424f522076616c756520696e20736372697074202300000000000082528251611cac81601a8501602087016126c6565b7f20776173206e6f7420612076616c6964205241444f4e20736372697074000000601a939091019283015250603701919050565b60007f5468652043424f522076616c756520696e20736372697074202300000000000082528251611d1881601a8501602087016126c6565b7f20776173206e6f7420616e204172726179206f662063616c6c73000000000000601a939091019283015250603401919050565b60007f4469766973696f6e206279207a65726f206174206f70657261746f7220636f648252630ca4060f60e31b60208301528551611d91816024850160208a016126c6565b8083016f20666f756e642061742063616c6c202360801b602482015286519150611dc2826034830160208a016126c6565b8181016b20696e20736372697074202360a01b603482015286519250611def836040830160208a016126c6565b82810191505065010333937b6960d51b604082015284519150611e198260468301602088016126c6565b8181016520737461676560d01b6046820152604c8101935050505095945050505050565b60007f4f766572666c6f77206174206f70657261746f7220636f64652030780000000082528551611e7581601c850160208a016126c6565b8083016f20666f756e642061742063616c6c202360801b601c82015286519150611ea682602c830160208a016126c6565b8181016b20696e20736372697074202360a01b602c82015286519250611ed3836038830160208a016126c6565b82810191505065010333937b6960d51b603882015284519150611efd82603e8301602088016126c6565b8181016520737461676560d01b603e82015260448101935050505095945050505050565b60007f546865207265717565737420636f6e7461696e656420746f6f206d616e7920738252670deeae4c6cae640560c31b60208301528251611f6a8160288501602087016126c6565b602960f81b6028939091019283015250602901919050565b600067536372697074202360c01b82528451611fa58160088501602089016126c6565b80830169010333937b6903a3432960b51b600882015285519150611fd08260128301602089016126c6565b8181017f20737461676520636f6e7461696e656420746f6f206d616e792063616c6c73206012820152600560fb1b6032820152855192506120188360338301602089016126c6565b602960f81b920160338101929092525060340195945050505050565b600067536f75726365202360c01b82528551612057816008850160208a016126c6565b8083017f20636f756c64206e6f74206265207265747269657665642e204661696c65642060088201527503bb4ba3410242a2a281032b93937b91031b7b2329d160551b6028820152865191506120b482603e830160208a016126c6565b85519181016120ca83603e830160208a016126c6565b8551920190506120e182603e8301602088016126c6565b01603e019695505050505050565b600067536f75726365202360c01b825282516121128160088501602087016126c6565b7f20636f756c64206e6f742062652072657472696576656420626563617573652060089390910192830152506c37b31030903a34b6b2b7baba1760991b6028820152603501919050565b6020808252825182820181905260009190848201906040850190845b81811015612197578351600f0b83529284019291840191600101612178565b50909695505050505050565b6000602080830181845280855180835260408601915060408482028701019250838701855b828110156121f657603f198886030184526121e4858351611947565b945092850192908501906001016121c8565b5092979650505050505050565b6020808252825182820181905260009190848201906040850190845b818110156121975783516001600160401b03168352928401929184019160010161221f565b901515815260200190565b60006020825282602083015282846040840137818301604090810191909152601f909201601f19160101919050565b600060208252610dd46020830184611947565b6020810161229e836126f6565b91905290565b60006122af846126f6565b838252604060208301526122c66040830184611947565b949350505050565b600f9190910b815260200190565b60039190910b815260200190565b60208082526032908201527f547269656420746f2072656164206075696e7436345b5d602076616c756520666040820152711c9bdb48195c9c9bdc99590814995cdd5b1d60721b606082015260800190565b6020808252602d908201527f547269656420746f20726561642062797465732076616c75652066726f6d206560408201526c1c9c9bdc99590814995cdd5b1d609a1b606082015260800190565b60208082526030908201527f547269656420746f2072656164206075696e743634602076616c75652066726f60408201526f1b48195c9c9bdc99590814995cdd5b1d60821b606082015260800190565b60208082526032908201527f547269656420746f20726561642060696e743132385b5d602076616c756520666040820152711c9bdb48195c9c9bdc99590814995cdd5b1d60721b606082015260800190565b60208082526030908201527f547269656420746f20726561642060737472696e67602076616c75652066726f60408201526f1b48195c9c9bdc99590814995cdd5b1d60821b606082015260800190565b60208082526033908201527f547269656420746f20726561642060666978656431365b5d602076616c756520604082015272199c9bdb48195c9c9bdc99590814995cdd5b1d606a1b606082015260800190565b60208082526031908201527f547269656420746f2072656164206066697865643136602076616c75652066726040820152701bdb48195c9c9bdc99590814995cdd5b1d607a1b606082015260800190565b60208082526032908201527f547269656420746f20726561642060737472696e675b5d602076616c756520666040820152711c9bdb48195c9c9bdc99590814995cdd5b1d60721b606082015260800190565b60208082526030908201527f547269656420746f20726561642060696e74313238602076616c75652066726f60408201526f1b48195c9c9bdc99590814995cdd5b1d60821b606082015260800190565b6020808252602f908201527f547269656420746f2072656164206572726f7220636f64652066726f6d20737560408201526e18d8d95cdcd99d5b0814995cdd5b1d608a1b606082015260800190565b6000602082528251151560208301526020830151604080840152610f2f6060840182611973565b600060208252610dd46020830184611973565b6001600160401b0391909116815260200190565b6040518181016001600160401b038111828210171561267c57600080fd5b604052919050565b60006001600160401b03821115612699578081fd5b5060209081020190565b60006001600160401b038211156126b8578081fd5b50601f01601f191660200190565b60005b838110156126e15781810151838201526020016126c9565b838111156126f0576000848401525b50505050565b6044811061270057fe5b50565b80600f0b811461270057600080fd5b63ffffffff8116811461270057600080fd5b6001600160401b038116811461270057600080fd5b60ff8116811461270057600080fdfea26469706673582212200788d114b562b83da5299fe8c2c047ce95c7ab726814f51449557bf94cad6c9264736f6c63430006080033",
  "immutableReferences": {},
  "source": "// SPDX-License-Identifier: MIT\n\npragma solidity 0.6.8;\npragma experimental ABIEncoderV2;\n\nimport \"./CBOR.sol\";\n\n\n/**\n * @title A library for decoding Witnet request results\n * @notice The library exposes functions to check the Witnet request success.\n * and retrieve Witnet results from CBOR values into solidity types.\n */\nlibrary Witnet {\n  using CBOR for CBOR.Value;\n\n  /*\n    STRUCTS\n  */\n  struct Result {\n    bool success;\n    CBOR.Value cborValue;\n  }\n\n  /*\n    ENUMS\n  */\n  enum ErrorCodes {\n    // 0x00: Unknown error. Something went really bad!\n    Unknown,\n    // Script format errors\n    /// 0x01: At least one of the source scripts is not a valid CBOR-encoded value.\n    SourceScriptNotCBOR,\n    /// 0x02: The CBOR value decoded from a source script is not an Array.\n    SourceScriptNotArray,\n    /// 0x03: The Array value decoded form a source script is not a valid RADON script.\n    SourceScriptNotRADON,\n    /// Unallocated\n    ScriptFormat0x04,\n    ScriptFormat0x05,\n    ScriptFormat0x06,\n    ScriptFormat0x07,\n    ScriptFormat0x08,\n    ScriptFormat0x09,\n    ScriptFormat0x0A,\n    ScriptFormat0x0B,\n    ScriptFormat0x0C,\n    ScriptFormat0x0D,\n    ScriptFormat0x0E,\n    ScriptFormat0x0F,\n    // Complexity errors\n    /// 0x10: The request contains too many sources.\n    RequestTooManySources,\n    /// 0x11: The script contains too many calls.\n    ScriptTooManyCalls,\n    /// Unallocated\n    Complexity0x12,\n    Complexity0x13,\n    Complexity0x14,\n    Complexity0x15,\n    Complexity0x16,\n    Complexity0x17,\n    Complexity0x18,\n    Complexity0x19,\n    Complexity0x1A,\n    Complexity0x1B,\n    Complexity0x1C,\n    Complexity0x1D,\n    Complexity0x1E,\n    Complexity0x1F,\n    // Operator errors\n    /// 0x20: The operator does not exist.\n    UnsupportedOperator,\n    /// Unallocated\n    Operator0x21,\n    Operator0x22,\n    Operator0x23,\n    Operator0x24,\n    Operator0x25,\n    Operator0x26,\n    Operator0x27,\n    Operator0x28,\n    Operator0x29,\n    Operator0x2A,\n    Operator0x2B,\n    Operator0x2C,\n    Operator0x2D,\n    Operator0x2E,\n    Operator0x2F,\n    // Retrieval-specific errors\n    /// 0x30: At least one of the sources could not be retrieved, but returned HTTP error.\n    HTTP,\n    /// 0x31: Retrieval of at least one of the sources timed out.\n    RetrievalTimeout,\n    /// Unallocated\n    Retrieval0x32,\n    Retrieval0x33,\n    Retrieval0x34,\n    Retrieval0x35,\n    Retrieval0x36,\n    Retrieval0x37,\n    Retrieval0x38,\n    Retrieval0x39,\n    Retrieval0x3A,\n    Retrieval0x3B,\n    Retrieval0x3C,\n    Retrieval0x3D,\n    Retrieval0x3E,\n    Retrieval0x3F,\n    // Math errors\n    /// 0x40: Math operator caused an underflow.\n    Underflow,\n    /// 0x41: Math operator caused an overflow.\n    Overflow,\n    /// 0x42: Tried to divide by zero.\n    DivisionByZero,\n    Size\n  }\n\n  /*\n  Result impl's\n  */\n\n /**\n   * @notice Decode raw CBOR bytes into a Result instance.\n   * @param _cborBytes Raw bytes representing a CBOR-encoded value.\n   * @return A `Result` instance.\n   */\n  function resultFromCborBytes(bytes calldata _cborBytes) external pure returns(Result memory) {\n    CBOR.Value memory cborValue = CBOR.valueFromBytes(_cborBytes);\n    return resultFromCborValue(cborValue);\n  }\n\n /**\n   * @notice Decode a CBOR value into a Result instance.\n   * @param _cborValue An instance of `CBOR.Value`.\n   * @return A `Result` instance.\n   */\n  function resultFromCborValue(CBOR.Value memory _cborValue) public pure returns(Result memory) {\n    // Witnet uses CBOR tag 39 to represent RADON error code identifiers.\n    // [CBOR tag 39] Identifiers for CBOR: https://github.com/lucas-clemente/cbor-specs/blob/master/id.md\n    bool success = _cborValue.tag != 39;\n    return Result(success, _cborValue);\n  }\n\n  /**\n   * @notice Tell if a Result is successful.\n   * @param _result An instance of Result.\n   * @return `true` if successful, `false` if errored.\n   */\n  function isOk(Result memory _result) public pure returns(bool) {\n    return _result.success;\n  }\n\n  /**\n   * @notice Tell if a Result is errored.\n   * @param _result An instance of Result.\n   * @return `true` if errored, `false` if successful.\n   */\n  function isError(Result memory _result) public pure returns(bool) {\n    return !_result.success;\n  }\n\n  /**\n   * @notice Decode a bytes value from a Result as a `bytes` value.\n   * @param _result An instance of Result.\n   * @return The `bytes` decoded from the Result.\n   */\n  function asBytes(Result memory _result) public pure returns(bytes memory) {\n    require(_result.success, \"Tried to read bytes value from errored Result\");\n    return _result.cborValue.decodeBytes();\n  }\n\n  /**\n   * @notice Decode an error code from a Result as a member of `ErrorCodes`.\n   * @param _result An instance of `Result`.\n   * @return The `CBORValue.Error memory` decoded from the Result.\n   */\n  function asErrorCode(Result memory _result) public pure returns(ErrorCodes) {\n    uint64[] memory error = asRawError(_result);\n    if (error.length == 0) {\n      return ErrorCodes.Unknown;\n    }\n\n    return supportedErrorOrElseUnknown(error[0]);\n  }\n\n  /**\n   * @notice Generate a suitable error message for a member of `ErrorCodes` and its corresponding arguments.\n   * @dev WARN: Note that client contracts should wrap this function into a try-catch foreseing potential errors generated in this function\n   * @param _result An instance of `Result`.\n   * @return A tuple containing the `CBORValue.Error memory` decoded from the `Result`, plus a loggable error message.\n   */\n  function asErrorMessage(Result memory _result) public pure returns(ErrorCodes, string memory) {\n    uint64[] memory error = asRawError(_result);\n    if (error.length == 0) {\n      return (ErrorCodes.Unknown, \"Unknown error (no error code)\");\n    }\n    ErrorCodes errorCode = supportedErrorOrElseUnknown(error[0]);\n    bytes memory errorMessage;\n\n    if (errorCode == ErrorCodes.SourceScriptNotCBOR && error.length >= 2) {\n      errorMessage = abi.encodePacked(\"Source script #\", utoa(error[1]), \" was not a valid CBOR value\");\n    } else if (errorCode == ErrorCodes.SourceScriptNotArray && error.length >= 2) {\n      errorMessage = abi.encodePacked(\"The CBOR value in script #\", utoa(error[1]), \" was not an Array of calls\");\n    } else if (errorCode == ErrorCodes.SourceScriptNotRADON && error.length >= 2) {\n      errorMessage = abi.encodePacked(\"The CBOR value in script #\", utoa(error[1]), \" was not a valid RADON script\");\n    } else if (errorCode == ErrorCodes.RequestTooManySources && error.length >= 2) {\n      errorMessage = abi.encodePacked(\"The request contained too many sources (\", utoa(error[1]), \")\");\n    } else if (errorCode == ErrorCodes.ScriptTooManyCalls && error.length >= 4) {\n      errorMessage = abi.encodePacked(\n        \"Script #\",\n        utoa(error[2]),\n        \" from the \",\n        stageName(error[1]),\n        \" stage contained too many calls (\",\n        utoa(error[3]),\n        \")\"\n      );\n    } else if (errorCode == ErrorCodes.UnsupportedOperator && error.length >= 5) {\n      errorMessage = abi.encodePacked(\n      \"Operator code 0x\",\n        utohex(error[4]),\n        \" found at call #\",\n        utoa(error[3]),\n        \" in script #\",\n        utoa(error[2]),\n        \" from \",\n        stageName(error[1]),\n        \" stage is not supported\"\n      );\n    } else if (errorCode == ErrorCodes.HTTP && error.length >= 3) {\n      errorMessage = abi.encodePacked(\n        \"Source #\",\n        utoa(error[1]),\n        \" could not be retrieved. Failed with HTTP error code: \",\n        utoa(error[2] / 100),\n        utoa(error[2] % 100 / 10),\n        utoa(error[2] % 10)\n      );\n    } else if (errorCode == ErrorCodes.RetrievalTimeout && error.length >= 2) {\n      errorMessage = abi.encodePacked(\n        \"Source #\",\n        utoa(error[1]),\n        \" could not be retrieved because of a timeout.\"\n      );\n    } else if (errorCode == ErrorCodes.Underflow && error.length >= 5) {\n      errorMessage = abi.encodePacked(\n        \"Underflow at operator code 0x\",\n        utohex(error[4]),\n        \" found at call #\",\n        utoa(error[3]),\n        \" in script #\",\n        utoa(error[2]),\n        \" from \",\n        stageName(error[1]),\n        \" stage\"\n      );\n    } else if (errorCode == ErrorCodes.Overflow && error.length >= 5) {\n      errorMessage = abi.encodePacked(\n        \"Overflow at operator code 0x\",\n        utohex(error[4]),\n        \" found at call #\",\n        utoa(error[3]),\n        \" in script #\",\n        utoa(error[2]),\n        \" from \",\n        stageName(error[1]),\n        \" stage\"\n      );\n    } else if (errorCode == ErrorCodes.DivisionByZero && error.length >= 5) {\n      errorMessage = abi.encodePacked(\n        \"Division by zero at operator code 0x\",\n        utohex(error[4]),\n        \" found at call #\",\n        utoa(error[3]),\n        \" in script #\",\n        utoa(error[2]),\n        \" from \",\n        stageName(error[1]),\n        \" stage\"\n      );\n    } else {\n      errorMessage = abi.encodePacked(\"Unknown error (0x\", utohex(error[0]), \")\");\n    }\n\n    return (errorCode, string(errorMessage));\n  }\n\n  /**\n   * @notice Decode a raw error from a `Result` as a `uint64[]`.\n   * @param _result An instance of `Result`.\n   * @return The `uint64[]` raw error as decoded from the `Result`.\n   */\n  function asRawError(Result memory _result) public pure returns(uint64[] memory) {\n    require(!_result.success, \"Tried to read error code from successful Result\");\n    return _result.cborValue.decodeUint64Array();\n  }\n\n  /**\n   * @notice Decode a fixed16 (half-precision) numeric value from a Result as an `int32` value.\n   * @dev Due to the lack of support for floating or fixed point arithmetic in the EVM, this method offsets all values.\n   * by 5 decimal orders so as to get a fixed precision of 5 decimal positions, which should be OK for most `fixed16`.\n   * use cases. In other words, the output of this method is 10,000 times the actual value, encoded into an `int32`.\n   * @param _result An instance of Result.\n   * @return The `int128` decoded from the Result.\n   */\n  function asFixed16(Result memory _result) public pure returns(int32) {\n    require(_result.success, \"Tried to read `fixed16` value from errored Result\");\n    return _result.cborValue.decodeFixed16();\n  }\n\n  /**\n   * @notice Decode an array of fixed16 values from a Result as an `int128[]` value.\n   * @param _result An instance of Result.\n   * @return The `int128[]` decoded from the Result.\n   */\n  function asFixed16Array(Result memory _result) public pure returns(int128[] memory) {\n    require(_result.success, \"Tried to read `fixed16[]` value from errored Result\");\n    return _result.cborValue.decodeFixed16Array();\n  }\n\n  /**\n   * @notice Decode a integer numeric value from a Result as an `int128` value.\n   * @param _result An instance of Result.\n   * @return The `int128` decoded from the Result.\n   */\n  function asInt128(Result memory _result) public pure returns(int128) {\n    require(_result.success, \"Tried to read `int128` value from errored Result\");\n    return _result.cborValue.decodeInt128();\n  }\n\n  /**\n   * @notice Decode an array of integer numeric values from a Result as an `int128[]` value.\n   * @param _result An instance of Result.\n   * @return The `int128[]` decoded from the Result.\n   */\n  function asInt128Array(Result memory _result) public pure returns(int128[] memory) {\n    require(_result.success, \"Tried to read `int128[]` value from errored Result\");\n    return _result.cborValue.decodeInt128Array();\n  }\n\n  /**\n   * @notice Decode a string value from a Result as a `string` value.\n   * @param _result An instance of Result.\n   * @return The `string` decoded from the Result.\n   */\n  function asString(Result memory _result) public pure returns(string memory) {\n    require(_result.success, \"Tried to read `string` value from errored Result\");\n    return _result.cborValue.decodeString();\n  }\n\n  /**\n   * @notice Decode an array of string values from a Result as a `string[]` value.\n   * @param _result An instance of Result.\n   * @return The `string[]` decoded from the Result.\n   */\n  function asStringArray(Result memory _result) public pure returns(string[] memory) {\n    require(_result.success, \"Tried to read `string[]` value from errored Result\");\n    return _result.cborValue.decodeStringArray();\n  }\n\n  /**\n   * @notice Decode a natural numeric value from a Result as a `uint64` value.\n   * @param _result An instance of Result.\n   * @return The `uint64` decoded from the Result.\n   */\n  function asUint64(Result memory _result) public pure returns(uint64) {\n    require(_result.success, \"Tried to read `uint64` value from errored Result\");\n    return _result.cborValue.decodeUint64();\n  }\n\n  /**\n   * @notice Decode an array of natural numeric values from a Result as a `uint64[]` value.\n   * @param _result An instance of Result.\n   * @return The `uint64[]` decoded from the Result.\n   */\n  function asUint64Array(Result memory _result) public pure returns(uint64[] memory) {\n    require(_result.success, \"Tried to read `uint64[]` value from errored Result\");\n    return _result.cborValue.decodeUint64Array();\n  }\n\n  /**\n   * @notice Convert a stage index number into the name of the matching Witnet request stage.\n   * @param _stageIndex A `uint64` identifying the index of one of the Witnet request stages.\n   * @return The name of the matching stage.\n   */\n  function stageName(uint64 _stageIndex) public pure returns(string memory) {\n    if (_stageIndex == 0) {\n      return \"retrieval\";\n    } else if (_stageIndex == 1) {\n      return \"aggregation\";\n    } else if (_stageIndex == 2) {\n      return \"tally\";\n    } else {\n      return \"unknown\";\n    }\n  }\n\n  /**\n  * @notice Get an `ErrorCodes` item from its `uint64` discriminant, or default to `ErrorCodes.Unknown` if it doesn't\n  * exist.\n  * @param _discriminant The numeric identifier of an error.\n  * @return A member of `ErrorCodes`.\n  */\n  function supportedErrorOrElseUnknown(uint64 _discriminant) private pure returns(ErrorCodes) {\n    if (_discriminant < uint8(ErrorCodes.Size)) {\n      return ErrorCodes(_discriminant);\n    } else {\n      return ErrorCodes.Unknown;\n    }\n  }\n\n  /**\n   * @notice Convert a `uint64` into a 1, 2 or 3 characters long `string` representing its.\n   * three less significant decimal values.\n   * @param _u A `uint64` value.\n   * @return The `string` representing its decimal value.\n   */\n  function utoa(uint64 _u) private pure returns(string memory) {\n    if (_u < 10) {\n      bytes memory b1 = new bytes(1);\n      b1[0] = byte(uint8(_u) + 48);\n      return string(b1);\n    } else if (_u < 100) {\n      bytes memory b2 = new bytes(2);\n      b2[0] = byte(uint8(_u / 10) + 48);\n      b2[1] = byte(uint8(_u % 10) + 48);\n      return string(b2);\n    } else {\n      bytes memory b3 = new bytes(3);\n      b3[0] = byte(uint8(_u / 100) + 48);\n      b3[1] = byte(uint8(_u % 100 / 10) + 48);\n      b3[2] = byte(uint8(_u % 10) + 48);\n      return string(b3);\n    }\n  }\n\n  /**\n * @notice Convert a `uint64` into a 2 characters long `string` representing its two less significant hexadecimal values.\n * @param _u A `uint64` value.\n * @return The `string` representing its hexadecimal value.\n */\n  function utohex(uint64 _u) private pure returns(string memory) {\n    bytes memory b2 = new bytes(2);\n    uint8 d0 = uint8(_u / 16) + 48;\n    uint8 d1 = uint8(_u % 16) + 48;\n    if (d0 > 57)\n      d0 += 7;\n    if (d1 > 57)\n      d1 += 7;\n    b2[0] = byte(d0);\n    b2[1] = byte(d1);\n    return string(b2);\n  }\n}\n",
  "sourcePath": "/Users/sbacha/witnet-ethereum-bridge/contracts/Witnet.sol",
  "compiler": {
    "name": "solc",
    "version": "0.6.8+commit.0bbfe453.Emscripten.clang"
  },
  "schemaVersion": "3.2.0",
  "updatedAt": "2020-06-12T08:08:15.483Z",
  "devdoc": {
    "methods": {
      "asBytes(Witnet.Result)": {
        "params": {
          "_result": "An instance of Result."
        },
        "returns": {
          "_0": "The `bytes` decoded from the Result."
        }
      },
      "asErrorCode(Witnet.Result)": {
        "params": {
          "_result": "An instance of `Result`."
        },
        "returns": {
          "_0": "The `CBORValue.Error memory` decoded from the Result."
        }
      },
      "asErrorMessage(Witnet.Result)": {
        "details": "WARN: Note that client contracts should wrap this function into a try-catch foreseing potential errors generated in this function",
        "params": {
          "_result": "An instance of `Result`."
        },
        "returns": {
          "_0": "A tuple containing the `CBORValue.Error memory` decoded from the `Result`, plus a loggable error message."
        }
      },
      "asFixed16(Witnet.Result)": {
        "details": "Due to the lack of support for floating or fixed point arithmetic in the EVM, this method offsets all values. by 5 decimal orders so as to get a fixed precision of 5 decimal positions, which should be OK for most `fixed16`. use cases. In other words, the output of this method is 10,000 times the actual value, encoded into an `int32`.",
        "params": {
          "_result": "An instance of Result."
        },
        "returns": {
          "_0": "The `int128` decoded from the Result."
        }
      },
      "asFixed16Array(Witnet.Result)": {
        "params": {
          "_result": "An instance of Result."
        },
        "returns": {
          "_0": "The `int128[]` decoded from the Result."
        }
      },
      "asInt128(Witnet.Result)": {
        "params": {
          "_result": "An instance of Result."
        },
        "returns": {
          "_0": "The `int128` decoded from the Result."
        }
      },
      "asInt128Array(Witnet.Result)": {
        "params": {
          "_result": "An instance of Result."
        },
        "returns": {
          "_0": "The `int128[]` decoded from the Result."
        }
      },
      "asRawError(Witnet.Result)": {
        "params": {
          "_result": "An instance of `Result`."
        },
        "returns": {
          "_0": "The `uint64[]` raw error as decoded from the `Result`."
        }
      },
      "asString(Witnet.Result)": {
        "params": {
          "_result": "An instance of Result."
        },
        "returns": {
          "_0": "The `string` decoded from the Result."
        }
      },
      "asStringArray(Witnet.Result)": {
        "params": {
          "_result": "An instance of Result."
        },
        "returns": {
          "_0": "The `string[]` decoded from the Result."
        }
      },
      "asUint64(Witnet.Result)": {
        "params": {
          "_result": "An instance of Result."
        },
        "returns": {
          "_0": "The `uint64` decoded from the Result."
        }
      },
      "asUint64Array(Witnet.Result)": {
        "params": {
          "_result": "An instance of Result."
        },
        "returns": {
          "_0": "The `uint64[]` decoded from the Result."
        }
      },
      "isError(Witnet.Result)": {
        "params": {
          "_result": "An instance of Result."
        },
        "returns": {
          "_0": "`true` if errored, `false` if successful."
        }
      },
      "isOk(Witnet.Result)": {
        "params": {
          "_result": "An instance of Result."
        },
        "returns": {
          "_0": "`true` if successful, `false` if errored."
        }
      },
      "resultFromCborBytes(bytes)": {
        "params": {
          "_cborBytes": "Raw bytes representing a CBOR-encoded value."
        },
        "returns": {
          "_0": "A `Result` instance."
        }
      },
      "resultFromCborValue(CBOR.Value)": {
        "params": {
          "_cborValue": "An instance of `CBOR.Value`."
        },
        "returns": {
          "_0": "A `Result` instance."
        }
      },
      "stageName(uint64)": {
        "params": {
          "_stageIndex": "A `uint64` identifying the index of one of the Witnet request stages."
        },
        "returns": {
          "_0": "The name of the matching stage."
        }
      }
    },
    "title": "A library for decoding Witnet request results"
  },
  "userdoc": {
    "methods": {
      "asBytes(Witnet.Result)": {
        "notice": "Decode a bytes value from a Result as a `bytes` value."
      },
      "asErrorCode(Witnet.Result)": {
        "notice": "Decode an error code from a Result as a member of `ErrorCodes`."
      },
      "asErrorMessage(Witnet.Result)": {
        "notice": "Generate a suitable error message for a member of `ErrorCodes` and its corresponding arguments."
      },
      "asFixed16(Witnet.Result)": {
        "notice": "Decode a fixed16 (half-precision) numeric value from a Result as an `int32` value."
      },
      "asFixed16Array(Witnet.Result)": {
        "notice": "Decode an array of fixed16 values from a Result as an `int128[]` value."
      },
      "asInt128(Witnet.Result)": {
        "notice": "Decode a integer numeric value from a Result as an `int128` value."
      },
      "asInt128Array(Witnet.Result)": {
        "notice": "Decode an array of integer numeric values from a Result as an `int128[]` value."
      },
      "asRawError(Witnet.Result)": {
        "notice": "Decode a raw error from a `Result` as a `uint64[]`."
      },
      "asString(Witnet.Result)": {
        "notice": "Decode a string value from a Result as a `string` value."
      },
      "asStringArray(Witnet.Result)": {
        "notice": "Decode an array of string values from a Result as a `string[]` value."
      },
      "asUint64(Witnet.Result)": {
        "notice": "Decode a natural numeric value from a Result as a `uint64` value."
      },
      "asUint64Array(Witnet.Result)": {
        "notice": "Decode an array of natural numeric values from a Result as a `uint64[]` value."
      },
      "isError(Witnet.Result)": {
        "notice": "Tell if a Result is errored."
      },
      "isOk(Witnet.Result)": {
        "notice": "Tell if a Result is successful."
      },
      "resultFromCborBytes(bytes)": {
        "notice": "Decode raw CBOR bytes into a Result instance."
      },
      "resultFromCborValue(CBOR.Value)": {
        "notice": "Decode a CBOR value into a Result instance."
      },
      "stageName(uint64)": {
        "notice": "Convert a stage index number into the name of the matching Witnet request stage."
      }
    },
    "notice": "The library exposes functions to check the Witnet request success. and retrieve Witnet results from CBOR values into solidity types."
  }
}