{
  "contractName": "WitnetRequestsBoardProxy",
  "abi": [
    {
      "inputs": [
        {
          "internalType": "address",
          "name": "_witnetRequestsBoardAddress",
          "type": "address"
        }
      ],
      "stateMutability": "nonpayable",
      "type": "constructor"
    },
    {
      "inputs": [],
      "name": "witnetRequestsBoardAddress",
      "outputs": [
        {
          "internalType": "address",
          "name": "",
          "type": "address"
        }
      ],
      "stateMutability": "view",
      "type": "function"
    },
    {
      "inputs": [
        {
          "internalType": "bytes",
          "name": "_dr",
          "type": "bytes"
        },
        {
          "internalType": "uint256",
          "name": "_tallyReward",
          "type": "uint256"
        }
      ],
      "name": "postDataRequest",
      "outputs": [
        {
          "internalType": "uint256",
          "name": "",
          "type": "uint256"
        }
      ],
      "stateMutability": "payable",
      "type": "function"
    },
    {
      "inputs": [
        {
          "internalType": "uint256",
          "name": "_id",
          "type": "uint256"
        },
        {
          "internalType": "uint256",
          "name": "_tallyReward",
          "type": "uint256"
        }
      ],
      "name": "upgradeDataRequest",
      "outputs": [],
      "stateMutability": "payable",
      "type": "function"
    },
    {
      "inputs": [
        {
          "internalType": "uint256",
          "name": "_id",
          "type": "uint256"
        }
      ],
      "name": "readDrHash",
      "outputs": [
        {
          "internalType": "uint256",
          "name": "",
          "type": "uint256"
        }
      ],
      "stateMutability": "view",
      "type": "function"
    },
    {
      "inputs": [
        {
          "internalType": "uint256",
          "name": "_id",
          "type": "uint256"
        }
      ],
      "name": "readResult",
      "outputs": [
        {
          "internalType": "bytes",
          "name": "",
          "type": "bytes"
        }
      ],
      "stateMutability": "view",
      "type": "function"
    },
    {
      "inputs": [
        {
          "internalType": "address",
          "name": "_newAddress",
          "type": "address"
        }
      ],
      "name": "upgradeWitnetRequestsBoard",
      "outputs": [],
      "stateMutability": "nonpayable",
      "type": "function"
    }
  ],
  "bytecode": "0x608060405234801561001057600080fd5b506040516109f63803806109f68339818101604052602081101561003357600080fd5b5051604080518082019091526001600160a01b0391821680825260006020830181815260038054600181018255908352935160029485027fc2575a0e9e593c00f959f8c92f12db2869c3395a3b0502d05e2516446f71f85b81018054929097166001600160a01b03199283161790965590517fc2575a0e9e593c00f959f8c92f12db2869c3395a3b0502d05e2516446f71f85c90950194909455805484168217905581549092169091179055610908806100ee6000396000f3fe6080604052600436106100555760003560e01c806308ba73421461005a578063240d3efa1461009657806345b3d782146100cb57806348ab5b651461016a57806375861d581461018d578063ec32e3db146101be575b600080fd5b34801561006657600080fd5b506100846004803603602081101561007d57600080fd5b503561022e565b60408051918252519081900360200190f35b3480156100a257600080fd5b506100c9600480360360208110156100b957600080fd5b50356001600160a01b03166102c6565b005b3480156100d757600080fd5b506100f5600480360360208110156100ee57600080fd5b5035610478565b6040805160208082528351818301528351919283929083019185019080838360005b8381101561012f578181015183820152602001610117565b50505050905090810190601f16801561015c5780820380516001836020036101000a031916815260200191505b509250505060405180910390f35b6100c96004803603604081101561018057600080fd5b50803590602001356105cd565b34801561019957600080fd5b506101a2610652565b604080516001600160a01b039092168252519081900360200190f35b610084600480360360408110156101d457600080fd5b8101906020810181356401000000008111156101ef57600080fd5b82018360208201111561020157600080fd5b8035906020019184600183028401116401000000008311171561022357600080fd5b919350915035610661565b600080600061023c84610759565b6040805163045d39a160e11b81528288036004820152905192945090925083916000916001600160a01b038416916308ba734291602480820192602092909190829003018186803b15801561029057600080fd5b505afa1580156102a4573d6000803e3d6000fd5b505050506040513d60208110156102ba57600080fd5b50519695505050505050565b60005481906001600160a01b03808316911614156103155760405162461bcd60e51b81526004018080602001828103825260458152602001806108536045913960600191505060405180910390fd5b6002546040805163be2adb3560e01b815233600482015290516001600160a01b039092169163be2adb3591602480820192602092909190829003018186803b15801561036057600080fd5b505afa158015610374573d6000803e3d6000fd5b505050506040513d602081101561038a57600080fd5b50516103c75760405162461bcd60e51b815260040180806020018281038252603b815260200180610898603b913960400191505060405180910390fd5b50604080518082019091526001600160a01b0391821680825260018054602084019081526003805492830181556000908152935160029283027fc2575a0e9e593c00f959f8c92f12db2869c3395a3b0502d05e2516446f71f85b81018054929097166001600160a01b03199283161790965590517fc2575a0e9e593c00f959f8c92f12db2869c3395a3b0502d05e2516446f71f85c9095019490945582548416821790925581549092169091179055565b606060008061048684610759565b604080516322d9ebc160e11b81528288036004820152905192945090925083916001600160a01b038316916345b3d782916024808301926000929190829003018186803b1580156104d657600080fd5b505afa1580156104ea573d6000803e3d6000fd5b505050506040513d6000823e601f3d908101601f19168201604052602081101561051357600080fd5b810190808051604051939291908464010000000082111561053357600080fd5b90830190602082018581111561054857600080fd5b825164010000000081118282018810171561056257600080fd5b82525081516020918201929091019080838360005b8381101561058f578181015183820152602001610577565b50505050905090810190601f1680156105bc5780820380516001836020036101000a031916815260200191505b506040525050509350505050919050565b6000806105d984610759565b600254604080516348ab5b6560e01b815283890360048201526024810188905290519395509193506001600160a01b0316916348ab5b65913491604480830192600092919082900301818588803b15801561063357600080fd5b505af1158015610647573d6000803e3d6000fd5b505050505050505050565b6000546001600160a01b031681565b600380546000918290600019830183811061067857fe5b906000526020600020906002020160010154905080600260009054906101000a90046001600160a01b03166001600160a01b031663ec32e3db348989896040518563ffffffff1660e01b815260040180806020018381526020018281038252858582818152602001925080828437600083820152604051601f909101601f191690920196506020955090935050508184039050818588803b15801561071c57600080fd5b505af1158015610730573d6000803e3d6000fd5b50505050506040513d602081101561074757600080fd5b50510160018190559695505050505050565b600080600083116107b1576040805162461bcd60e51b815260206004820181905260248201527f4e6f6e2d6578697374656e7420636f6e74726f6c6c657220666f722069642030604482015290519081900360640190fd5b600354805b801561084a57600360018203815481106107cc57fe5b90600052602060002090600202016001015485111561084157600360018203815481106107f557fe5b6000918252602090912060029091020154600380546001600160a01b0390921691600019840190811061082457fe5b90600052602060002090600202016001015493509350505061084d565b600019016107b6565b50505b91509156fe5468652070726f7669646564205769746e657420526571756573747320426f61726420696e7374616e6365206164647265737320697320616c726561647920696e20757365546865207570677261646520686173206265656e2072656a6563746564206279207468652063757272656e7420696d706c656d656e746174696f6ea2646970667358221220629f5b12ab31800b4086f8d920c308c98327c2039f2418d76fe7cb38e03db4c664736f6c63430006080033",
  "immutableReferences": {},
  "source": "// SPDX-License-Identifier: MIT\n\npragma solidity 0.6.8;\n\nimport \"./WitnetRequestsBoardInterface.sol\";\n\n\n/**\n * @title Block Relay Proxy\n * @notice Contract to act as a proxy between the Witnet Bridge Interface and the Block Relay.\n * @author Witnet Foundation\n */\ncontract WitnetRequestsBoardProxy {\n\n  // Address of the Witnet Request Board contract that is currently being used\n  address public witnetRequestsBoardAddress;\n\n  // Struct if the information of each controller\n  struct ControllerInfo {\n    // Address of the Controller\n    address controllerAddress;\n    // The lastId of the previous Controller\n    uint256 lastId;\n  }\n\n  // Last id of the WRB controller\n  uint256 internal currentLastId;\n\n  // Instance of the current WitnetRequestBoard\n  WitnetRequestsBoardInterface internal witnetRequestsBoardInstance;\n\n  // Array with the controllers that have been used in the Proxy\n  ControllerInfo[] internal controllers;\n\n  modifier notIdentical(address _newAddress) {\n    require(_newAddress != witnetRequestsBoardAddress, \"The provided Witnet Requests Board instance address is already in use\");\n    _;\n  }\n\n /**\n  * @notice Include an address to specify the Witnet Request Board.\n  * @param _witnetRequestsBoardAddress WitnetRequestBoard address.\n  */\n  constructor(address _witnetRequestsBoardAddress) public {\n    // Initialize the first epoch pointing to the first controller\n    controllers.push(ControllerInfo({controllerAddress: _witnetRequestsBoardAddress, lastId: 0}));\n    witnetRequestsBoardAddress = _witnetRequestsBoardAddress;\n    witnetRequestsBoardInstance = WitnetRequestsBoardInterface(_witnetRequestsBoardAddress);\n  }\n\n  /// @dev Posts a data request into the WRB in expectation that it will be relayed and resolved in Witnet with a total reward that equals to msg.value.\n  /// @param _dr The bytes corresponding to the Protocol Buffers serialization of the data request output.\n  /// @param _tallyReward The amount of value that will be detracted from the transaction value and reserved for rewarding the reporting of the final result (aka tally) of the data request.\n  /// @return The unique identifier of the data request.\n  function postDataRequest(bytes calldata _dr, uint256 _tallyReward) external payable returns(uint256) {\n    uint256 n = controllers.length;\n    uint256 offset = controllers[n - 1].lastId;\n    // Update the currentLastId with the id in the controller plus the offSet\n    currentLastId = witnetRequestsBoardInstance.postDataRequest{value: msg.value}(_dr, _tallyReward) + offset;\n    return currentLastId;\n  }\n\n  /// @dev Increments the rewards of a data request by adding more value to it. The new request reward will be increased by msg.value minus the difference between the former tally reward and the new tally reward.\n  /// @param _id The unique identifier of the data request.\n  /// @param _tallyReward The new tally reward. Needs to be equal or greater than the former tally reward.\n  function upgradeDataRequest(uint256 _id, uint256 _tallyReward) external payable {\n    address wrbAddress;\n    uint256 wrbOffset;\n    (wrbAddress, wrbOffset) = getController(_id);\n    return witnetRequestsBoardInstance.upgradeDataRequest{value: msg.value}(_id - wrbOffset, _tallyReward);\n  }\n\n  /// @dev Retrieves the DR hash of the id from the WRB.\n  /// @param _id The unique identifier of the data request.\n  /// @return The hash of the DR.\n  function readDrHash (uint256 _id)\n    external\n    view\n  returns(uint256)\n  {\n    // Get the address and the offset of the corresponding to id\n    address wrbAddress;\n    uint256 offsetWrb;\n    (wrbAddress, offsetWrb) = getController(_id);\n    // Return the result of the DR readed in the corresponding Controller with its own id\n    WitnetRequestsBoardInterface wrbWithDrHash;\n    wrbWithDrHash = WitnetRequestsBoardInterface(wrbAddress);\n    uint256 drHash = wrbWithDrHash.readDrHash(_id - offsetWrb);\n    return drHash;\n  }\n\n  /// @dev Retrieves the result (if already available) of one data request from the WRB.\n  /// @param _id The unique identifier of the data request.\n  /// @return The result of the DR.\n  function readResult(uint256 _id) external view returns(bytes memory) {\n    // Get the address and the offset of the corresponding to id\n    address wrbAddress;\n    uint256 offSetWrb;\n    (wrbAddress, offSetWrb) = getController(_id);\n    // Return the result of the DR in the corresponding Controller with its own id\n    WitnetRequestsBoardInterface wrbWithResult;\n    wrbWithResult = WitnetRequestsBoardInterface(wrbAddress);\n    return wrbWithResult.readResult(_id - offSetWrb);\n  }\n\n  /// @notice Upgrades the Witnet Requests Board if the current one is upgradeable.\n  /// @param _newAddress address of the new block relay to upgrade.\n  function upgradeWitnetRequestsBoard(address _newAddress) public notIdentical(_newAddress) {\n    // Require the WRB is upgradable\n    require(witnetRequestsBoardInstance.isUpgradable(msg.sender), \"The upgrade has been rejected by the current implementation\");\n    // Map the currentLastId to the corresponding witnetRequestsBoardAddress and add it to controllers\n    controllers.push(ControllerInfo({controllerAddress: _newAddress, lastId: currentLastId}));\n    // Upgrade the WRB\n    witnetRequestsBoardAddress = _newAddress;\n    witnetRequestsBoardInstance = WitnetRequestsBoardInterface(_newAddress);\n  }\n\n  /// @notice Gets the controller from an Id.\n  /// @param _id id of a Data Request from which we get the controller.\n  function getController(uint256 _id) internal view returns(address _controllerAddress, uint256 _offset) {\n    // Check id is bigger than 0\n    require(_id > 0, \"Non-existent controller for id 0\");\n\n    uint256 n = controllers.length;\n    // If the id is bigger than the lastId of a Controller, read the result in that Controller\n    for (uint i = n; i > 0; i--) {\n      if (_id > controllers[i - 1].lastId) {\n        return (controllers[i - 1].controllerAddress, controllers[i - 1].lastId);\n      }\n    }\n  }\n\n}\n",
  "sourcePath": "/Users/sbacha/witnet-ethereum-bridge/contracts/WitnetRequestsBoardProxy.sol",
  "compiler": {
    "name": "solc",
    "version": "0.6.8+commit.0bbfe453.Emscripten.clang"
  },
  "schemaVersion": "3.2.0",
  "updatedAt": "2020-06-12T08:08:15.516Z",
  "devdoc": {
    "author": "Witnet Foundation",
    "methods": {
      "constructor": {
        "params": {
          "_witnetRequestsBoardAddress": "WitnetRequestBoard address."
        }
      },
      "postDataRequest(bytes,uint256)": {
        "details": "Posts a data request into the WRB in expectation that it will be relayed and resolved in Witnet with a total reward that equals to msg.value.",
        "params": {
          "_dr": "The bytes corresponding to the Protocol Buffers serialization of the data request output.",
          "_tallyReward": "The amount of value that will be detracted from the transaction value and reserved for rewarding the reporting of the final result (aka tally) of the data request."
        },
        "returns": {
          "_0": "The unique identifier of the data request."
        }
      },
      "readDrHash(uint256)": {
        "details": "Retrieves the DR hash of the id from the WRB.",
        "params": {
          "_id": "The unique identifier of the data request."
        },
        "returns": {
          "_0": "The hash of the DR."
        }
      },
      "readResult(uint256)": {
        "details": "Retrieves the result (if already available) of one data request from the WRB.",
        "params": {
          "_id": "The unique identifier of the data request."
        },
        "returns": {
          "_0": "The result of the DR."
        }
      },
      "upgradeDataRequest(uint256,uint256)": {
        "details": "Increments the rewards of a data request by adding more value to it. The new request reward will be increased by msg.value minus the difference between the former tally reward and the new tally reward.",
        "params": {
          "_id": "The unique identifier of the data request.",
          "_tallyReward": "The new tally reward. Needs to be equal or greater than the former tally reward."
        }
      },
      "upgradeWitnetRequestsBoard(address)": {
        "params": {
          "_newAddress": "address of the new block relay to upgrade."
        }
      }
    },
    "title": "Block Relay Proxy"
  },
  "userdoc": {
    "methods": {
      "constructor": "Include an address to specify the Witnet Request Board.",
      "upgradeWitnetRequestsBoard(address)": {
        "notice": "Upgrades the Witnet Requests Board if the current one is upgradeable."
      }
    },
    "notice": "Contract to act as a proxy between the Witnet Bridge Interface and the Block Relay."
  }
}